:020000040800F2
:10000000A0210020694F010827700008297000080E
:100010002B7000082D7000082F70000800000000F1
:10002000000000000000000000000000F9200108AE
:100030003170000800000000A12001089FF20008B4
:100040009D510108A1510108A5510108A9510108BC
:10005000AD510108B1510108B5510108B95101086C
:10006000BD510108C151010835700008C551010892
:10007000C9510108CD510108D1510108D5510108DC
:10008000D9510108DD510108E1510108E55101088C
:10009000E9510108ED510108F151010837700008DC
:1000A000F5510108F9510108FD51010801520108FB
:1000B00005520108095201080D52010811520108A8
:1000C00015520108195201081D5201082152010858
:1000D00025520108295201082D5201083152010808
:1000E00035520108395201083D52010841520108B8
:1000F00045520108495201084D5201085152010868
:1001000055520108595201085D5201086152010817
:1001100065520108695201086D52010871520108C7
:1001200075520108795201087D5201088152010877
:1001300085520108895201088D5201089152010827
:1001400095520108995201089D5201085BE300088D
:10015000A1520108A5520108A952010833700008F4
:10016000AD520108B1520108B5520108B952010857
:10017000BD520108C1520108C5520108C952010807
:10018000CD520108D152010801207047DFF82C1D23
:10019000C869F0210170DFF8241DC8690021417091
:1001A000DFF8181DC86900218170DFF8101DD1F833
:1001B000360000210170DFF8041D886900210170FC
:1001C0000120704770B50026DFF8D40BDFF8D41B90
:1001D0008978052202FB01000500DFF8C80B0088C2
:1001E00004002000010089B2280003F0AAFE0028C4
:1001F00005D17FF0620005F054FA300005E0DFF829
:10020000BC0C456101200600300070BDF8B5002728
:10021000DFF88C0BDFF88C1B8978052202FB0100CC
:100220000500DFF87C0BDFF87C1B0978052202FB58
:1002300001000600300005F0A0FC040020000100D1
:1002400089B2280003F07DFE002805D17FF062000E
:1002500005F027FA380005E0DFF8600C4561012061
:1002600007003800F2BD70B50026DFF8340BDFF868
:10027000341B8978052202FB01000500DFF8240BFE
:10028000008804002000010089B2280003F0ACFEC1
:10029000002805D17FF0620005F003FA300005E088
:1002A000DFF8180C456101200600300070BDF8B57C
:1002B0000027DFF8EC0ADFF8EC1A8978052202FB48
:1002C00001000500DFF8D80ADFF8D81A09780522FE
:1002D00002FB01000600300005F04FFC0400200086
:1002E000010089B2280003F07FFE002805D17FF0CD
:1002F000620005F0D6F9380005E0DFF8C00B456173
:10030000012007003800F2BD38B50025DFF8900A5B
:10031000DFF8901A8978052202FB010004005FF0E3
:10032000FF3005F0BEF9002032BD2DE9FC475FF03B
:10033000000ADFF86C0ADFF86C1A0978052202FB64
:1003400001000400DFF8580ADFF8581A89780522FE
:1003500002FB01000500DFF8480ADFF8481A497877
:10036000052202FB01000600DFF82C0D070030001B
:1003700005F003FC8046200005F0FFFB8146B8F144
:10038000000F02D0B9F1000F05D17FF0620005F037
:1003900088F950464FE02878A12802D02878A22872
:1003A00044D13878A12802D03878A2283ED1002242
:1003B0006946280003F0FBFF002805D17FF06200AA
:1003C00005F06FF9504636E0002201A9380003F02D
:1003D000EEFF002805D17FF0620005F062F950467B
:1003E00029E03878A12803D1B3200099087002E0F1
:1003F000B42000990870D7F801000099C1F80100F5
:1004000060200199087000200199A1F8010001986D
:10041000A0F803800098007828700099D1F80100B6
:10042000C5F8010001208246504604E05FF0FF302D
:1004300005F037F90020BDE8F6872DE9F04182B0DC
:100440005FF00008DFF85809DFF85819097805222D
:1004500002FB01000400DFF84809DFF84819897839
:10046000052202FB01000500DFF83409DFF834192A
:100470004978052202FB01000600200005F07DFB03
:100480000700002F05D17FF0620005F00AF9404611
:100490002FE03078A12802D03078A22824D1002281
:1004A0006946300003F083FF002805D17FF0620029
:1004B00005F0F7F840461CE03078A12802D1B320BF
:1004C000287001E0B4202870D6F80100C5F80100BA
:1004D00070200099087000200099A1F80100009890
:1004E000A0F80370012004E05FF0FF3005F0D9F8B8
:1004F0000020BDE8F6812DE9F8435FF00009DFF840
:10050000A008DFF8A0180978052202FB010004000A
:10051000DFF88C08DFF88C188978052202FB0100CF
:100520000500DFF87C08DFF87C184978052202FB1B
:1005300001000600200005F020FB0700002F05D178
:100540007FF0620005F0ADF848463EE028780028CC
:100550001DD1032F08D217F1500028700020C5F8D4
:100560000100012081462FE03078A12802D03078A8
:10057000A22829D1300005F000FB80463A00D2B213
:100580004146280003F09FFF012081461CE02878A7
:10059000B32802D02878B42810D13A00D2B2012171
:1005A000280003F0B0FF002805D17FF0620005F0BD
:1005B00078F8484609E00120814605E07FF0160002
:1005C00005F06FF8484600E04846BDE8F28338B5CC
:1005D0000025DFF8CC07DFF8CC178978052202FB6D
:1005E00001000400200003F01DFF002805D17FF06A
:1005F000620005F056F8280010E0200003F02AFD04
:10060000002805D17FF0620005F04BF8280005E0D6
:10061000DFF8A808446101200500280032BD80B53C
:100620005FF0FF3005F03DF8002002BD10B500245A
:10063000DFF87017086805F049FE04F07DFC00281B
:1006400005D17FF0620005F02CF8200002E00120C7
:100650000400200010BD10B50024DFF8481708681A
:1006600005F034FE04F08EFC002805D17FF0620016
:1006700005F017F8200002E001200400200010BD62
:1006800038B50025DFF81807DFF818178978052234
:1006900002FB01000400DFF80C078178200004F061
:1006A000A2FC002805D17FF0620004F0FAFF2800C8
:1006B00005E0DFF80808446101200500280032BD8C
:1006C00038B50025DFF8D806DFF8D8168978052276
:1006D00002FB01000400DFF8CC068178200004F062
:1006E00028FD002805D17FF0620004F0DAFF280021
:1006F00005E0DFF8C807446101200500280032BD8D
:10070000F8B50027DFF89806DFF8981689780522F3
:1007100002FB01000400DFF8040C0500DFF884068A
:10072000008806002078A1280AD0A22810D0B1287D
:1007300006D0B2280CD0B32802D0B42808D00FE0DD
:10074000A1202870D4F801003018C5F801000DE090
:10075000A2202870D4F801003018C5F8010005E087
:100760007FF0620004F09DFF380002E001200700E6
:100770003800F2BD38B50025DFF8A00B0400A32037
:100780002070DFF82016086805F0A0FDC4F801000D
:1007900001200500280032BD38B50025DFF87C0BAC
:1007A0000400A3202070DFF8FC15086805F08EFD1A
:1007B000C4F8010001200500280032BD38B500252D
:1007C000DFF80C0C0400A3202070DFF8D8150868AF
:1007D00005F07CFDC4F8010001200500280032BDB1
:1007E000F8B50027DFF8B805DFF8B81589780522D5
:1007F00002FB01000400DFF8A805DFF8A81509785E
:10080000052202FB01000500280005F0B6F90600EC
:100810002078A1280CD0A22812D0A32818D0B12863
:1008200006D0B2280CD0B32802D0B42808D015E0E6
:10083000A1202070D4F801003018C4F8010013E0A2
:10084000A2202070D4F801003018C4F801000BE099
:10085000D4F801003018C4F8010005E07FF0620010
:1008600004F01FFF380005E0DFF850064461012066
:1008700007003800F2BDF8B50027DFF82405DFF8DF
:1008800024158978052202FB01000400DFF8100519
:10089000DFF810150978052202FB01000500DFF8DA
:1008A0000405407806002878A1280CD0A22812D090
:1008B000A32818D0B12806D0B2280CD0B32802D073
:1008C000B42808D015E0A1202070D5F80100301818
:1008D000C4F8010013E0A2202070D5F80100301800
:1008E000C4F801000BE0D4F801003018C4F801008E
:1008F00005E07FF0620004F0D4FE380005E0DFF888
:10090000BC054461012007003800F2BD70B5002627
:10091000DFF88C04DFF88C148978052202FB0100D3
:100920000400DFF88004008805002078A1280CD09E
:10093000A22812D0A32818D0B12806D0B2280CD0F3
:10094000B32802D0B42808D015E0A1202070D4F834
:1009500001002818C4F8010013E0A2202070D4F888
:1009600001002818C4F801000BE0D4F80100281891
:10097000C4F8010005E07FF0620004F092FE300050
:1009800005E0DFF83805446101200600300070BD45
:1009900070B582B00026DFF80804DFF80814097883
:1009A000052202FB01000400DFF8F403DFF8F41372
:1009B0008978052202FB010005002078B12805D0C6
:1009C0007FF0620004F06DFE30001AE000226946FC
:1009D000200003F0ECFC002805D17FF0620004F059
:1009E00060FE30000DE0A1202870D4F801000099CD
:1009F000B1F8031010FA81F0C5F8010001200600DB
:100A0000300076BDF8B50027DFF89403DFF89413C3
:100A10000978052202FB01000400DFF88403DFF8F7
:100A200084138978052202FB01000500200005F0EF
:100A3000A4F8060032006946280003F0B8FC00283C
:100A400005D17FF0620004F02CFE38000AE0009827
:100A5000007828700099D1F80100C5F80100012044
:100A600007003800F2BD70B582B00026CC48CD49F1
:100A70008978052202FB01000500C948C9490978A7
:100A8000052202FB01000400C648427869462000A6
:100A900003F08DFC002805D17FF0620004F001FE18
:100AA00030000AE00098007828700099D1F8010021
:100AB000C5F8010001200600300076BD38B50025DC
:100AC000B748B8498978052202FB01000400B548FF
:100AD00002886946200003F06AFC002805D17FF0F7
:100AE000620004F0DEFD28000AE000980078207023
:100AF0000099D1F80100C4F8010001200500280088
:100B000032BD70B582B00026A548A6498978052275
:100B100002FB01000400A248A2490978052202FB59
:100B20000100050000226946280003F040FC00286F
:100B300005D17FF0620004F0B4FD30000AE00098B7
:100B4000007820700099D1F80100C4F8010001205C
:100B50000600300076BD70B582B0002690489149FD
:100B60000978052202FB010004008D488D4989782F
:100B7000052202FB0100050000226946280003F05F
:100B800016FC002805D17FF0620004F08AFD3000D9
:100B900008E08448037822000099280003F0DAFF77
:100BA0000600300076BD70B582B000267C487D49D5
:100BB0000978052202FB0100040079487949897807
:100BC000052202FB0100050000226946280003F00F
:100BD000EEFB002805D17FF0620004F062FD3000DA
:100BE0000FE000980078002808D16E4803782200B2
:100BF0000099280003F0AEFF060001E00120060086
:100C0000300076BD70B582B000266548DFF8381D2B
:100C10000978052202FB010004006148DFF8281D65
:100C20008978052202FB01000500002269462800A0
:100C300003F0BDFB002805D17FF0620004F031FD18
:100C400030001DE02078A1280AD15E2000990870AC
:100C5000D4F801000099C1F80100012006000EE05F
:100C6000200005F008FB002809D0207800990870C2
:100C7000D4F801000099C1F80100012006003000FD
:100C800076BD70B582B000264548DFF8BC1C0978F7
:100C9000052202FB010004004148DFF8AC1C897802
:100CA000052202FB01000500DFF89C0C4278694632
:100CB000200003F07CFB002805D17FF0620004F0E7
:100CC000F0FC30000AE00098007828700099D1F814
:100CD0000100C5F8010001200600300076BD70B5A6
:100CE00082B000262E48DFF8601C0978052202FB3E
:100CF000010004002A48DFF8501C8978052202FB15
:100D000001000500DFF8400C42786946280003F036
:100D10004EFB002805D17FF0620004F0C2FC3000D9
:100D200009E0DFF8240C037822000099280003F082
:100D300011FF0600300076BD70B582B0002618485D
:100D4000DFF8041C0978052202FB010004001448A6
:100D5000DFF8F41B8978052202FB01000500DFF8AB
:100D6000E80B42786946280003F021FB002805D1F2
:100D70007FF0620004F095FC300010E000980078ED
:100D8000002809D1DFF8C00B037822000099280061
:100D900003F0E0FE060001E001200600300076BD11
:100DA000A06100200895002070B582B00026DFF811
:100DB0009C0BDFF8941B0978052202FB010004005C
:100DC000DFF8880BDFF8801B8978052202FB010021
:100DD0000500DFF8740B42786946280003F0E7FA53
:100DE000002805D17FF0620004F05BFC30001FE0BA
:100DF000200005F04BFA00280AD05E200099087008
:100E0000D4F801000099C1F80100012006000EE0AD
:100E1000200005F030FA002809D0207800990870E9
:100E2000D4F801000099C1F801000120060030004B
:100E300076BD2DE9F8435FF00009DFF8100BDFF80D
:100E4000081B0978052202FB01000400DFF8FC0AF8
:100E5000DFF8F41A8978052202FB01000500200062
:100E600004F08BFE0600B0B20700DFF85C0C310C1A
:100E7000C163DFF8540C05640120DFF84C1C81F8D5
:100E80003A00DFF8C40A8078DFF83C1C81F83B00A8
:100E9000380080B205F058FB80464046002803D059
:100EA000C0470120814605E07FF0280004F0F9FBEF
:100EB000002081464846BDE8F283000024910020CE
:100EC0002DE9F8435FF00009DFF8800ADFF8781AAF
:100ED0000978052202FB01000400DFF8700ADFF840
:100EE000681A8978052202FB01000500280004F039
:100EF00044FE0600B0B20700DFF8CC0B310CC16332
:100F0000DFF8C40B04640120DFF8BC1B81F83A0051
:100F1000DFF8340A0078DFF8B01B81F83B003800B6
:100F200080B205F011FB80464046002803D0C04740
:100F30000120814605E07FF0280004F0B2FB00208C
:100F400081464846BDE8F283F8B5DFF8000ADFF8CD
:100F5000F8190978052202FB01000400DFF8EC090A
:100F6000DFF8E4198978052202FB01000500200062
:100F700004F003FE0600DFF8500B310CC163DFF80C
:100F8000480B05640120DFF8401B81F83A00DFF8C8
:100F9000B8098078DFF8301B81F83B00DFF8A41C2B
:100FA0000868002806D0DFF89C1C08680700B847CE
:100FB000012000E00020F2BDF8B5DFF89009DFF86D
:100FC00088190978052202FB01000400DFF87C097A
:100FD000DFF874198978052202FB0100050028005A
:100FE00004F0CBFD0600DFF8E00A310CC163DFF846
:100FF000D80A04640120DFF8D01A81F83A00DFF83B
:1010000048090078DFF8C01A81F83B00DFF8341C8B
:101010004868002806D0DFF82C1C48680700B8474D
:10102000012000E00020F2BDF8B5DFF82009DFF86C
:1010300018190978052202FB01000400DFF80C09E9
:10104000DFF804198978052202FB01000500200061
:1010500004F093FD0600DFF8700A310CC163DFF87D
:10106000680A05640120DFF8601A81F83A00DFF8A9
:10107000D8088078DFF8501A81F83B00DFF8C41BED
:101080008868002806D0DFF8BC1B88680700B847CE
:10109000012000E00020F2BDFA610020F8B5DFF881
:1010A000AC08DFF8A4180978052202FB010004004F
:1010B000DFF89808DFF890188978052202FB010014
:1010C0000500280004F059FD0600DFF8FC09310C8A
:1010D000C163DFF8F40904640120DFF8EC1981F83A
:1010E0003A00DFF864080078DFF8DC1981F83B008B
:1010F000DFF8501BC868002806D0DFF8481BC86816
:101100000700B847012000E00020F2BD7CB50026B2
:10111000DFF83808DFF830180978052202FB0100F3
:101120000400DFF82808DFF820188978052202FB80
:10113000010005002078A32805D07FF0170004F0F7
:10114000B0FA300014E0D4F801200120009004230C
:1011500001A9002004F0BAFA0600002E07D02020D2
:1011600028700198C5F80100DFF85C09456130007E
:1011700076BDF8B50027DFF8D407DFF8CC1709787B
:10118000052202FB01000400DFF8C007DFF8B817F2
:101190008978052202FB010005002078A32805D0EC
:1011A0007FF0170004F07DFA38001EE0DFF89C079E
:1011B000DFF89417897840F2011202FB01008230B7
:1011C0000600D4F801006A46B11C04F045FABDF8E7
:1011D000000070705F202870DFF86C078078401C7A
:1011E000C5F80100012007003800F2BD80B55FF0AE
:1011F000FF3004F056FA002002BD70B50026DFF87B
:101200004C07DFF844170978052202FB01000400AF
:10121000DFF83807DFF830178978052202FB010074
:101220000500280004F0A9FCDFF89C1881F83300C1
:10123000200004F0A2FCDFF890188886A320287014
:101240000020C5F80100DFF8800845610120060094
:10125000300070BDF8B50027DFF8F006DFF8E816BB
:101260000978052202FB01000400DFF8E006DFF840
:10127000D8168978052202FB010005002078A328F2
:1012800005D07FF0170004F00CFA380045E0DFF8D5
:10129000380890F833005F2824D1DFF8B006DFF873
:1012A000A816897840F2011202FB01008230060084
:1012B000D4F8012000200090DFF80C08838EB11CC8
:1012C000012004F003FADFF80008808E70705F20C0
:1012D0002870DFF874068078401CC5F801000120F2
:1012E000070016E0DFF8E007808E052811DADFF846
:1012F000D80790F833002870D4F80120002000901F
:10130000DFF8C407838E691C012004F0DFF9012097
:101310000700DFF8B40745613800F2BD1362002012
:10132000F8B50027DFF82406DFF81C160978052237
:1013300002FB01000400DFF81406DFF80C168978C0
:10134000052202FB010005002878A32805D07FF0C4
:10135000170004F0A6F9380038E0DFF86C0790F8C1
:1013600033005F281CD1DFF8E405DFF8DC150978CD
:1013700040F2011202FB010082300600D5F8012084
:1013800000200090DFF84007838EB11C012004F09C
:101390009DF9DFF83407808E70700120070011E09E
:1013A000DFF82407808E05280CDAD5F8012000200C
:1013B0000090DFF81407838E611C012004F086F989
:1013C00001200700DFF8000745613800F2BD00008A
:1013D0000E6200207CB50026DFF87005DFF8681586
:1013E0000978052202FB01000400DFF86005DFF840
:1013F00058158978052202FB010005002078A328F2
:1014000005D07FF0170004F04CF9300014E0D4F858
:10141000012001200090042301A9002004F056F9C6
:101420000600002E07D0302028700198C5F8010072
:10143000DFF894064561300076BD80B55FF0FF307F
:1014400004F02FF9002002BD10B40020DFF8FC24C6
:10145000DFF8F4349B78052404FB032211001022EA
:101460000A70DFF8E4241288C1F80120DFF858265A
:1014700051610122100010BC704710B40020DFF849
:10148000CC24DFF8C4349B78052404FB032211002C
:1014900010220A70DFF8B0241288C1F80120DFF8AA
:1014A000282651610122100010BC704710B40020A2
:1014B000DFF89824DFF890349B78052404FB03229E
:1014C000110020220A70DFF880241288A1F8012080
:1014D0000022A1F80320DFF8F0255161012210005D
:1014E00010BC704710B40020DFF86024DFF85834D7
:1014F0009B78052404FB0322110020220A70DFF8E8
:1015000048241288A1F80320DFF8BC25516101228C
:10151000100010BC704710B40020DFF83024DFF852
:1015200028349B78052404FB0322110030220A7022
:10153000DFF814241288A1F801200022A1F803206A
:10154000DFF8842551610122100010BC704710B4EF
:101550000020DFF8F823DFF8F0339B78052404FB44
:101560000322110030220A70DFF8DC231288A1F870
:101570000320D1F80120002A01D0012200E000223E
:10158000DFF8442551610122100010BC704710B4EF
:101590000020DFF8B823DFF8B0339B78052404FB84
:1015A0000322110021220A70DFF89C231288A1F87F
:1015B00001200022A1F80320DFF80C25516101224F
:1015C000100010BC704710B40020DFF88023DFF853
:1015D00078339B78052404FB0322110021220A7032
:1015E000DFF864231288A1F80320DFF8DC245161BE
:1015F0000122100010BC704780B55FF0FF3004F08E
:1016000050F8002002BD10B40020D04ACE4B9B7889
:10161000052404FB0322110041220A70CA4A1288E1
:10162000A1F801200022A1F80320DFF89C245161D9
:101630000122100010BC704710B40020C34AC24BF6
:101640009B78052404FB0322110041220A70BE4A44
:101650001288A1F80320DFF87024516101221000E4
:1016600010BC704780B55FF0FF3004F01AF800201E
:1016700002BD10B40020B54AB34B9B78052404FB8F
:101680000322110042220A70AF4A1288A1F80120F9
:101690000022A1F80320DFF830245161012210005C
:1016A00010BC704710B40020A84AA74B9B780524B3
:1016B00004FB0322110042220A70A34A1288A1F8F7
:1016C0000320DFF8042451610122100010BC704790
:1016D00080B55FF0FF3003F0E4FF002002BD10B5DD
:1016E00000245FF0FF3003F0DCFF00200400200046
:1016F00010BD10B40020954A934B9B78052404FB41
:1017000003221100904A1278CA708F4A52780A71E7
:1017100051220A7002224A7000228A708A4A127884
:10172000002A02D08A78521C8A70874A5278002A8E
:1017300002D08A78521C8A70DFF88C235161012212
:10174000100010BC70472DE9F04182B05FF0000836
:101750007E487D490978052202FB010004007B4890
:1017600079498978052202FB01000500280004F070
:1017700062FD002814D175487349897840F201123E
:1017800002FB0100823007003A000121280004F02A
:10179000A9FB5F2028706C488078401CC5F80100C8
:1017A000200004F048FD00280BD00120009066487E
:1017B0000378220064488178280002F01AFF8046EE
:1017C00015E062486049097840F2011202FB01000D
:1017D0008230060032000121200004F083FB012347
:1017E000320059488178280003F083F8804640464B
:1017F000BDE8F68170B582B0002654485249097898
:10180000052202FB0100040050484F498978052257
:1018100002FB01000500200004F00DFD00280BD0A4
:10182000002000904848037822004748817828002B
:1018300002F0DFFE060007E020782870D4F80100EF
:10184000C5F80100012006009F484561300076BDC3
:1018500038B500253D483C498978052202FB010046
:101860000400200004F007FD002802D00020A07032
:101870001AE020785F2802D10020207014E0207840
:101880005D2802D020785E280CD16946200003F044
:101890000CFB0500002D01D128000AE00020009972
:1018A000487001E000202070874844610120050055
:1018B000280032BD30B583B00025244822498978FC
:1018C000052202FB010004001F48427869462000FF
:1018D00002F06DFD002805D17FF0620003F0E1FE0B
:1018E00028002FE0009804F0C6FC002803D0002058
:1018F0000099887021E0009800785F2805D17FF07A
:10190000140003F0CEFE28001CE0009800785D284B
:1019100003D0009800785E280CD101A9009803F04C
:10192000C4FA0500002D01D128000BE00020019928
:10193000487002E00020009908706348446101206B
:10194000050028003EBD000008950020A061002091
:1019500038B50025DFF8240CDFF8241C897805222F
:1019600002FB01000400207810280ED0202810D09F
:10197000302818D050283ED051283CD05D2826D0A1
:101980005E2824D05F2836D03CE00120C4F8010056
:1019900038E0D4F80100002804D5D4F80100404212
:1019A000C4F801002EE0D4F8010000EE100AB5EEF4
:1019B000400AF1EE10FA09D5D4F8010000EE100A41
:1019C000B1EE400A10EE100AC4F801001AE000223D
:1019D0006946200002F0EBFC002805D17FF0620090
:1019E00003F05FFE280012E0009ADFF8940B817884
:1019F000200003F04CF90122DFF8840B81782000ED
:101A000003F0F9F93048446101200500280032BD97
:101A100038B50025DFF8640BDFF8641B89780522F0
:101A200002FB010004002078102810D0202812D0DA
:101A3000212816D030281AD0502837D0512835D038
:101A40005D281FD05E281DD05F282FD035E00020F4
:101A5000C4F8010031E0D4F801004042C4F80100AC
:101A60002BE0D4F801004042C4F8010025E0D4F88E
:101A7000010000EE100AB1EE400A10EE100AC4F8A0
:101A800001001AE000226946200002F090FC0028C4
:101A900005D17FF0620003F004FE280012E0009AF6
:101AA000DFF8DC0A8178200003F0F1F80222DFF889
:101AB000D00A8178200003F09EF903484461012098
:101AC0000500280032BD00002491002038B5002513
:101AD000DFF8A80ADFF8A81A8978052202FB0100BE
:101AE0000400200004F0A7FB002805D07FF01400BC
:101AF00003F0D7FD280043E02078203810D0401EA6
:101B000014D00F3818D0113823D0401E27D05F389A
:101B100002282AD9001F28D00C38032825D929E00B
:101B2000D4F80100401CC4F8010023E0D4F80100FF
:101B3000401CC4F801001DE0D4F8010000EE100ABA
:101B4000F7EE000A30EE200A10EE100AC4F8010089
:101B500010E0D4F80100401CC4F801000AE0D4F8F9
:101B60000100401CC4F8010004E0D4F80100401C4E
:101B7000C4F80100DFF8000D4461012005002800D1
:101B800032BD38B50025DFF8F409DFF8F41989789B
:101B9000052202FB01000400200004F04CFB002899
:101BA00005D07FF0140003F07CFD280049E0207888
:101BB00020380ED0401E12D00F3816D0103821D049
:101BC0006138022832D9001F30D00C3803282DD9B3
:101BD00031E0D4F80100401EC4F801002BE0D4F835
:101BE0000100401EC4F8010025E0D4F8010000EE19
:101BF000100AFFEE000A30EE200A10EE100AC4F8B8
:101C0000010018E0207840280FD00ED3422806D0DB
:101C10000BD2D4F80100401EC4F8010005E0D4F84E
:101C20000100401EC4F80100FFE704E0D4F8010001
:101C3000401EC4F80100DFF8400C4461012005009B
:101C4000280032BD2494002070B50026DFF82C094E
:101C5000DFF82C190978052202FB01000500DFF8E6
:101C60001C09DFF81C198978052202FB0100040019
:101C7000200004F0E0FA002804D1280004F0DBFA88
:101C8000002805D07FF0140003F00BFD30009CE02D
:101C90002078203811D0401E3AD00F3867D0113844
:101CA00073D0401E7AD05F38022840F28080001F37
:101CB0007DD00C3803287AD981E028782038012893
:101CC00002D9103808D01AE0D4F80100D5F8011074
:101CD0000818C4F801001AE030202070D4F8010080
:101CE00000EE100AD5F8010000EE900AB8EEC00A26
:101CF00030EE200A10EE100AC4F8010007E02800B8
:101D000003F0EDFED4F801104018C4F8010056E0CD
:101D100028782038012802D910380AD01CE0202069
:101D20002070D4F80100D5F801100818C4F801009B
:101D30001CE030202070D4F8010000EE100AD5F825
:101D4000010000EE900AB8EE400A30EE200A10EED4
:101D5000100AC4F8010009E020202070280003F0D8
:101D6000BEFED4F801104018C4F8010027E0280096
:101D700003F052FFD4F8010000EE900A30EE800A22
:101D800010EE100AC4F8010019E0280003F0B8FFB3
:101D9000D4F801104018C4F8010010E0280003F046
:101DA000FDFFD4F801104018C4F8010007E0280036
:101DB00003F0E3FED4F801104018C4F80100DFF886
:101DC000B80A446101200600300070BD70B50026DD
:101DD000DFF8A807DFF8A8170978052202FB010041
:101DE0000500DFF89807DFF898178978052202FBCD
:101DF00001000400200004F01EFA002804D128008D
:101E000004F019FA002805D07FF0140003F049FC13
:101E100030009CE02078203811D0401E3AD00F3896
:101E200067D0113873D0401E7AD05F38022840F254
:101E30008080001F7DD00C3803287AD981E0287873
:101E40002038012802D9103808D01AE0D4F801004F
:101E5000D5F80110401AC4F801001AE030202070B3
:101E6000D4F8010000EE100AD5F8010000EE900A47
:101E7000B8EEC00A30EE600A10EE100AC4F8010095
:101E800007E0280003F02BFED4F80110081AC4F86C
:101E9000010056E028782038012802D910380AD0ED
:101EA0001CE020202070D4F80100D5F80110401A61
:101EB000C4F801001CE030202070D4F8010000EECE
:101EC000100AD5F8010000EE900AB8EE400A30EE94
:101ED000600A10EE100AC4F8010009E0202020700A
:101EE000280003F0FCFDD4F80110081AC4F8010022
:101EF00027E0280003F090FED4F8010000EE900ADD
:101F000030EEC00A10EE100AC4F8010019E02800F3
:101F100003F0F6FED4F80110081AC4F8010010E02E
:101F2000280003F03BFFD4F80110081AC4F80100A0
:101F300007E0280003F021FED4F80110081AC4F8C5
:101F40000100DFF83409446101200600300070BD53
:101F500070B50026DFF82406DFF82416097805227C
:101F600002FB01000500DFF81406DFF8141689787B
:101F7000052202FB01000400200004F05CF90028A7
:101F800004D1280004F057F9002805D07FF0140090
:101F900003F087FB3000A4E02078203814D0401EE6
:101FA0003ED00F386CD0113878D0401E00F08080C1
:101FB0005F38022840F28680001F00F083800C38D2
:101FC000032840F27F8086E028782038012802D953
:101FD000103808D01AE0D4F80100D5F801104843B1
:101FE000C4F801001BE030202070D4F8010000EE9E
:101FF000100AD5F8010000EE900AB8EEC00A20EEF3
:10200000200A10EE100AC4F8010008E0280003F0CE
:1020100066FDD4F8011000FB01F0C4F801005AE09D
:1020200028782038012802D910380AD01CE0202056
:102030002070D4F80100D5F801104843C4F801001D
:102040001DE030202070D4F8010000EE100AD5F811
:10205000010000EE900AB8EE400A20EE200A10EED1
:10206000100AC4F801000AE020202070280003F0C4
:1020700036FDD4F8011000FB01F0C4F801002AE09D
:10208000280003F0C9FDD4F8010000EE900A20EE0C
:10209000800A10EE100AC4F801001CE0280003F0CA
:1020A0002FFED4F8011000FB01F0C4F8010012E08B
:1020B000280003F073FED4F8011000FB01F0C4F80F
:1020C000010008E0280003F058FDD4F8011000FBDF
:1020D00001F0C4F80100DFF8A00744610120060008
:1020E000300070BD70B52DED028B0026DFF88C043A
:1020F000DFF88C140978052202FB01000500DFF8E7
:102100007C04DFF87C148978052202FB01000400BE
:10211000200004F090F8002804D1280004F08BF887
:10212000002805D07FF0140003F0BBFA3000BEE0B9
:1021300020782038012810D910384FD011380128C4
:1021400065D96038022840F2A380001F00F0A0800B
:102150000C38032840F29C80A3E0280003F05CFDCB
:10216000B0EE408AB5EE408AF1EE10FA04D02000BD
:1021700003F052FD80EE088AB0EE480A04F0EEFA51
:10218000F0EE408AF5EE408AF1EE10FA1FD1287881
:102190002038012802D9103809D00FE02020207003
:1021A000B0EE480A04F0C6FAC4F8010015E0302089
:1021B000207018EE100AC4F801000EE020202070F4
:1021C000B0EE480A04F0B6FAC4F8010005E0302089
:1021D000207018EE100AC4F8010062E0280003F035
:1021E0001BFDB0EE408AB5EE408AF1EE10FA0AD03F
:1021F000D4F8010000EE100A80EE080A10EE100A72
:10220000C4F8010002E00020C4F8010049E0280001
:1022100003F002FDB0EE408AB5EE408AF1EE10FA0E
:1022200004D0200003F0F8FC80EE088AB0EE480AE3
:1022300004F094FAF0EE408AF5EE408AF1EE10FADE
:102240001FD128782038012802D9103809D00FE092
:1022500020202070B0EE480A04F06CFAC4F80100A7
:1022600015E03020207018EE100AC4F801000EE0CE
:1022700020202070B0EE480A04F05CFAC4F8010097
:1022800005E03020207018EE100AC4F8010008E0C4
:10229000280003F072FCD4F80110B1FBF0F0C4F890
:1022A0000100DFF8D4054461012006003000BDECD8
:1022B000028B70BDF8B50027B048B14909780522F6
:1022C00002FB01000500AD48AD498978052202FBFB
:1022D00001000400200003F0AEFF002804D1280014
:1022E00003F0A9FF002805D07FF0140003F0D9F90E
:1022F0003800A9E020782038012810D9103847D0BC
:102300001138012854D96038022840F28C80001F0F
:1023100000F089800C38032840F285808EE0287810
:102320002038012802D9103813D025E0D5F8010053
:1023300000280AD0D4F80100D5F8011090FBF1F282
:1023400001FB1200C4F8010002E00020C4F8010003
:102350001DE030202070D5F8010000EE900AD4F87E
:10236000010000EE100AB8EEC00A04F01FFA10EEE9
:10237000100AC4F801000AE0280003F0B0FBD4F80A
:10238000011091FBF0F200FB1210C4F8010055E0BF
:10239000280003F041FCF0EE400AD4F8010000EE02
:1023A000100A04F003FA10EE100AC4F8010045E028
:1023B000200003F094FB060028782038012802D979
:1023C000103813D023E020202070D5F80100002819
:1023D00008D0D5F8010096FBF0F100FB1160C4F8BD
:1023E000010002E00020C4F801001BE03020207052
:1023F000D5F8010000EE900A00EE106AB8EEC00AAF
:1024000004F0D4F910EE100AC4F801000AE020200C
:102410002070280003F063FB96FBF0F100FB1160D5
:10242000C4F801000AE0280003F0A7FBD4F801106B
:10243000B1FBF0F200FB1210C4F80100DFF8380421
:102440004461012007003800F2BDF8B500274B4871
:102450004B490978052202FB01000500474848491D
:102460008978052202FB01000400200003F0E3FE4E
:10247000002804D1280003F0DEFE002805D07FF0FC
:10248000140003F00EF9380076E0207820380FD0E1
:10249000401E27D00F382FD01138012850D960386E
:1024A00002285BD9001F59D00C38032856D95EE0AA
:1024B000D4F8010000280BD5280003F05EFBD4F807
:1024C0000110494211FA00F04042C4F8010008E04E
:1024D000280003F052FBD4F8011011FA00F0C4F800
:1024E000010044E0280003F048FBD4F8011011FA81
:1024F00000F0C4F801003AE020202070D4F8010078
:1025000000EE100A04F016F9C4F80100D4F8010036
:1025100000280BD5280003F030FBD4F80110494205
:1025200011FA00F04042C4F8010008E0280003F06E
:1025300024FBD4F8011011FA00F0C4F8010016E0F1
:10254000200003F01AFB060021202070280003F071
:1025500014FB16FA00F0C4F8010008E0280003F0AC
:102560000CFBD4F8011011FA00F0C4F80100C248C5
:102570004461012007003800F2BD0000A061002086
:1025800008950020F8B50027DFF8480CDFF8481C54
:102590000978052202FB01000500DFF8380CDFF89E
:1025A000381C8978052202FB01000400200003F09A
:1025B00042FE002804D1280003F03DFE002805D08B
:1025C0007FF0140003F06DF8380070E020782038B8
:1025D0000FD0401E25D00F382CD0113801284BD9F0
:1025E0006038022856D9001F54D00C38032851D91E
:1025F00058E0D4F8010000280AD5280003F0BDFAFD
:10260000D4F80110494201414842C4F8010007E0F2
:10261000280003F0B2FAD4F801100141C4F8011007
:1026200040E0280003F0A9FAD4F80110C140C4F832
:10263000011037E020202070D4F8010000EE100ACD
:1026400004F078F8C4F80100D4F8010000280AD595
:10265000280003F092FAD4F801104942014148429F
:10266000C4F8010007E0280003F087FAD4F801104D
:102670000141C4F8011015E0200003F07EFA0600C5
:1026800021202070280003F078FA3100C140C4F8FE
:10269000011007E0280003F070FAD4F80110C140DF
:1026A000C4F8011074484461012007003800F2BDED
:1026B000F8B50027DFF81C0BDFF81C1B0978052292
:1026C00002FB01000500DFF80C0BDFF80C1B89781A
:1026D000052202FB01000400200003F0ACFD0028ED
:1026E00004D1280003F0A7FD002805D07FF01400D6
:1026F00002F0D7FF38004DE02078203801280DD9AE
:10270000103817D01138012828D96038022833D959
:10271000001F31D00C3803282ED936E0212020703C
:10272000280003F02AFAD4F8011011FA00F0C4F8D6
:1027300001002AE021202070D4F8010000EE100AE8
:1027400003F0F8FFC4F80100280003F016FAD4F8EB
:10275000011011FA00F0C4F8010016E0200003F0A7
:102760000CFA060021202070280003F006FA16FA61
:1027700000F0C4F8010008E0280003F0FEF9D4F8E6
:10278000011011FA00F0C4F801003B484461012037
:1027900007003800F2BDF8B50027DFF8380ADFF887
:1027A000381A0978052202FB01000500DFF8240A27
:1027B000DFF8241A8978052202FB010004002000BA
:1027C00003F039FD002804D1280003F034FD00286F
:1027D00005D07FF0140002F064FF38004AE0207852
:1027E000203801280DD9103816D01138012826D9E3
:1027F0006038022831D9001F2FD00C3803282CD97B
:1028000033E021202070280003F0B7F9D4F801103C
:10281000C140C4F8011028E021202070D4F8010044
:1028200000EE100A03F086FFC4F80100280003F050
:10283000A4F9D4F80110C140C4F8011015E020003B
:1028400003F09BF9060021202070280003F095F981
:102850003100C140C4F8011007E0280003F08DF9F1
:10286000D4F80110C140C4F80110034844610120AC
:1028700007003800F2BD00002491002070B582B03E
:102880000026DFF85009DFF850198978052202FB8D
:102890000100040020782038012815D910381BD0F9
:1028A0001138012828D90F38012849D90D380128B5
:1028B00032D9801E44D04238022827D9001F25D0A3
:1028C0000C38032822D943E021202070D4F80100DD
:1028D000C043C4F8010043E021202070D4F8010077
:1028E00000EE100A03F026FFC4F80100D4F801003E
:1028F000C043C4F8010033E0200003F03EF90500B6
:1029000021202070E843C4F8010029E0D4F8010038
:10291000C043C4F8010023E000226946200001F012
:1029200046FD002805D17FF0620002F0BAFE3000BB
:102930001CE0009ADFF8A0088178200002F0A7F9D7
:102940000322DFF894088178200002F054FA07E0AF
:10295000200003F012F9C043C4F8010020202070C9
:10296000DFF89C0C446101200600300076BD2DE9A3
:10297000F0410027DFF85C08DFF85C1809780522D1
:1029800002FB01000500DFF84C08DFF84C188978DD
:10299000052202FB01000400200003F04CFC00288B
:1029A00004D1280003F047FC002805D07FF0140074
:1029B00002F077FE380058E02078203801280DD941
:1029C000103816D01138012826D96038022830D99D
:1029D000001F2ED00C3803282BD933E02120207083
:1029E000280003F0CAF8D4F801100840C4F8010028
:1029F00035E021202070D4F8010000EE100A03F029
:102A000099FEC4F80100280003F0B7F8D4F80110CB
:102A10000840C4F8010022E0200003F0AEF80600F0
:102A200021202070280003F0A8F83040C4F80100ED
:102A300015E0280003F0A1F8D4F801100840C4F80C
:102A400001000CE020202070200003F096F8804662
:102A5000280003F092F810EA0800C4F80100DFF83B
:102A6000A00B4461012007003800BDE8F0812DE98A
:102A7000F0410027DFF85C07DFF85C1709780522D2
:102A800002FB01000500DFF84C07DFF84C178978DE
:102A9000052202FB01000400200003F0CCFB00280B
:102AA00004D1280003F0C7FB002805D07FF01400F4
:102AB00002F0F7FD380058E02078203801280DD9C1
:102AC000103816D01138012826D96038022830D99C
:102AD000001F2ED00C3803282BD933E02120207082
:102AE000280003F04AF8D4F801100843C4F80100A4
:102AF00035E021202070D4F8010000EE100A03F028
:102B000019FEC4F80100280003F037F8D4F80110CA
:102B10000843C4F8010022E0200003F02EF806006C
:102B200021202070280003F028F83043C4F8010069
:102B300015E0280003F021F8D4F801100843C4F888
:102B400001000CE020202070200003F016F88046E1
:102B5000280003F012F850EA0800C4F80100DFF87A
:102B6000A00A4461012007003800BDE8F0812DE98A
:102B7000F0410027DFF85C06DFF85C1609780522D3
:102B800002FB01000500DFF84C06DFF84C168978DF
:102B9000052202FB01000400200003F04CFB00288A
:102BA00004D1280003F047FB002805D07FF0140073
:102BB00002F077FD380058E02078203801280DD940
:102BC000103816D01138012826D96038022830D99B
:102BD000001F2ED00C3803282BD933E02120207081
:102BE000280002F0CAFFD4F801104840C4F80100E0
:102BF00035E021202070D4F8010000EE100A03F027
:102C000099FDC4F80100280002F0B7FFD4F80110C4
:102C10004840C4F8010022E0200002F0AEFF0600A8
:102C200021202070280002F0A8FF7040C4F80100A5
:102C300015E0280002F0A1FFD4F801104840C4F8C4
:102C400001000CE020202070200002F096FF80465A
:102C5000280002F092FF90EA0800C4F80100DFF8B3
:102C6000A0094461012007003800BDE8F08138B5B3
:102C70000025DFF86005DFF860158978052202FB82
:102C800001000400200002F0ACFE002803D0002068
:102C9000C4F8010002E00120C4F8010010202070F7
:102CA000DFF85C19C869D4F801104170DFF85009E9
:102CB000446101200500280032BD70B50026DFF810
:102CC0001405DFF814150978052202FB0100050040
:102CD000DFF80005DFF800158978052202FB010006
:102CE0000400200002F07DFE002808D0280002F039
:102CF00078FE002803D00120C4F8010002E0002083
:102D0000C4F8010010202070DFF8F418C869D4F866
:102D100001104170DFF8E80844610120060030002E
:102D200070BD70B50026DFF8AC04DFF8AC1409788C
:102D3000052202FB01000500DFF89804DFF8981473
:102D40008978052202FB01000400200002F049FE00
:102D5000002804D1280002F044FE002803D00120FE
:102D6000C4F8010002E00020C4F801001020207027
:102D7000DFF88C18C869D4F801104170DFF88008BA
:102D8000446101200600300070BDF8B50026DFF870
:102D90004404DFF844140978052202FB0100050011
:102DA000DFF83004DFF830148978052202FB0100D7
:102DB0000400200002F015FE0700280002F011FEBA
:102DC00090EA070F03D00120C4F8010002E00020C0
:102DD000C4F8010010202070DFF82418C869D4F866
:102DE00001104170DFF8180844610120060030002E
:102DF000F2BD2DE9F0410027DFF8D803DFF8D81342
:102E00000978052202FB01000500DFF8C803DFF89E
:102E1000C8138978052202FB01000400200003F09A
:102E20000AFA002801D0380089E02078103812D042
:102E300010381ED0401E28D00F3832D0113841D063
:102E4000401E4BD05F38022854D9001F52D00C3896
:102E500003284FD95AE0200002F0C3FD8046280025
:102E600002F0BFFD804501D1012600E00026F6B248
:102E70004EE0280002F033FED4F80110814201D167
:102E8000012600E00026F6B242E0280002F075FEBE
:102E9000D4F80110814201D1012600E00026F6B2EB
:102EA00036E0280002F0B8FED4F8010000EE900AE7
:102EB000F4EE400AF1EE10FA01D1012600E00026FE
:102EC000F6B225E0280002F01BFFD4F80110814281
:102ED00001D1012600E00026F6B219E0280002F038
:102EE0005DFFD4F80110814201D1012600E00026E7
:102EF000F6B20DE0280002F0A9FFD4F801108142DB
:102F000001D1012600E00026F6B201E00020060013
:102F100010202070002E03D00120C4F8010002E030
:102F20000020C4F80100DFF8D816C869D4F80110F1
:102F30004170DFF8CC064461012007003800BDE88D
:102F4000F0812DE9F0410027A248A3490978052224
:102F500002FB010005009F489F498978052202FB7A
:102F600001000400200003F066F9002801D03800B9
:102F700089E02078103812D010381ED0401E28D09A
:102F80000F3832D0113841D0401E4BD05F38022864
:102F900054D9001F52D00C3803284FD95AE02000D2
:102FA00002F01FFD8046280002F01BFD804501D085
:102FB000012600E00026F6B24EE0280002F08FFD68
:102FC000D4F80110814201D0012600E00026F6B2BB
:102FD00042E0280002F0D1FDD4F80110814201D076
:102FE000012600E00026F6B236E0280002F014FECA
:102FF000D4F8010000EE900AF4EE400AF1EE10FA67
:1030000001D0012600E00026F6B225E0280002F0FB
:1030100077FED4F80110814201D0012600E000269D
:10302000F6B219E0280002F0B9FED4F8011081428E
:1030300001D0012600E00026F6B20DE0280002F0E3
:1030400005FFD4F80110814201D0012600E00026DE
:10305000F6B201E00020060010202070002E03D000
:103060000120C4F8010002E00020C4F80100DFF8EC
:10307000601CC869D4F801104170DFF8540C446139
:10308000012007003800BDE8F0812DE9F04100275C
:10309000504851490978052202FB010005004D48BE
:1030A0004D498978052202FB01000400200003F04D
:1030B000C2F8002801D0380089E02078103812D0FA
:1030C00010381ED0401E28D00F3832D0113841D0D1
:1030D000401E4BD05F38022854D9001F52D00C3804
:1030E00003284FD95AE0200002F07BFC80462800DC
:1030F00002F077FC804501D2012600E00026F6B2FE
:103100004EE0280002F0EBFCD4F80110814201DA15
:10311000012600E00026F6B242E0280002F02DFD74
:10312000D4F80110814201D2012600E00026F6B257
:1031300036E0280002F070FDD4F8010000EE900A9D
:10314000F4EE400AF1EE10FA01D5012600E0002667
:10315000F6B225E0280002F0D3FDD4F80110814238
:1031600001D2012600E00026F6B219E0280002F0A4
:1031700015FED4F80110814201D2012600E000269C
:10318000F6B20DE0280002F061FED4F80110814291
:1031900001D2012600E00026F6B201E00020060080
:1031A00010202070002E03D00120C4F8010002E09E
:1031B0000020C4F80100DFF8181BC869D4F801101A
:1031C0004170DFF80C0B4461012007003800BDE8B6
:1031D000F0810000A0610020089500202DE9F04159
:1031E0000027DFF8F00ADFF8F01A0978052202FB61
:1031F00001000500DFF8DC0ADFF8DC1A8978052217
:1032000002FB01000400200003F015F8002801D0A3
:10321000380089E02078103812D010381ED0401EB7
:1032200028D00F3832D0113841D0401E4BD05F38F3
:10323000022854D9001F52D00C3803284FD95AE025
:10324000280002F0CEFB8046200002F0CAFB804539
:1032500001D3012600E00026F6B24EE0280002F07D
:103260003EFCD4F80110884201DB012600E0002674
:10327000F6B242E0280002F080FCD4F80110884247
:1032800001D3012600E00026F6B236E0280002F065
:10329000C3FCD4F8010000EE900AB4EE600AF1EE2F
:1032A00010FA01DB012600E00026F6B225E0280036
:1032B00002F026FDD4F80110884201D3012600E077
:1032C0000026F6B219E0280002F068FDD4F80110DB
:1032D000884201D3012600E00026F6B20DE0280066
:1032E00002F0B4FDD4F80110884201D3012600E0B9
:1032F0000026F6B201E00020060010202070002E0B
:1033000003D00120C4F8010002E00020C4F801004D
:10331000DFF8BC19C869D4F801104170DFF8B009B2
:103320004461012007003800BDE8F0812DE9F0413B
:103330000027DFF8A009DFF8A0190978052202FBB1
:1033400001000500DFF88C09DFF88C198978052267
:1033500002FB01000400200002F06DFF002801D0F4
:10336000380089E02078103812D010381ED0401E66
:1033700028D00F3832D0113841D0401E4BD05F38A2
:10338000022854D9001F52D00C3803284FD95AE0D4
:10339000280002F026FB8046200002F022FB804538
:1033A00001D2012600E00026F6B24EE0280002F02D
:1033B00096FBD4F80110884201DA012600E00026CD
:1033C000F6B242E0280002F0D8FBD4F8011088429F
:1033D00001D2012600E00026F6B236E0280002F015
:1033E0001BFCD4F8010000EE900AB4EE600AF1EE86
:1033F00010FA01D5012600E00026F6B225E02800EB
:1034000002F07EFCD4F80110884201D2012600E0CF
:103410000026F6B219E0280002F0C0FCD4F8011032
:10342000884201D2012600E00026F6B20DE0280015
:1034300002F00CFDD4F80110884201D2012600E010
:103440000026F6B201E00020060010202070002EB9
:1034500003D00120C4F8010002E00020C4F80100FC
:10346000DFF86C18C869D4F801104170DFF8600803
:103470004461012007003800BDE8F0812DE9F041EA
:103480000027DFF85008DFF850180978052202FB02
:1034900001000500DFF83C08DFF83C1889780522B8
:1034A00002FB01000400200002F0C5FE002801D04C
:1034B000380089E02078103812D010381ED0401E15
:1034C00028D00F3832D0113841D0401E4BD05F3851
:1034D000022854D9001F52D00C3803284FD95AE083
:1034E000200002F07EFA8046280002F07AFA804539
:1034F00001D3012600E00026F6B24EE0280002F0DB
:10350000EEFAD4F80110814201DB012600E000262A
:10351000F6B242E0280002F030FBD4F801108142FC
:1035200001D3012600E00026F6B236E0280002F0C2
:1035300073FBD4F8010000EE900AF4EE400AF1EEBD
:1035400010FA01DB012600E00026F6B225E0280093
:1035500002F0D6FBD4F80110814201D3012600E02D
:103560000026F6B219E0280002F018FCD4F8011089
:10357000814201D3012600E00026F6B20DE02800CA
:1035800002F064FCD4F80110814201D3012600E06E
:103590000026F6B201E00020060010202070002E68
:1035A00003D00120C4F8010002E00020C4F80100AB
:1035B000DFF81C17C869D4F801104170DFF8100754
:1035C0004461012007003800BDE8F08138B50025CE
:1035D000DFF80007DFF800178978052202FB0100F9
:1035E0000400200002F0FDF9DFF8E426D1694870FC
:1035F000DFF8DC06446101200500280032BD000030
:103600002491002080B55FF0FF3002F04AF80020DE
:1036100002BDF8B50027DFF8BC06DFF8BC168978D4
:10362000052202FB01000400DFF8A806DFF8A81657
:103630004978052202FB01000500DFF89806DFF853
:1036400098160978052202FB01000600200002F00E
:10365000F2FD002801D0380017E0200002F0C1F987
:10366000012806D128782070D5F80100C4F801009F
:1036700005E030782070D6F80100C4F80100DFF8CA
:1036800050064461012007003800F2BD30B400202C
:10369000DFF84036DFF84046A478052505FB043303
:1036A00019000B78002B01D1012200E00022D2B2D8
:1036B00010230B70002A03D00123C1F8013002E06F
:1036C0000023C1F80130DFF80846E369D1F8014072
:1036D0005C70DFF8FC3559610123180030BC70477D
:1036E00030B40020DFF8EC35DFF8EC45A478052590
:1036F00005FB043319000B78002B01D0012200E0F8
:103700000022D2B210230B70002A03D00123C1F88B
:10371000013002E00023C1F80130DFF8B445E3696D
:10372000D1F801405C70DFF8A83559610123180019
:1037300030BC704730B40020DFF89835DFF898458A
:10374000A478052505FB043319000B78002B01D163
:10375000012200E00022D2B210230B70002A03D015
:103760000123C1F8013002E00023C1F80130DFF885
:103770006045E369D1F801405C70DFF85435596168
:103780000123180030BC704780B55FF0FF3001F0B6
:1037900088FF002002BD0120704770B50026DFF8C9
:1037A0003405DFF834150978052202FB0100040016
:1037B000DFF82005DFF820158978052202FB0100DB
:1037C00005005FF0FF3001F06CFF300070BD80B588
:1037D0005FF0FF3001F065FF002002BDF8B5002763
:1037E000DFF8F004DFF8F0148978052202FB01000D
:1037F000040000226946200000F0D9FD002805D110
:103800007FF0620001F04DFF38004AE0DFF8CC04A1
:103810000500280003F00CF80022DFF8C41428008B
:1038200003F070F8D4F801002B000022082103F007
:1038300041F9280002F07AFD280002F0F9FF002289
:10384000DFF8A014280003F05DF82A00002100989A
:10385000007801F091FF280002F068FD280002F0D6
:10386000E7FF0022DFF88014280003F04BF80098EF
:1038700002F0E1FC002809D0009802F01CFD0600CF
:1038800000223100280003F0EAF804E02A000021B9
:10389000009802F0B8FB280002F048FD0120070064
:1038A0003800F2BD80B55FF0FF3001F0FAFE002075
:1038B00002BD80B55FF0FF3001F0F3FE002002BDD5
:1038C00080B55FF0FF3001F0ECFE002002BD80B556
:1038D0005FF0FF3001F0E5FE002002BD80B55FF033
:1038E000FF3001F0DEFE002002BD80B5DFF8E80306
:1038F0000088DFF8DC1381F82E00DFF8F013086889
:10390000002807D0DFF8E4030168DFF8C40390F86B
:103910002E008847012002BD0120704738B50025E0
:10392000DFF8AC138869002101F003FCDFF8A01375
:10393000C869002101F0FDFBDFF894138869D0F815
:1039400001100C00802C09D3DFF8A413886884428E
:1039500004D2200001F092FD01200500280032BDB4
:1039600038B50025DFF868138869002101F0E1FB14
:10397000DFF85C13C869002101F0DBFBDFF85013AE
:10398000D1F82F0004000020DFF8441381F82D0047
:10399000802C09D3DFF858138868844204D22000B1
:1039A00001F06CFD01200500280032BD38B5CA4980
:1039B000086802F08BFC0400802C03D3CC49886893
:1039C000A04205D27FF0020001F06BFE00201FE054
:1039D000BF49086803F0DFFA844216D2BC498869FF
:1039E000A321017001F046FDB94A9169C1F80100B7
:1039F000B749C869002101F0F6FAB5498869002184
:103A000001F0F1FA200001F039FD01200500280045
:103A100032BDF8B50027B049086802F057FC040031
:103A2000200080B202F090FD05002800002821D07F
:103A3000B048060000226946300000F03DFB002837
:103A400005D17FF0620001F02CFE380019E0A0489B
:103A50000099B1F80310C1630098401D00909C4884
:103A60000099016400209A4981F83A00A847012092
:103A7000070005E07FF0280001F013FE002007009A
:103A80003800F2BD70B50026924893498978052226
:103A900002FB010004002078802803D1D4F8010043
:103AA000002803D10120060030002FE0200002F0A2
:103AB00064F80500802D03D38D498868A84205D29B
:103AC0007FF0020001F0EDFD00201FE08049086852
:103AD00003F061FA854216D27D498869A3210170FD
:103AE00001F0C8FC7A4A9169C1F801007849C869B7
:103AF000002101F078FA76498869002101F073FA13
:103B0000280001F0BBFC01200600300070BD38B574
:103B10007149086802F0DAFB0400802C03D3744971
:103B20008868A04205D27FF0020001F0BAFD0020B3
:103B30000BE06749086803F02EFA844202D22000A5
:103B400001F09CFC01200500280032BD70B56148E1
:103B500061498978052202FB01000400200002F07F
:103B60000CF80500802D03D361498868A84205D26E
:103B70007FF0020001F095FD00200BE05449086839
:103B800003F009FA854202D2280001F077FC0120F7
:103B90000600300070BD38B54F49086802F096FB4A
:103BA0000400802C03D352498868A04205D27FF0DC
:103BB000020001F076FD002010E04549086803F09E
:103BC000EAF9844207D24249C8694078002802D005
:103BD000200001F053FC01200500280032BD70B523
:103BE0003C483D498978052202FB01000400200081
:103BF00001F0C3FF0500802D03D33D498868A8422A
:103C000005D27FF0020001F04CFD002010E03049A9
:103C1000086803F0C0F9854207D22D49C869407889
:103C2000002802D0280001F029FC01200600300005
:103C300070BD38B52849086802F048FB0400802CA4
:103C400003D32B498868A04205D27FF0020001F01F
:103C500028FD002010E01E49086803F09CF984420A
:103C600007D21B49C8694078002802D1200001F022
:103C700005FC01200500280032BD70B51548164925
:103C80008978052202FB01000400200001F075FF85
:103C90000500802D03D316498868A84205D27FF01D
:103CA000020001F0FEFC002010E00949086803F062
:103CB00072F9854207D20649C8694078002802D1C6
:103CC000280001F0DBFB01200600300070BD000081
:103CD00024910020A0610020089500203070002071
:103CE00044500108845101088C510108349400208B
:103CF000FC8F0020E661002080B501F0A8FC0120C7
:103D000002BDF0B4016844688368091801EB5402ED
:103D1000E40748BF4B440C3091422BD011F8014BC3
:103D200014F0030504BF11F8015BED1C26090F2EEA
:103D300007D111F8016B0F3603E011F8017B03F88E
:103D4000017B6D1EF9D1002EE6D0A40811F8015BAD
:103D500004F00304032C08BF11F8014B05EB042405
:103D60001C1BB51CD8D014F8016B03F8016B6D1E39
:103D7000F9D1D1E7F0BC704738B504002568DFF809
:103D80009C0605606068DFF8941648602069DFF8DB
:103D90008C16C862DFF884068560DFF88006C5608F
:103DA000DFF878060561DFF874064561DFF86C0618
:103DB0008561DFF86806C561DFF860060562DFF837
:103DC0005C0600680500DFF8540640684019451F8E
:103DD000DFF848064562012000F053F832BD30B4E8
:103DE00002000023DFF834060468521CB2F5806F2D
:103DF00002D94FF480600200B1F5806F02D94FF410
:103E000080600100DFF81406C46014EB820413EB39
:103E10008203DFF80806046114EB820413EB8203CB
:103E2000DFF8F805446114EBC10413EBC103DFF8BC
:103E3000EC058461DFF8E405C06A14EB4004DFF8A8
:103E4000DC05C06A13EB4003DFF8D005C461DFF87E
:103E5000CC054068C01A0525B0FBF5F0DFF8BC556D
:103E6000A862DFF8B8054068984207D2DFF8B005CD
:103E70007FF00105C0F8915F002000E0012030BC18
:103E800070472DE9F04104000020DFF890154863E9
:103E90000020DFF8881588630020DFF88015C863EC
:103EA0000020DFF8781508860020DFF870154886B6
:103EB000FF20DFF86C1581F8900E0020DFF8601508
:103EC00081F8910E82260027DFF854853A003100F0
:103ED000404603F0B1F8002005000E2D13DAFF2054
:103EE000DFF83C1540F2011202FB051181F8820057
:103EF0000020DFF82C1540F2011202FB051181F8B9
:103F000083006D1CE9E7FF20DFF8141581F8900E9F
:103F10000020DFF80C1581F8910E002C0CD0DFF892
:103F2000FC0446680027DFF8F404D0F800803A006B
:103F30003100404603F080F80120BDE8F081012007
:103F400070472DE9F04104000D00002C07D1DFF887
:103F5000D0047FF00A01C0F8911F002042E0DFF892
:103F6000BC04806B10FA85F0DFF8B014496B0818B8
:103F7000B0F5485F07DBDFF8A8047FF01F01C0F849
:103F8000911F00202EE0B1202070DFF89004806B9C
:103F900050F00040C4F80100DFF88004C06906005A
:103FA000DFF87804806B052101FB0066DFF86C0404
:103FB000806BADB2691C0818DFF860148863C020FC
:103FC0003070A6F80150A6F80350761DADB205205A
:103FD00000FB05F75FF0000842463900300003F0AF
:103FE0002BF80120BDE8F0812DE9F84304000D0015
:103FF00000226946200000F05FF8002801D100206F
:1040000026E0DFF81804806B10FA85F0DFF80C1456
:1040100088630098B0F8010006000098B0F801002D
:1040200028180099A1F801000098052101FB06005D
:10403000401D0090ADB2052000FB05F75FF00008C1
:10404000DDF8009042463900484602F0F5FF0120B5
:10405000BDE8F28310B582B004000022694620005A
:1040600000F02AF8002808D1002C04D0207800287D
:1040700001D101201FE000201DE0DFF8A003806BCC
:10408000002807D1DFF898037FF00B01C0F8911FDB
:10409000002010E0002020700020C4F80100DFF8AC
:1040A0007C03806B0099B1F80110401A401EDFF8C4
:1040B0006C138863012016BD70B40300002B16D169
:1040C00012F04040B0F1004F09D1DFF85003C06951
:1040D000050090008008052606FB005556E0DFF835
:1040E00040037FF00A06C0F8916F002050E0D3F83B
:1040F0000100800080080400D3F80100002802D0ED
:10410000B4F5485F07D3DFF818037FF01506C0F851
:10411000916F00203CE0DFF80403C0690500052032
:1041200000FB045518785E2822D0A12810D0B128B1
:1041300002D0B3280DD01CE02878C02807D0DFF8C3
:10414000E0027FF01606C0F8916F002020E018E032
:1041500017E0287870280AD02878602807D0DFF880
:10416000C0027FF01606C0F8916F002010E008E052
:1041700007E0DFF8AC027FF01406C0F8916F002072
:1041800006E0002A02D0052000FB02550D60012048
:1041900070BC70474000401C70474000801C704756
:1041A000401C022190FBF1F0401E7047020091423A
:1041B00001DA100000E0080070472DE9F04782B0F6
:1041C000040000226946200000F083F8002808D18E
:1041D000002C04D02078002801D1012077E00020B5
:1041E00075E020785D2809D02078B22806D08C4868
:1041F0007FF01401C0F8911F002068E0D4F801009E
:104200008008050001200600844880680088401965
:10421000401E070081488068BFB210EB470040880D
:1042200000280CD0B6B27600BFB2002F01D100201A
:104230004DE0BFB23800FFF7B3FF0700EAE7774869
:104240008068BFB210EB47004680BFB2002F38D065
:10425000BFB23800FFF7A4FF0700B6B27600BFB2C6
:104260003800FFF797FF6D49896811EB40004088DF
:104270008046BFB23800FFF790FF6849896811EBAC
:104280004000408881461FFA89F919FA88F0B6B2D1
:10429000B04206D161488068BFB210EB470046804B
:1042A000D3E75E488068BFB210EB470A1FFA89F96E
:1042B00049461FFA88F84046FFF778FFAAF802003F
:1042C000C3E7002020700020C4F801000120BDE8F1
:1042D000F68770B40300002B17D112F0404010F1A4
:1042E000804F0BD19000800804004C48006A050004
:1042F000052000FB04550D60012056E048487FF082
:104300000A06C0F8916F00204FE018785D280FD0A2
:104310001878B2280CD01878A22809D01878B428B8
:1043200006D03F487FF01406C0F8916F00203CE0B3
:10433000D3F80100002806D139487FF01506C0F8EF
:10434000916F002031E0D3F8010080008008040064
:104350003248006A0500052000FB04551878B22891
:1043600002D01878B4280CD12878602816D0287884
:10437000702813D02A487FF01606C0F8916F0020ED
:1043800013E018785D2809D12878612806D02448E0
:104390007FF01606C0F8916F002006E0002A02D0D8
:1043A000052000FB02550D60012070BC7047F8B578
:1043B00004000D0016000027002C06D118487FF0DD
:1043C0000A01C0F8911F002027E020785D2815D051
:1043D0005E280CD0A1280AD0A2280FD0B12806D080
:1043E000B2280BD0B32802D0B42807D00DE0320099
:1043F00029002000FFF760FE07000DE032002900D1
:104400002000FFF766FF070006E005487FF0140173
:10441000C0F8911F002000E03800F2BD2892002073
:10442000A061002070B582B00400002C01D10020F2
:1044300048E0002269462000FFF7B9FF002806D1B6
:10444000002020700020C4F8010001203AE000980C
:10445000B0F8030005000098401D00900020060001
:10446000ADB2AE422DD2009800785D2816D0B128AA
:1044700005D0B2280BD0B32801D0B42815D10098AC
:10448000FFF7D0FF002801D100201BE00DE00098CD
:10449000FFF7C8FF002801D1002013E00098FFF7C4
:1044A0008CFE002801D100200CE00020009908704B
:1044B00000980021C0F801100098401D0090761C63
:1044C000CEE7012076BD70B582B004000D00160065
:1044D0005E202070C4F80150002269462000FFF7DA
:1044E000EBFD002801D100200CE06120009908704C
:1044F00000200099A1F8010000200099087100989F
:10450000C670012076BD2DE9F04782B004000D0091
:104510001600002269462000FFF7CEFD002801D1D9
:10452000002064E00098B0F803008146F6B2032E44
:1045300017DA0098052101FB050000901FFA89F9A0
:10454000B9F1000F52D051200099087000984670C0
:104550000020009988700098401D0090B9F1010971
:10456000ECE7F6B2B01C0521B0FBF1F0401C0700EF
:104570000098052101FB05000090D4F8010010FA15
:1045800089F0401C8246002080461FFA88F81FFAF6
:1045900089F9C8450DD25E20009908700098C0F8CE
:1045A00001A01AFA87FA0098401D009018F101083E
:1045B000EBE7002080461FFA88F81FFA89F9C84502
:1045C00014D261200099087000200099A1F8010020
:1045D0000020009908710098C6700098BFB20521AC
:1045E00001FB0700009018F10108E4E70120BDE895
:1045F000F6872DE9F84F84B004000D001600002066
:104600008146002E08D09DF810000E2804DA002CF8
:1046100002D0EDB20E2D07DBDFF8040C7FF00A01AB
:10462000C0F8911F484661E1300001F024FE0028E7
:1046300011D00E98002804D0B0780700F01C01902B
:1046400077E030782070D6F80100C4F8010001202E
:10465000814648464AE130785F283ED1DFF8C00BFA
:104660009DF8101040F2011202FB0100823002900E
:104670000298407807000298801C01900E9800284C
:1046800057D1DFF89C0BEDB240F2011101FB0500A0
:10469000823000900098801C8346009840788046C5
:1046A000BFB217FA88F0FF2801DD48461EE1BFB20D
:1046B000DDF804A03A005146584602F0F5FC17EB2D
:1046C0000800009948705F202070EDB2681CC4F8A3
:1046D000010001208146484608E130785E2802D07A
:1046E00030785D281DD10E98002810D002A9300026
:1046F00000F0DBFB8146B9F1000F01D14846F5E03F
:104700000298407807000298801C019011E03078F0
:104710002070D6F80100C4F8010001208146484607
:10472000E4E0DFF8FC0A7FF01401C0F8911F48466E
:10473000DCE00E98002800F0D880BFB2002F03D133
:10474000012081464846D1E0200001F094FD002878
:1047500049D0A07880461FFA88F818FA87F0032815
:104760002DDBDFF8BC0AEDB240F2011101FB0500C0
:10477000823000900098801C83461FFA88F814F15C
:10478000030A42465146584602F08EFC1FFA88F84A
:1047900018EB0B0BBFB2019803903A0003995846EF
:1047A00002F082FC17EB0800009948705F2020702F
:1047B000EDB2681CC4F801000120814695E0E01CC0
:1047C00083461FFA88F818EB0B0BBFB2DDF804A084
:1047D0003A005146584602F067FC18EB0700A070FB
:1047E0000120814681E020785F2828D1DFF8300A57
:1047F000EDB240F2011101FB0500823000900098FB
:10480000801C8346009840788046BFB217FA88F033
:10481000FF2801DD484669E01FFA88F818EB0B0B0A
:10482000BFB2DDF804A03A005146584602F03CFC05
:1048300017EB0800009948700120814655E0207868
:104840005D2802D020785E2847D16946200000F01C
:104850002CFB8146B9F1000F01D1484646E0009893
:10486000801C8346009840788046BFB217FA88F0D3
:10487000FF2801DD484639E0DFF8A409EDB240F237
:10488000011101FB0500823000901FFA88F8CDF875
:104890000CB0009810F1020A42460399504602F00B
:1048A00003FC0098801C83461FFA88F818EB0B0B5A
:1048B000BFB2DDF804A03A005146584602F0F4FBBE
:1048C00017EB0800009948705F202070EDB2681C5B
:1048D000C4F801000120814607E0DFF844097FF0B9
:1048E0001401C0F8911F484600E0484605B0BDE8F5
:1048F000F08F2DE9F84F84B004000D001600002061
:104900008146002E04D0002C02D0EDB20E2D07DB24
:10491000DFF80C097FF00A01C0F8911F484616E144
:1049200070780700B01C0190BFB2002F03D10120A6
:10493000814648460BE10498002836D1BFB2022FC9
:1049400009DA51202070A77001980078E070019872
:104950004078207125E0DFF8C808EDB240F201117F
:1049600001FB0500823000900098801C834600986F
:10497000007880461FFA88F8BFB2B84501D2484691
:10498000E5E0BFB2DDF804A03A005146584602F017
:104990008BFB009847705F202070EDB2681CC4F854
:1049A0000100012081464846D1E0200001F063FC6F
:1049B000002849D0A07880461FFA88F818FA87F0B6
:1049C00003282DDBDFF85808EDB240F2011101FB9E
:1049D0000500823000900098801C83461FFA88F8FA
:1049E00014F1030A42465146584602F05DFB1FFA95
:1049F00088F818EB0B0BBFB2019802903A000299AD
:104A0000584602F051FB17EB0800009948705F20F0
:104A10002070EDB2681CC4F801000120814695E0C9
:104A2000E01C83461FFA88F818EB0B0BBFB2DDF8C9
:104A300004A03A005146584602F036FB18EB070036
:104A4000A0700120814681E020785F2828D1DFF81E
:104A5000D007EDB240F2011101FB05008230009059
:104A60000098801C8346009840788046BFB217FAB1
:104A700088F0FF2801DD484669E01FFA88F818EB46
:104A80000B0BBFB2DDF804A03A005146584602F0C5
:104A90000BFB17EB0800009948700120814655E098
:104AA00020785D2802D020785E2847D16946200012
:104AB00000F0FBF98146B9F1000F01D1484646E00C
:104AC0000098801C8346009840788046BFB217FA51
:104AD00088F0FF2801DD484639E0DFF84407EDB2F1
:104AE00040F2011101FB0500823000901FFA88F8A6
:104AF000CDF808B0009810F1020A424602995046DB
:104B000002F0D2FA0098801C83461FFA88F818EB4E
:104B10000B0BBFB2DDF804A03A005146584602F034
:104B2000C3FA17EB0800009948705F202070EDB2BF
:104B3000681CC4F801000120814607E0DFF8E006A8
:104B40007FF01401C0F8911F484600E0484605B0C8
:104B5000BDE8F08F2DE9F04F85B004000D00160080
:104B60001F005FF0000A280001F065FB00287DD0DF
:104B700028785F2801D1504686E028785E2802D048
:104B800028785D2816D130782978884207D1D6F860
:104B90000100D5F80110884201D1012074E001A97B
:104BA000280000F082F90198801C83460198007863
:104BB000804607E0681C01900198801C834601989C
:104BC00000788046300001F036FB002841D0307874
:104BD0005F280FD1DFF84806FFB240F2011101FB58
:104BE0000700823000900098801C02900098407866
:104BF000814618E030785D2802D030785E280AD1EE
:104C00006946300000F051F90098801C029000982D
:104C10004078814607E0701C00900098801C02904C
:104C20000098407881465FFA88F85FFA89F9C845AC
:104C300000D2C1465FFA89F9029803904A46039967
:104C4000584602F031FA019880F80190012082461E
:104C500019E0280001F01AFB002814D0019A012164
:104C6000300001F03FF9012082460CE0300001F0F5
:104C7000E2FA002807D130782870D6F80100C5F88C
:104C8000010001208246504605B0BDE8F08F2DE9B5
:104C9000F84F04000D0016005FF00008002C04D04F
:104CA000002E02D0EDB20E2D07DBDFF874057FF089
:104CB0000A01C0F8911F40464DE0300001F0DBFAD8
:104CC000002809D030782070D6F80100C4F801001F
:104CD0000120804640463EE030785E2802D03078A1
:104CE0005D2816D16946300000F0DFF8002801D1B8
:104CF000404630E0DFF82805EDB240F2011101FB3B
:104D000005008230070038780099497888420AD235
:104D100007E0DFF80C057FF01401C0F8911F404652
:104D200019E0404617E0009890F80190009810F1C3
:104D3000020A17F1020B4A465146584602F0B4F9EE
:104D4000787878705F202070EDB2681CC4F801009C
:104D5000012080464046BDE8F28F70B582B0040065
:104D60000026002C07D1DFF8B8047FF00A01C0F854
:104D7000911F30003EE0200001F07DFA002802D0B3
:104D8000A078060035E020785E2802D020785D28E3
:104D90000BD16946200000F088F8002801D10020DE
:104DA00028E000984078060023E020785F2818D19A
:104DB000D4F801000500EDB2002D0FD0EDB20F2D9B
:104DC0000CDADFF85C04EDB240F2011101FB0500E2
:104DD0007F3800900098407806000AE00020060026
:104DE00007E0DFF83C047FF01401C0F8911F0020B9
:104DF0000600300076BD2DE9F84F04000D001600C6
:104E00002078502803D10120834658464BE02000EB
:104E100001F031FA002802D0601C804608E0DFF87B
:104E20000004EDB240F2011101FB05008230804622
:104E300098F80100070018F10200814699F8000077
:104E400082465FFA8AFABAF1610F0FDB5FFA8AFADB
:104E5000BAF17B0F0ADAF6B2012E02D0F6B2032EB7
:104E600018D1BAF1200089F8000013E05FFA8AFA3D
:104E7000BAF1410F0EDB5FFA8AFABAF15B0F09DA79
:104E8000F6B2022E02D0F6B2032E03D11AF12000A0
:104E900089F8000019F101097F1EFFB2002FCDD162
:104EA000012083465846BDE8F28FF8B504000D0096
:104EB00000272078512802D1601C286038E0207833
:104EC0005E280CD1002269462000FFF7F5F8002883
:104ED00001D138002FE00098C01C286028E020781D
:104EE0005D280CD1002269462000FFF7F2F9002866
:104EF00001D138001FE00098C01C286018E020781D
:104F00005F2813D1D4F801000600F6B2002E0BD0B2
:104F1000F6B20F2E08DAC248F6B240F2011101FBD8
:104F200006007F38286003E0002004E0002002E053
:104F3000012007003800F2BDF8B504000027002C5E
:104F400006D1B7487FF00A01C0F8911F380018E079
:104F5000B34805000120070000200600182E0FDAD4
:104F60002000F040C00708D530000100C9B2280079
:104F700000F039F80700002F02D06D1D761CEDE718
:104F80003800F2BDF8B504000027002C06D1A44873
:104F90007FF00A01C0F8911F380023E0A148406B60
:104FA000002806D19E487FF00D01C0F8911F3800FF
:104FB00018E09D4805000120070017200600002E7C
:104FC0000FD42000F040C00708D530000100C9B25E
:104FD000280000F0AEF80700002F02D06D1F761EEB
:104FE000EDE73800F2BD2DE9F84F04000D005FF049
:104FF0000008002C06D18A487FF00A01C0F8911FF2
:10500000404694E08748406A81468648406B7FF07E
:10501000040101FB009920785F2868D18048EDB237
:1050200040F2011101FB0500823006007078002873
:1050300002D10220070015E070780521B0FBF1F2E3
:1050400001FB12000700002F02D00320070001E03F
:10505000022007007078062804D370780521B0FB81
:10506000F1F0C7196F48406B3818B0F5805F09D868
:105070006C48806A6B49496B79186A4A926B51187F
:10508000884206D266487FF02001C0F8911F404652
:105090004DE06448406B3818624948637FF0040073
:1050A00000FB0799207889F80000D9F80100C9F8B9
:1050B000010019F10509612089F800003800401E3F
:1050C000A9F80100307889F80300707889F80400A5
:1050D0007078002828D019F1050996F801A016F17A
:1050E000020B52465946484601F0DEFF1CE04D488F
:1050F000806A4C49496B4B4A926B5118491C884253
:1051000006DA47487FF02001C0F8911F40460EE0C4
:105110004448406B401C43494863207889F80000AC
:10512000D4F80100C9F80100012080464046BDE8DE
:10513000F28F2DE9F84F04000D005FF00008002CFD
:1051400006D137487FF00A01C0F8911F404664E05D
:105150003448406B002806D131487FF00D01C0F87B
:10516000911F404659E02F48406B401E2D4948632F
:105170002C48406A81462B48406B7FF0040101FBBC
:10518000009999F800002070D9F80100C4F80100D6
:1051900020785F283ED12248EDB240F2011101FB98
:1051A00005008230070019F1050999F8000061280F
:1051B00006D01B487FF03301C0F8911F40462CE019
:1051C00099F80300387099F804007870B9F8010074
:1051D00006001448406B801B002801D4352E06DBE6
:1051E0000F487FF00D01C0F8911F404615E0787818
:1051F00000280AD019F1050997F801A017F1020B50
:1052000052464946584601F04FFF0648406B801B06
:1052100004494863012080464046BDE8F28F000003
:10522000A0610020289200201362002038B50400FD
:105230002000FEF7A1FD200001F072FF02F02CF922
:105240000020DFF80C15C8600020DFF80415886026
:105250000020DFF8FC1448610020DFF8F41481F826
:105260002C000020DFF8E81481F82D000020DFF882
:10527000E01481F82E000020DFF8D4148886002086
:10528000DFF8CC1481F833000020DFF8C414086282
:105290000020DFF8BC144862DFF8B8040500DFF82E
:1052A000B004C0F83650DFF8B0040500DFF8A00401
:1052B0008561DFF8A8040500DFF89404C5610120CA
:1052C00032BD80B501F089FFFEF739FE012002BD35
:1052D00070B504000D00DFF878040460DFF8700496
:1052E000456000F027F80600002E08D0DFF87004B3
:1052F000C169DFF86C048069FEF771FD0600002EBD
:1053000002D000F04FF80600002E02D000F079F82D
:105310000600300070BD10B582B00024002000905F
:1053200080230022DFF83814002000F0CFF90400B9
:10533000200016BD10B5FFF7EEFF0400002C2FD0A3
:10534000DFF81C04007843280ED1DFF814044078FD
:10535000522809D1DFF808048078412804D1DFF809
:105360000004C078422801D000201AE0DFF8F003E2
:105370008068B0F1807F01D3002012E0DFF8E00305
:10538000007D00280CD1DFF8D803407D002807D12C
:105390000A20DFF8CC1308750420DFF8C413487521
:1053A000200010BD2DE9F04182B0DFF8B403806920
:1053B0000500002D01D1012021E0B5F5806F02D953
:1053C0004FF480600500DFF89C1308690400241D79
:1053D000AD00012000902B00DFF8840382682100DB
:1053E000002000F073F9DFF87C03C6682F1D5FF022
:1053F000000842463900300001F01EFE0120BDE8E1
:10540000F6812DE9F04182B0DFF85403C069050050
:10541000002D01D1012027E0B5F5806F02D94FF4AE
:1054200080600500DFF838038068DFF8341389698D
:1054300010EB81000400DFF82C034169012000908B
:10544000EB002200002000F041F9DFF81813C86AD1
:10545000DFF810138E6947005FF0000842463900FC
:10546000300001F0E9FD0120BDE8F681DFF8E0023F
:10547000C0687047DFF8D802006A70470100DFF8A3
:10548000D00201620120704710B582B0DFF8C0027F
:10549000006ADFF8BC128862DFF8B40290F82C00D2
:1054A000002808D0DFF8C012DFF8A402806A01F0FB
:1054B00027FF04000BE0002000900423DFF8900297
:1054C000826ADFF8A412002000F000F90400200036
:1054D00016BDDFF89402C078002809D0DFF88802F2
:1054E000C078FF2804D0DFF88002C078A92801DB4B
:1054F000002000E00120704780B5DFF85402006A08
:10550000DFF85C128968884201D300200EE0FFF7C3
:10551000BBFF002809D0DFF83802006A001DDFF861
:1055200030120862FFF7D5FF00E0002002BD70B521
:105530000026FFF7CEFF00282DD08C488A49C97875
:10554000072202FB0101D1F80300040087488649C5
:10555000C978072202FB01004078050020000028DE
:1055600011D07B4890F82E0010F0F700784981F8B0
:105570002E00774890F82E002843754981F82E00B8
:10558000A04706000EE05FF0FF3000F08AF8002030
:105590006F49C86006E05FF0FF3000F082F800203D
:1055A0006B49C860300070BD10B582B06848C468EF
:1055B000674890F82E0010F08800882822D16448AF
:1055C00090F82D0000281DD1684603F058F80028F7
:1055D00016D0FFF74FFF5E49C1F82F0001205C494C
:1055E00081F82D0000215A48C069FFF7FCFC00211A
:1055F00057488069FFF7F7FC0098FFF73FFF01E08D
:1056000000200400200016BD80B50020FEF739FC04
:1056100003F060F84E480068002803D100204C4990
:10562000C86011E080204A4908625148007A002889
:1056300007D04B488168002001F0DAFD444981F829
:105640002C0001204249C8604148C06802BD0020CA
:105650003F49C86001207047F0B583B004000D00D9
:105660001600012000900123220001A9002000F073
:105670002DF80700002F01D1380011E09DF804003B
:10568000002809D0012000909DF80430621C2900F8
:10569000002000F01BF807009DF80400308038005F
:1056A000FEBD10F1630F04D1324AD2F8911F0800F9
:1056B00001E027490861264AD2F8361020220A70F4
:1056C000234AD2F83610C1F8010070472DE9F0479F
:1056D00004000D0016001F00DDF82080E4B2002C4D
:1056E00002D0012C04D007E019480068824605E08A
:1056F00017484068824601E0002027E0504601F04C
:1057000056FC814619F1010F01D100201EE0B14580
:1057100009D000223100504601F055FC10F1010F74
:1057200001D1002012E03A002900504601F05BFC54
:1057300010F1010F01D1002008E0B8F1000F04D0F2
:1057400000224946504601F03EFC0120BDE8F087AA
:105750002491002009620020186200201D620020B0
:10576000FC8F002028920020089500202C7F00202C
:105770007C900020A061002070B504000D00160090
:10578000002D02D0300001F053F8E4B220000028D0
:105790004DD0102852D0202857D021285CD0302856
:1057A00061D0402866D041286BD0422870D0502864
:1057B00075D051287AD05D2800F086805E287CD094
:1057C0005F2800F08880602800F08C80612800F05D
:1057D0009080702800F09480802800F098809028B5
:1057E00000F09C80A02800F0A080A12800F0A480F8
:1057F000A22800F0A880A32800F0AC80B02800F018
:10580000B080B12800F0B480B22800F0B880B3288E
:1058100000F0BC80B42800F0C080C02800F0C48034
:10582000E02800F0C880F02800F0CC80D1E0002211
:10583000DFF85819300001F065F8D0E00022DFF8F9
:105840005019300001F05EF8C9E00022DFF8441979
:10585000300001F057F8C2E00022DFF83C193000B8
:1058600001F050F8BBE00022DFF83019300001F001
:1058700049F8B4E00022DFF82819300001F042F8BE
:10588000ADE00022DFF81C19300001F03BF8A6E083
:105890000022DFF81419300001F034F89FE00022F4
:1058A000DFF80819300001F02DF898E00022DFF849
:1058B0000019300001F026F891E00022DFF8F4181A
:1058C000300001F01FF88AE00022DFF8EC18300009
:1058D00001F018F883E00022DFF8E018300001F052
:1058E00011F87CE00022DFF8D818300001F00AF847
:1058F00075E00022DFF8CC18300001F003F86EE00C
:105900000022DFF8C418300000F0FCFF67E000223E
:10591000DFF8B818300000F0F5FF60E00022DFF893
:10592000B018300000F0EEFF59E00022DFF8A418B4
:10593000300000F0E7FF52E00022DFF89C18300052
:1059400000F0E0FF4BE00022DFF89018300000F09C
:10595000D9FF44E00022DFF88818300000F0D2FFC1
:105960003DE00022DFF87C18300000F0CBFF36E08D
:105970000022DFF87418300000F0C4FF2FE000228E
:10598000DFF86818300000F0BDFF28E00022DFF8E3
:105990006018300000F0B6FF21E00022DFF8541854
:1059A000300000F0AFFF1AE00022DFF84C183000A2
:1059B00000F0A8FF13E00022DFF84018300000F0EC
:1059C000A1FF0CE00022DFF83818300000F09AFF49
:1059D00005E00022DFF82C18300000F093FF3000C3
:1059E00070BD38B5040000200500002C01D128004E
:1059F00074E0200000F01FFC00280CD02000FFF70E
:105A0000ACF90500002D02D00120050001E00020C6
:105A10000500280062E02078002814D0103815D046
:105A2000103817D0401E1FD00F3827D0113834D06F
:105A3000401E3CD05F38022843D9001F41D00C38AB
:105A400003283ED947E00020050046E0D4F80100D5
:105A5000050042E0D4F80100002802D10020050032
:105A600001E00120050038E0D4F80100002802D14F
:105A70000020050001E0012005002EE0D4F801001F
:105A800000EE100AB5EE400AF1EE10FA02D1002045
:105A9000050001E0012005001FE0D4F80100002806
:105AA00002D10020050001E00120050015E0D4F836
:105AB0000100002802D10020050001E001200500BE
:105AC0000BE0D4F80100002802D10020050001E01D
:105AD0000120050001E000200500280032BD38B596
