:020000040800F2
:10000000A0210020E15201085F540008615400085B
:10001000635400086554000867540008000000009D
:100020000000000000000000000000005D2C01083E
:100030006954000800000000052C0108DBF90008E5
:100040005154010855540108595401085D540108E0
:100050006154010865540108695401086D54010890
:1000600071540108755401086D5400087954010851
:100070007D54010881540108855401088954010800
:100080008D540108915401089554010899540108B0
:100090009D540108A1540108A55401086F5400089B
:1000A000A9540108AD540108B1540108B554010820
:1000B000B9540108BD540108C1540108C5540108D0
:1000C000C9540108CD540108D1540108D554010880
:1000D000D9540108DD540108E1540108E554010830
:1000E000E9540108ED540108F1540108F5540108E0
:1000F000F9540108FD54010801550108055501088E
:10010000095501080D55010811550108155501083B
:10011000195501081D5501082155010825550108EB
:10012000295501082D55010831550108355501089B
:10013000395501083D55010841550108455501084B
:10014000495501084D5501085155010857E6000869
:1001500055550108595501085D5501086B540008B3
:100160006155010865550108695501086D5501087B
:100170007155010875550108795501087D5501082B
:10018000815501088555010801207047DFF8281ABC
:10019000D1F81600F021C172DFF81C1AD1F8160050
:1001A00000210170DFF8101AD1F81600002141700B
:1001B000DFF8041A086B0021C172DFF8FC19D1F8CE
:1001C00012000021C1720120704710B5DFF8EC0960
:1001D000DFF8EC1989780C2202FB0104B021200021
:1001E00003F0F3FD002805D17FF0030004F080FD4B
:1001F000002012E0DFF8C8090188200004F0C3FEE7
:10020000002805D17FF0620004F072FD002004E0B8
:10021000DFF8A409C0F80E40012010BD38B5DFF8A2
:100220009C09DFF89C1989780C2202FB0104DFF895
:100230008C09DFF88C1909780C2202FB0105B0212A
:10024000200003F0C2FD002805D17FF0030004F078
:100250004FFD002013E0280003F0A2FE0100200063
:1002600004F091FE002805D17FF0620004F040FD0B
:10027000002004E0DFF84009C0F80E40012032BD44
:100280007CB5DFF83809DFF8381909780C2202FB51
:100290000100DFF82819DFF8282992780C2303FBE6
:1002A0000214DFF81819DFF8182952780C2303FB21
:1002B0000215DFF8101903F073FE0600002E05D1B9
:1002C0007FF03D0004F014FD00202CE0280003F036
:1002D00071FDED88C0B2FF2805D17FF0140004F055
:1002E00007FD00201FE08021200003F06EFD0028A4
:1002F00005D17FF0030004F0FBFC002013E0012097
:1003000000904D232A0092B2310001A804F0A9FE0A
:10031000002805D17FF00C0004F0EAFC002002E088
:1003200001982060012076BDF0B585B0DFF88C081B
:10033000DFF88C1809780C2202FB0100DFF87C182A
:10034000DFF87C2892780C2303FB0214DFF86C188A
:10035000DFF86C2852780C2303FB021503F020FE13
:100360000600002E05D17FF0140004F0C1FC00202F
:1003700039E00C21002202AF380005F03DF83100D1
:1003800002A805F00CF8002805D17FF00C0004F05D
:10039000AFFC002027E0280003F00CFDFF2805D16A
:1003A0007FF0140004F0A4FC00201CE08321200056
:1003B00003F00BFD002805D17FF0030004F098FC4A
:1003C000002010E0287900906B79320002A901A882
:1003D00004F09DFE002803D004F08AFC002002E017
:1003E00001982060012005B0F0BD80B55FF0FF30BE
:1003F00004F07EFC002002BD80B55FF0FF3004F009
:1004000077FC002002BD10B5DFF8B007DFF8B017A9
:1004100089780C2202FB0104200004F0EDFD002885
:1004200005D17FF0620004F063FC002004E0DFF8F7
:100430008807C0F80E40012010BD38B5DFF87C07F2
:10044000DFF87C1709780C2202FB0105DFF86C0746
:10045000DFF86C1789780C2202FB01000468002C7D
:1004600005D17FF0150004F043FC00201AE02800BD
:1004700003F0A0FCC0B250280BD0802830D08328D5
:1004800011D0FF2846D17FF0140004F031FC002089
:1004900008E02068002804D0206805F00DF800204E
:1004A0002060012032BD2068002818D0206808385C
:1004B000C178002911D0817800290ED0B0F9000050
:1004C00000280AD4206804F0FEFD002805D17FF042
:1004D000010004F00DFC0020E4E700202060E0E7CC
:1004E0002068002815D020680838418800290ED0DF
:1004F000B0F9000000280AD4206804F0E4FD0028C8
:1005000005D17FF0010004F0F3FB0020CAE70020D2
:100510002060C6E728790928C3DB7FF0140004F0C7
:10052000E7FB0020BEE780B5DFF89416086805F009
:10053000B6FC03F09FFE002805D17FF0620004F0B6
:10054000D7FB002000E0012002BD80B5DFF8701667
:10055000086805F0A4FC03F0ACFE002805D17FF08C
:10056000620004F0C5FB002000E0012002BD10B5D0
:10057000DFF84806DFF8481689780C2202FB0104F0
:10058000200003F0B5FE002805D17FF0620004F0E2
:10059000AFFB002004E0DFF82006C0F80E40012089
:1005A00010BD10B5DFF81406DFF8141689780C2298
:1005B00002FB0104200003F0C2FE002805D17FF0F9
:1005C000620004F095FB002004E0DFF8EC05C0F8C1
:1005D0000E40012010BD10B5DFF8E005DFF8E01592
:1005E00089780C2202FB0104E07A202801D030280F
:1005F00010D1206804F0B0FE002805D17FF0620021
:1006000004F076FB00200AE0DFF8AC05C0F80E40ED
:10061000012004E07FF03C0004F06AFB002010BDE4
:1006200080B55FF0FF3004F063FB002002BD70B5C1
:10063000DFF88805DFF8881509780C2202FB010431
:10064000DFF87805DFF8781589780C2202FB0105C0
:10065000E07A832805D07FF0140004F049FB0020E5
:1006600034E02668002E05D17FF0150004F040FB31
:1006700000202BE0083E002E05D17FF0150004F08D
:1006800037FB002022E07068002807D1DFF828152A
:10069000D1F8160000210170012017E0B2212800D6
:1006A00003F093FB002805D17FF0030004F020FB4A
:1006B00000200BE0206828607068401E6860DFF84A
:1006C000F814D1F8160001210170012070BD80B529
:1006D000DFF8E804DFF8E81489780C2202FB010057
:1006E000C17AB22905D07FF0140004F001FB00208C
:1006F00020E00168002905D17FF0150004F0F8FA28
:10070000002017E04168002907D1DFF8AC14D1F8C8
:1007100016000021017001200CE00168091D016034
:100720004168491E4160DFF89014D1F8160001219C
:100730000170012002BD7FB5DFF88004DFF880146E
:1007400089780C2202FB0104DFF874040588002D6F
:1007500005D17FF0140004F0CBFA002021E00C2139
:10076000002201AE300004F047FE290001A804F089
:1007700016FE002805D17FF00C0004F0B9FA002025
:100780000FE023682A0001A9684604F062FD0028F2
:1007900004D0002004F0ACFA002002E000982060B1
:1007A000012004B070BD80B5DFF81004DFF810142C
:1007B00089780C2202FB0100A02103F006FB00282F
:1007C00005D17FF0030004F093FA00200EE0DFF87B
:1007D000EC03DFF8EC1389780C2202FB0100A32163
:1007E000C172DFF8DC1309880160012002BD80B509
:1007F000DFF8C803DFF8C81389780C2202FB010078
:10080000C17AA32905D07FF01A0004F071FA002004
:1008100004E0DFF8AC1309884180012002BD80B5F7
:100820005FF0FF3004F064FA002002BD10B5DFF87D
:100830008C03DFF88C1389780C2202FB01048221DF
:10084000200003F0C2FA002805D17FF0030004F075
:100850004FFA002006E08220E072DFF8640300888F
:100860002060012010BD80B5DFF85003DFF8501381
:1008700089780C2202FB0100C17A822905D07FF021
:100880001A0004F035FA002004E0DFF83413098878
:100890004180012002BD10B5C848C94989780C22A1
:1008A00002FB0104C221200003F08FFA002805D1C9
:1008B0007FF0030004F01CFA00200CE0C220E0727C
:1008C00000202060BE4840786071BD4800782071EB
:1008D0000020E080012010BD10B5B848B8498978E3
:1008E0000C2202FB0104C221200003F06EFA002852
:1008F00005D17FF0030004F0FBF900200BE0C220DB
:10090000E072002020604D20607104202071AC480E
:100910000088E080012010BD38B5A848A8490978B2
:100920000C2202FB0104A548A54989780C2202FB90
:1009300001050021280003F048FA002805D17FF0C6
:10094000030004F0D5F9002012E0E07A803810D0DE
:100950002138022804D9001F02D00C3803280DD8F2
:10096000E07AE872206828609348C0F80E500120B1
:1009700032BDA220E87220682860F5E77FF01A00F7
:1009800004F0B6F90020F3E710B58C488C4989785B
:100990000C2202FB01048948894909780C2202FBD8
:1009A000010003F0FDFAE17AA1290CD0A22914D0AC
:1009B000A32918D0B12906D0B2290ED0B32902D06C
:1009C000B4290AD013E0A121E17221684018206007
:1009D0007948C0F80E40012010BDA221E1722168C3
:1009E00040182060F4E7216840182060F0E77FF0AD
:1009F000620004F07DF90020EEE780B56F48704991
:100A000089780C2202FB01006D490988C27AA12A6B
:100A10000CD0A22A14D0A32A18D0B12A06D0B22A08
:100A20000ED0B32A02D0B42A0AD013E0A122C27297
:100A30000268891801606049C1F80E00012002BDFA
:100A4000A222C272026889180160F4E7026889185C
:100A50000160F0E77FF0620004F04AF90020EEE761
:100A600070B55648564909780C2202FB01005349DB
:100A7000534A92780C2303FB02145049504A52788F
:100A80000C2303FB02160568002D05D17FF015002D
:100A900004F02EF900208EE0300003F08BF9C0B294
:100AA0000100502944D0602931D061290DD062293C
:100AB0001CD080294BD0832949D0FF2957D17FF002
:100AC000140004F015F9002075E06121200003F006
:100AD0007CF9002805D17FF0030004F009F900201B
:100AE00069E0286860600020206063E062212000E7
:100AF00003F06BF9002805D17FF0030004F0F8F84B
:100B0000002058E0002060602868206052E06021EA
:100B1000200003F05AF9002805D17FF0030004F00B
:100B2000E7F8002047E0686860602868206041E0DE
:100B30005D21200003F049F9002805D17FF0030072
:100B400004F0D6F8002036E02868206032E001008A
:100B5000C9B2200003F039F9002805D17FF0030065
:100B600004F0C6F8002026E02868206022E03179F1
:100B7000092905DB7FF0140004F0BAF800201AE020
:100B80000100C9B2200003F020F9002805D17FF050
:100B9000030004F0ADF800200DE0002020600020EC
:100BA00004E0C0B2415DC0B20155401C3179C0B211
:100BB0008842F6D3012070BDD0820020F07B002057
:100BC000EC860020C87C00202DE9FC41DFF81C0CDD
:100BD000DFF8A41C09780C2202FB0106DFF80C0CDC
:100BE000DFF8941C89780C2202FB0100DFF8FC1B63
:100BF000DFF8842C52780C2303FB02140568002DC7
:100C000005D17FF0150004F073F8002012E22000F7
:100C100003F0D0F82179092905DB7FF0140004F0F6
:100C200067F8002006E2C0B20100102924D0202974
:100C30002BD0302964D0402900F09D80482900F055
:100C4000DF80502900F06181602900F0478161292F
:100C500000F01D81622900F02D81802900F0C881FB
:100C6000832900F0C581FF2940F0DE817FF0140068
:100C700004F03EF80020DDE13078002802D00120A9
:100C8000287001E000202870D3E1F07A20380ED0DF
:100C9000103814D0103815D008381AD05938022816
:100CA00025D9001F23D00C38032820D922E0306832
:100CB000009022796946280005F0F4F8B9E130681F
:100CC0000090F6E7306800EE100A05F026F9009073
:100CD000EFE73268736843EC102B51EC100B05F012
:100CE000EDF900EE100A05F018F90090E1E7306820
:100CF0000090DEE77FF03E0003F0FAFF002099E16C
:100D0000F07A20380ED0103814D0103815D00838AA
:100D10001AD05938022825D9001F23D00C380328AF
:100D200020D922E03068009022796946280005F039
:100D3000B9F87EE130680090F6E7306800EE100AFE
:100D400005F0EBF80090EFE73268736843EC102B86
:100D500051EC100B05F0B2F900EE100A05F0DDF8C9
:100D60000090E1E730680090DEE77FF03E0003F09E
:100D7000BFFF00205EE1F07A20380ED0103819D085
:100D800010381FD0083823D0593802282AD9001F1C
:100D900028D00C38032825D92CE0306800EE100A42
:100DA000B8EEC00A8DED000A22796946280005F0E8
:100DB00079F83EE1306800EE100AB8EE400A8DED99
:100DC000000AF1E7306800EE100A8DED000AEBE74B
:100DD0003268736843EC102B51EC100B05F06EF980
:100DE0000090E1E7306800EE100AB8EE400A8DEDA1
:100DF000000AD9E77FF03E0003F07AFF002019E1F6
:100E0000F07A20380ED0103818D010381DD008389D
:100E100026D0593802282DD9001F2BD00C38032892
:100E200028D92EE030686E4605F090F93060716088
:100E300022796946280005F035F8FAE030686E46F8
:100E400005F08EF930607160F2E7306800EE100A4C
:100E50006E4610EE100A05F091F930607160E7E718
:100E60003268736843EC102B684653EC102B026019
:100E70004360DDE730686E4605F072F930607160FE
:100E8000D6E77FF03E0003F033FF0020D2E0F07A97
:100E9000002803D06038012803D905E0002028602D
:100EA000C7E070682860FBE77FF03E0003F020FF9A
:100EB0000020BFE0F07A002804D0602805D0622826
:100EC00003D005E000202860B3E030682860FBE72D
:100ED0007FF03E0003F00CFF0020ABE0F07A00282A
:100EE00003D06038022805D909E00020686000209E
:100EF00028609EE07068686030682860F9E77FF0DD
:100F00003E0003F0F5FE002094E0300002F084FF84
:100F1000002802D03468002709E0002004F00CFB10
:100F2000040022000121300003F0E0F80127D5F889
:100F30000080F07A5F2806D0FFB2012F03D0B4F909
:100F4000000000282ED5B8F1000F0DD098F802004F
:100F5000E178884208D0B8F90000002804D440465F
:100F600004F0AAFA5FF00008B8F1000F12D1E0789F
:100F700004F08CFA8046B8F1000F05D17FF0010033
:100F800003F0B6FE002055E0B8F80000401CA8F8B9
:100F9000000002E0404604F0AFFB2100404604F0B0
:100FA0002DFC1CE0B8F1000F08D0B8F900000028B3
:100FB00004D4404604F080FA5FF00008B8F1000F56
:100FC00006D1A046B8F80000401CA8F8000006E0D2
:100FD000404604F091FB2100404604F00FFCC5F8A8
:100FE0000080FFB2002F02D0200004F026FB20E09A
:100FF000F17AC0B2814211D130682860306800288F
:101000000BD0306808384168002906D0B0F90010CC
:10101000002902D40188491C01800AE07FF01400F5
:1010200003F066FE002005E022793100280004F07C
:1010300039FF0120BDE8F68170B5DFF8B007DFF8B1
:10104000381809780C2202FB0104DFF8A007DFF84A
:10105000281889780C2202FB0105DFF89007DFF8D9
:10106000181849780C2202FB0106300002F0A2FE9B
:10107000C0B2FF2805D17FF0140003F039FE002034
:101080000DE0DFF8E80C4563C220E87220682860B4
:101090007079687130792871F088E880012070BD1E
:1010A00080B55FF0FF3003F023FE002002BD38B5AD
:1010B000DFF83807DFF8C01709780C2202FB0104BB
:1010C000DFF82807DFF8B01789780C2202FB01054A
:1010D000DFF81807DFF8A01749780C2202FB01009F
:1010E00002F068FEC0B2FF2805D17FF0140003F0C3
:1010F000FFFD002023E021886088DFF8702CC2F813
:101100003A10DFF8681CC1F83E500121DFF85C2C72
:1011100082F83810DFF860178978DFF8502C82F8F1
:10112000391080B205F07CF90100002902D0804717
:10113000012004E07FF0280003F0DAFD002032BD3A
:1011400038B5DFF8A806DFF8301709780C2202FB63
:101150000104DFF89806DFF8201789780C2202FBDB
:101160000105DFF88806DFF8101749780C2202FB2A
:10117000010002F01FFEC0B2FF2805D17FF014006D
:1011800003F0B6FD002023E029886888DFF8DC2B17
:10119000C2F83A10DFF8D41BC1F83E400121DFF855
:1011A000CC2B82F83810DFF8D0160978DFF8BC2B8A
:1011B00082F8391080B205F033F90100002902D01D
:1011C0008047012004E07FF0280003F091FD00201B
:1011D00032BD38B5DFF81406DFF8781909780C222B
:1011E00002FB0101DFF80406DFF8682992780C237E
:1011F00003FB0204DFF8F405DFF8582952780C23CA
:1012000003FB02000D68002D05D17FF0150003F0EF
:101210006FFD002021E002F0CDFDC0B2802807D094
:10122000FF2815D17FF0140003F062FD002014E0C8
:101230008021200002F0C9FD002805D17FF00300C5
:1012400003F056FD002008E028682060012004E03B
:101250007FF0140003F04CFD002032BD80B55FF03C
:10126000FF3003F045FD002002BD70B5DFF87C05BE
:10127000DFF8E01809780C2202FB0100DFF86C159A
:10128000DFF8D02892780C2303FB0214DFF85C15FA
:10129000DFF8C02852780C2303FB02160568002DE6
:1012A00005D17FF0150003F023FD00205DE0300044
:1012B00002F080FDC0B2010050290BD0802920D05F
:1012C00083291ED0FF292CD17FF0140003F010FDDC
:1012D00000204AE05F21200002F077FD002805D1C0
:1012E0007FF0030003F004FD00203EE0206804F0DE
:1012F00003FA2868002803D02968206804F07EFAE1
:1013000032E00100C9B2200002F05FFD002805D1E3
:101310007FF0030003F0ECFC002026E0286820604A
:1013200022E03179092905DB7FF0140003F0E0FCAD
:1013300000201AE00100C9B2200002F046FD00289A
:1013400005D17FF0030003F0D3FC00200DE0002066
:101350002060002004E0C0B2415DC0B20155401CD5
:101360003179C0B28842F6D3012070BD70B5DFF884
:101370007C04DFF8E01709780C2202FB0105DFF896
:101380006C04DFF8D01789780C2202FB0100DFF82B
:101390005C14DFF8C02752780C2303FB02160468A4
:1013A000002C05D17FF0150003F0A2FC002045E0E1
:1013B000300002F0FFFCC0B2010050290BD08029A0
:1013C0001DD083291BD0FF2926D17FF0140003F004
:1013D0008FFC002032E0E87A5D280AD128680028D6
:1013E00006D02868B0F90000002801D428682060E1
:1013F00023E07FF0140003F07BFC00201EE0E97A7C
:10140000C0B2814202D12868206016E07FF014004B
:1014100003F06EFC002011E03079092805DB7FF035
:10142000140003F065FC002008E0002002E0415DAC
:101430000155401C31798842F9DB012070BDF8B5B7
:10144000DFF8A803DFF80C1709780C2202FB01046F
:10145000DFF89803DFF8FC1689780C2202FB0105FF
:10146000DFF88803DFF8EC1649780C2202FB01064E
:101470002068002805D17FF0150003F039FC00201A
:1014800048E0300002F096FC0700FFB2FF2F05D1C4
:101490007FF0140003F02CFC00203BE0FFB2502F43
:1014A00000D15F273900C9B2280002F08EFC002865
:1014B00005D17FF0030003F01BFC00202AE0FFB2FF
:1014C0005F2F0BD12968206803F0E8FB002820D1AA
:1014D0007FF0620003F00CFC00201BE0307909284B
:1014E00011DA002028602268012000903379290059
:1014F000002003F011FC00280BD17FF0620003F004
:10150000F7FB002006E07FF0010003F0F1FB002074
:1015100000E00120F2BD10B5B448DFF838160978B4
:101520000C2202FB0104B148DFF8281689780C224E
:1015300002FB0100AD48DFF81C1649780C2202FBC3
:10154000010002F037FCC0B2FF2805D17FF0140083
:1015500003F0CEFB002001E02068002010BD38B56C
:10156000A248C54909780C2202FB01049F48C249E0
:1015700089780C2202FB01059C48BF4949780C225E
:1015800002FB010002F016FCC0B2FF2805D17FF07B
:10159000140003F0ADFB002022E021886088DFF812
:1015A000282BC2F83A10DFF8201BC1F83E50012169
:1015B000DFF8142B82F83810AF498978DFF8082B50
:1015C00082F8391080B204F02BFF0100002902D00C
:1015D0008047012004E07FF0280003F089FB002011
:1015E00032BD38B58148A44909780C2202FB0104B8
:1015F0007E48A14989780C2202FB01057B489E495F
:1016000049780C2202FB010002F0D4FBC0B2FF2893
:1016100005D17FF0140003F06BFB002022E0298845
:101620006888DFF8A42AC2F83A10DFF89C1AC1F8DB
:101630003E400121DFF8902A82F838108E4909785F
:10164000DFF8842A82F8391080B204F0E9FE010044
:10165000002902D08047012004E07FF0280003F039
:1016600047FB002032BD38B56048834909780C2219
:1016700002FB01045D48804989780C2202FB0105C8
:101680005A487D4949780C2202FB010002F092FB86
:10169000C0B2FF2805D17FF0140003F029FB002021
:1016A00021E02088DFF8C416C1F83A00DFF8BC0654
:1016B000C0F83E500120DFF8B41681F838006E48BB
:1016C0008078DFF8A81681F83900DFF8001A08687A
:1016D0000100002902D08047012004E07FF02800AB
:1016E00003F006FB002032BD38B540486249097856
:1016F0000C2202FB01043D485F4989780C2202FB61
:1017000001053A485C4949780C2202FB010002F0CD
:1017100051FBC0B2FF2805D17FF0140003F0E8FAB6
:10172000002021E02888DFF84416C1F83A00DFF8ED
:101730003C06C0F83E400120DFF8301681F8380042
:101740004D480078DFF8241681F83900DFF87C195D
:1017500048680100002902D08047012004E07FF0A2
:10176000280003F0C5FA002032BD38B51F484249B1
:1017700009780C2202FB01041C483F4989780C229D
:1017800002FB010519483C4949780C2202FB010083
:1017900002F010FBC0B2FF2805D17FF0140003F067
:1017A000A7FA002021E02088DFF8C015C1F83A0030
:1017B000DFF8B805C0F83E500120DFF8B01581F819
:1017C00038002D488078DFF8A41581F83900DFF85B
:1017D000FC1888680100002902D08047012004E03D
:1017E0007FF0280003F084FA002032BDF07B002057
:1017F00038B5DFF8DC08204909780C2202FB010427
:10180000DFF8CC081C4989780C2202FB0105DFF8BF
:10181000C008194949780C2202FB010002F0CAFAFB
:10182000C0B2FF2805D17FF0140003F061FA002058
:1018300021E02888DFF83415C1F83A00DFF82C05DC
:10184000C0F83E400120DFF8241581F838000A482E
:101850000078DFF8181581F83900DFF87018C868CB
:101860000100002902D08047012004E07FF0280019
:1018700003F03EFA002032BDEC86002070B582B045
:101880000025DFF84C08B34909780C2202FB01005F
:10189000DFF83C18AF4A92780C2303FB0216C17A9A
:1018A000A32906D07FF0170003F022FA2800C0B267
:1018B00032E0DFF8141891F82D105F2911D1026879
:1018C00000200090DFF80008C38D211D012003F0E7
:1018D00023FADFF8F407C08DE0705F20F072012575
:1018E00014E0DFF8E417C98D05290FDADFF8D817FF
:1018F00091F82D10F172026800200090DFF8C807FF
:10190000C38D3100012003F007FA0125DFF8B80785
:10191000C0F80E602800C0B276BD70B582B0002558
:10192000DFF8AC078B4909780C2202FB0101DFF8D4
:10193000A007884A92780C2303FB0206F07AA328BA
:1019400006D07FF0170003F0D3F92800C0B22AE0D8
:10195000DFF8740790F82D005F280FD1326800205F
:101960000090DFF86407C38D211D012003F0D4F936
:10197000DFF85407C08DE07001250EE0DFF848075E
:10198000C08D052809DA326800200090DFF838079A
:10199000C38D012003F0C0F90125DFF82C07C0F842
:1019A0000E602800C0B276BD10B5DFF82407694983
:1019B00089780C2202FB01041021200002F005FAB4
:1019C000002805D17FF0030003F092F9002007E022
:1019D000604800882070DFF8F006C0F80E40012053
:1019E00010BD80B55FF0FF3003F082F9002002BD2A
:1019F00010B5DFF8DC06574989780C2202FB010498
:101A00002021200002F0E1F9002805D17FF0030039
:101A100003F06EF9002009E04E4800882080002085
:101A20006080DFF8A406C0F80E40012010BD80B52C
:101A3000DFF89C06474989780C2202FB0100C17A35
:101A4000202905D07FF0030003F052F9002007E0C1
:101A5000404909884180DFF87016C1F80E00012066
:101A600002BD10B5DFF868063A4989780C2202FBFE
:101A700001044021200002F0A8F9002805D17FF0E0
:101A8000030003F035F9002009E032480088208087
:101A900000206080DFF83006C0F80E40012010BD45
:101AA00080B5DFF82C062B4989780C2202FB010057
:101AB000C17A402905D07FF0030003F019F9002016
:101AC0000DE02449098841800168002901D00121E5
:101AD00000E00021DFF8F015C1F80E00012002BD82
:101AE00010B5DFF8EC051B4989780C2202FB0104D4
:101AF0003021200002F069F9002805D17FF00300B1
:101B000003F0F6F8002009E0124800882080002049
:101B10006080DFF8B405C0F80E40012010BD80B52C
:101B2000DFF8AC050B4989780C2202FB0100C17A71
:101B3000302905D07FF0030003F0DAF8002007E039
:101B4000044909884180DFF88015C1F80E000120A2
:101B500002BD0000EC86002080B55FF0FF3003F08E
:101B6000C7F8002002BD10B5DFF86405DFF8781B68
:101B700089780C2202FB01046021200002F025F983
:101B8000002805D17FF0030003F0B2F800200AE03E
:101B9000DFF8540B0088A0800020E080DFF82805E3
:101BA000C0F80E40012010BD80B5DFF82405DFF835
:101BB000381B89780C2202FB0100C17A602905D00C
:101BC0007FF0030003F094F8002008E0DFF8181B12
:101BD0000988C180DFF8F014C1F80E00012002BDB1
:101BE00010B5DFF8EC04DFF8001B89780C2202FB4B
:101BF00001046021200002F0E8F8002805D17FF000
:101C0000030003F075F800200AE0DFF8DC0A008822
:101C1000208000206080DFF8B004C0F80E40012072
:101C200010BD80B5DFF8A804DFF8BC1A89780C2253
:101C300002FB0100C17A602905D07FF0030003F0A8
:101C400057F800200AE06221C172DFF89C1A098867
:101C50004180DFF87414C1F80E00012002BD80B588
:101C60005FF0FF3003F044F8002002BD10B5DFF84C
:101C70006004DFF8741A89780C2202FB01045221F7
:101C8000200002F0A2F8002805D17FF0030003F045
:101C90002FF8002008E0DFF8500A00882080DFF8E5
:101CA0002804C0F80E40012010BD80B55FF0FF3061
:101CB00003F01EF8002002BD80B55FF0FF3003F096
:101CC00017F8002002BD70B5DFF80404DFF8181A19
:101CD00009780C2202FB0104DFF8F403DFF8081A8C
:101CE00089780C2202FB0105280002F095F80028F3
:101CF0000CD1002003F020FC060032000121280056
:101D000002F0F4F95F20E8722E6002E0280002F091
:101D100095FA200002F080F8002804D02168286895
:101D200003F06CFD04E02A680021200002F0DEF9D7
:101D3000012070BD10B5DFF89803DFF8AC19897881
:101D40000C2202FB01040021200002F03EF80028D2
:101D500005D17FF0030002F0CBFF002004E0DFF8A4
:101D60006803C0F80E40012010BD0000D0820020A2
:101D700038B5DFF85C03DFF8701909780C2202FB34
:101D80000104DFF84C03DFF8601989780C2202FBAC
:101D90000105E17A280002F018F8002805D17FF04B
:101DA000030002F0A5FF002013E0E87A5F280AD1C3
:101DB000286803F0A1FC2068002806D02168286864
:101DC00003F01CFD01E020682860BF48C0F80E50F9
:101DD000012032BD10B5BE48DFF80C1989780C22FD
:101DE00002FB0104E07A10380DD0103812D0103800
:101DF00028D0103815D0103832D0801E23D00B38A0
:101E000002282DD93FE001202070AF48C0F80E40D5
:101E1000012010BD2068002802D5206840422060C3
:101E2000F3E7206800EE100AB5EE400AF1EE10FA72
:101E300007D5206800EE100AB1EE400A10EE100A35
:101E40002060E2E7E1E76078002808D12078612887
:101E500005DB20787A2802DB207820382070D4E750
:101E6000200002F0EBF9002805D17FF0030002F01A
:101E70003FFF0020CDE72068002803D02068012123
:101E800003F03CFDC1E77FF03F0002F031FF00208E
:101E9000BFE710B58E48DFF8501889780C2202FB96
:101EA0000104E07A10380DD0103812D0103814D058
:101EB000103816D010382AD0801E1BD00B380228BC
:101EC00025D937E0002020707F48C0F80E4001205F
:101ED00010BD206840422060F6E720684042206044
:101EE000F2E7206800EE100AB1EE400A10EE100A88
:101EF0002060E9E76078002808D12078412805DBD8
:101F000020785A2802DB207820302070DCE720007F
:101F100002F094F9002805D17FF0030002F0E8FEFA
:101F20000020D5E72068002803D02068022103F0B4
:101F3000E5FCC9E77FF03F0002F0DAFE0020C7E7CA
:101F400010B56348DFF8A01789780C2202FB010462
:101F5000200001F061FF002805D07FF0140002F09E
:101F6000C7FE00201EE0E07A203814D010381AD0C6
:101F700010381CD012383BD00E382FD0401E21D044
:101F8000401E25D03F3802282ED9001F2CD00C38F7
:101F9000032829D930E02068401C20604A48C0F856
:101FA0000E40012010BD2068401C2060F6E720682C
:101FB00000EE100AF7EE000A30EE200A10EE100ACA
:101FC0002060EBE76068401C04F0A2FC6060E5E77D
:101FD0002068401C04F0E6FC2060DFE72068401C1D
:101FE00004F0E0FC2060D9E72068401C2060D5E7C1
:101FF0002088401C2080D1E77FF03F0002F078FE6F
:102000000020CFE710B53248DFF8DC1689780C22C3
:1020100002FB0104200001F0FFFE002805D07FF044
:10202000140002F065FE00201EE0E07A203814D093
:1020300010381AD010381CD012383BD00E382FD0A0
:10204000401E21D0401E25D03F3802282ED9001F27
:102050002CD00C38032829D930E02068401E20609D
:102060001948C0F80E40012010BD2068401E2060B5
:10207000F6E7206800EE100AFFEE000A30EE200AB4
:1020800010EE100A2060EBE76068401E04F040FC90
:102090006060E5E72068401E04F084FC2060DFE714
:1020A0002068401E04F07EFC2060D9E72068401EB6
:1020B0002060D5E72088401E2080D1E77FF03F00D8
:1020C00002F016FE0020CFE7D0820020008600201C
:1020D000F07B002038B5DFF8D00BDFF80C1609785C
:1020E0000C2202FB0105DFF8C00BDFF8FC15897834
:1020F0000C2202FB0104200001F08EFE002804D116
:10210000280001F089FE002805D07FF0140002F0BD
:10211000EFFD002045E0E07A20381AD0103841D099
:10212000103867D0123800F04E810E3800F0EF8082
:10213000401E6BD0401E00F0A6803F38022840F2BF
:102140003B81001F00F038810C38032840F23481B5
:1021500040E1E87A202804D0302802D0402805D079
:1021600014E0206829680818206015E04020E0721B
:10217000206800EE100A286800EE900AB8EEC00A47
:1021800030EE200A10EE100A206005E0280001F071
:10219000C4FE216840182060DFF8A40CC0F80E408F
:1021A000012032BDE87A202804D0302802D040280F
:1021B00007D016E02020E072206829680818206007
:1021C00017E04020E072206800EE100A286800EE58
:1021D000900AB8EE400A30EE200A10EE100A206095
:1021E00007E02020E072280001F097FE21684018E7
:1021F0002060D1E7280001F017FF206800EE900A68
:1022000030EE800A10EE100A2060C5E7E87A202838
:102210001CD0302821D0402826D0482824D060283F
:1022200006D0622829D16020E07228682060B3E7D8
:102230006868002804D16020E07228682060F6E712
:102240007FF03F0002F054FD0020AAE76068296893
:10225000081804F05DFB6060E9E760682968081809
:1022600004F056FB6060E2E7280001F056FE61686A
:10227000401804F04DFB6060D9E77FF03F0002F0AA
:1022800037FD00208DE7E87A202823D0302828D099
:1022900040282DD048282BD0602810D0612802D0AB
:1022A000622805D02DE06020E0726868606073E706
:1022B00020682968081804F075FB2060F7E76020A3
:1022C000E0726868606020682968081804F06AFB9A
:1022D0002060ECE720682968081804F063FB2060A0
:1022E000E5E720682968081804F05CFB2060DEE759
:1022F000280001F012FE2168401804F053FB206012
:10230000D5E77FF03F0002F0F3FC002049E7E87AD0
:10231000202834D0302839D040283ED048283CD01E
:10232000602817D0612802D062280CD03EE0606897
:10233000002802D1686860602EE77FF03F0002F05D
:10234000D7FC00202DE720682968081804F02AFB34
:102350002060F1E76068002808D168686060206844
:102360002968081804F01EFB2060E5E7686800286B
:10237000F5D07FF03F0002F0BBFC002011E72068A1
:102380002968081804F00EFB2060D5E7206829684A
:10239000081804F007FB2060CEE7280001F0BDFD1F
:1023A0002168401804F0FEFA2060C5E77FF03F0086
:1023B00002F09EFC0020F4E6280001F0F1FD216807
:1023C00040182060E8E6280001F0A7FD21884018A9
:1023D0002080E1E67FF03F0002F08AFC0020E0E68A
:1023E00038B5DFF8C408C04909780C2202FB0105A2
:1023F000DFF8B408BC4989780C2202FB01042000F4
:1024000001F00AFD002804D1280001F005FD002894
:1024100005D07FF0140002F06BFC002045E0E07A6C
:1024200020381AD0103841D0103867D0123800F058
:102430004E810E3800F0EF80401E6BD0401E00F041
:10244000A6803F38022840F23B81001F00F038810F
:102450000C38032840F2348140E1E87A202804D087
:10246000302802D0402805D014E020682968401A9E
:10247000206015E04020E072206800EE100A286815
:1024800000EE900AB8EEC00A30EE600A10EE100AB4
:10249000206005E0280001F040FD2168081A206056
:1024A000DFF89C09C0F80E40012032BDE87A2028F0
:1024B00004D0302802D0402807D016E02020E07257
:1024C00020682968401A206017E04020E0722068E8
:1024D00000EE100A286800EE900AB8EE400A30EECE
:1024E000600A10EE100A206007E02020E072280049
:1024F00001F013FD2168081A2060D1E7280001F0DF
:1025000093FD206800EE900A30EEC00A10EE100A2B
:102510002060C5E7E87A20281CD0302821D0402848
:1025200026D0482824D0602806D0622829D16020EF
:10253000E07228682060B3E76868002804D1602052
:10254000E07228682060F6E77FF03F0002F0D0FBE1
:102550000020AAE760682968401A04F0D9F9606091
:10256000E9E760682968401A04F0D2F96060E2E7A0
:10257000280001F0D2FC6168081A04F0C9F9606013
:10258000D9E77FF03F0002F0B3FB00208DE7E87A47
:10259000202823D0302828D040282DD048282BD0E0
:1025A000602810D0612802D0622805D02DE060207C
:1025B000E0726868606073E720682968401A04F078
:1025C000F1F92060F7E76020E072686860602068D9
:1025D0002968401A04F0E6F92060ECE720682968D1
:1025E000401A04F0DFF92060E5E720682968401A06
:1025F00004F0D8F92060DEE7280001F08EFC2168A5
:10260000081A04F0CFF92060D5E77FF03F0002F010
:102610006FFB002049E7E87A202834D0302839D0F1
:1026200040283ED048283CD0602817D0612802D0EE
:1026300062280CD03EE06068002802D168686060C3
:102640002EE77FF03F0002F053FB00202DE72068CB
:102650002968401A04F0A6F92060F1E760680028B4
:1026600008D16868606020682968401A04F09AF907
:102670002060E5E768680028F5D07FF03F0002F0B1
:1026800037FB002011E720682968401A04F08AF916
:102690002060D5E720682968401A04F083F920609B
:1026A000CEE7280001F039FC2168081A04F07AF915
:1026B0002060C5E77FF03F0002F01AFB0020F4E63F
:1026C000280001F06DFC2168081A2060E8E6280067
:1026D00001F023FC2188081A2080E1E67FF03F000A
:1026E00002F006FB0020E0E6EC86002038B5DFF8BB
:1026F000B805DFF8CC1B09780C2202FB0105DFF8D6
:10270000A805DFF8BC1B89780C2202FB010420001D
:1027100001F082FB002804D1280001F07DFB002895
:1027200005D07FF0140002F0E3FA00203AE0E07AEE
:1027300020380ED0103836D010385DD012386FD017
:102740004F38022864D9001F62D00C3803285FD9A3
:102750006EE0E87A202804D0302802D0402805D046
:1027600014E0206829684843206016E04020E072A9
:10277000206800EE100A286800EE900AB8EEC00A41
:1027800020EE200A10EE100A206006E0280001F07A
:10279000C4FB216800FB01F02060DFF8A406C0F84C
:1027A0000E40012032BDE87A202804D0302802D023
:1027B000402807D016E02020E072206829684843AE
:1027C000206018E04020E072206800EE100A2868BF
:1027D00000EE900AB8EE400A20EE200A10EE100A31
:1027E000206008E02020E072280001F096FB2168BC
:1027F00000FB01F02060D0E7280001F015FC206804
:1028000000EE900A20EE800A10EE100A2060C4E765
:10281000280001F0C5FB216800FB01F02060BCE747
:10282000280001F07AFB218811FB00F02080B4E73A
:102830007FF03F0002F05CFA0020B3E738B52DEDE1
:10284000028BDFF86404DFF8781A09780C2202FBA7
:102850000105DFF85404DFF8681A89780C2202FBBE
:102860000104200001F0D8FA002804D1280001F06A
:10287000D3FA002805D07FF0140002F039FA0020C6
:1028800051E0E07A20380ED010380CD010384DD0FE
:10289000123869D04F3802285ED9001F5CD00C383E
:1028A000032859D968E0280001F0BEFBB0EE408A49
:1028B000B5EE408AF1EE10FA04D0200001F0B4FB2E
:1028C00080EE088AB0EE480A03F035FBB5EE400A08
:1028D000F1EE10FA1DD1E87A202804D0302802D079
:1028E000402808D00DE02020E072B0EE480A03F046
:1028F00014FB206012E04020E07218EE100A206005
:102900000CE02020E072B0EE480A03F006FB2060E5
:1029100004E04020E07218EE100A2060DFF8200585
:10292000C0F80E400120BDEC028B32BD280001F042
:102930007BFBB0EE408AB5EE408AF1EE10FA08D08B
:10294000206800EE100A80EE080A10EE100A2060DF
:1029500001E000202060E1E7280001F021FB216870
:10296000B1FBF0F02060D9E7280001F0D6FA218809
:1029700091FBF0F02080D1E77FF03F0002F0B8F942
:102980000020D0E738B5C848DFF8341909780C22A0
:1029900002FB0105C448DFF8281989780C2202FBE4
:1029A0000104200001F038FA002804D1280001F0C9
:1029B00033FA002805D07FF0140002F099F90020C6
:1029C00045E0E07A20380ED010380CD010383FD0D7
:1029D000123855D04F38022848D9001F46D00C383D
:1029E000032843D956E0E87A202804D0302802D0C2
:1029F00040280ED01DE02868002807D020682968EC
:102A000090FBF1F201FB1200206001E00020206049
:102A100018E04020E072286800EE900A206800EE7E
:102A2000100AB8EEC00A03F0ACFA10EE100A2060EB
:102A300008E0280001F071FA216891FBF0F200FB38
:102A400012102060DFF8F803C0F80E40012032BDFC
:102A5000280001F0E9FAF0EE400A206800EE100AC2
:102A600003F08FFA10EE100A2060EBE7280001F067
:102A700097FA2168B1FBF0F200FB12102060E1E749
:102A8000280001F04AFA218891FBF0F200FB1210B5
:102A90002080D7E77FF03F0002F02AF90020D6E738
:102AA00038B58148DFF8181809780C2202FB0105B7
:102AB0007D48DFF80C1889780C2202FB0104200005
:102AC00001F0AAF9002804D1280001F0A5F9002896
:102AD00005D07FF0140002F00BF9002029E0E07A25
:102AE00020380ED0103825D010382BD012384ED0C8
:102AF0004F38022843D9001F41D00C3803283ED953
:102B00004DE02068002809D5280001F049FA216825
:102B1000494211FA00F04042206006E0280001F02E
:102B20003FFA216811FA00F02060C548C0F80E4055
:102B3000012032BD280001F033FA216811FA00F0BB
:102B40002060F2E72020E072206800EE100A03F017
:102B5000E4F920602068002809D5280001F020FA57
:102B60002168494211FA00F04042206006E0280046
:102B700001F016FA216811FA00F02060D5E728006C
:102B800001F00EFA216811FA00F02060CDE728006C
:102B900001F006FA218811FA00F02080C5E77FF0E5
:102BA0003F0002F0A5F80020C3E738B53E48DFF843
:102BB000101709780C2202FB01053B48DFF80017CB
:102BC00089780C2202FB0104200001F025F900287D
:102BD00004D1280001F020F9002805D07FF014006E
:102BE00002F086F8002027E0E07A20380ED0103876
:102BF00023D0103828D0123848D04F3802283ED978
:102C0000001F3CD00C38032839D946E02068002842
:102C100008D5280001F0C4F9216849420141484221
:102C2000206005E0280001F0BBF921680141216026
:102C30008348C0F80E40012032BD280001F0B0F9F1
:102C40002168C1402160F3E72020E072206800EE97
:102C5000100A03F062F920602068002808D52800D7
:102C600001F09EF92168494201414842206005E097
:102C7000280001F095F9216801412160D8E728007A
:102C800001F08EF92168C1402160D1E7280001F0F0
:102C900087F9218801412180CAE77FF03F0002F0D7
:102CA00027F80020C8E70000F07B002038B5DFF8E7
:102CB000980BDFF80C1609780C2202FB0105DFF8EF
:102CC000880BDFF8FC1589780C2202FB0104200038
:102CD00001F0A2F8002804D1280001F09DF8002896
:102CE00005D07FF0140002F003F800201EE0E07A27
:102CF00020380ED010380CD0103818D012382ED002
:102D00004F38022823D9001F21D00C3803281ED9A0
:102D10002CE03020E072280001F042F9216811FA1D
:102D200000F020604648C0F80E40012032BD30203F
:102D3000E072206800EE100A03F0EFF8206028002F
:102D400001F02EF9216811FA00F02060EAE728006E
:102D500001F026F9216811FA00F02060E2E728006E
:102D600001F01EF9218840182080DBE77FF03F004A
:102D700001F0BEFF0020D9E738B5DFF8CC0ADFF854
:102D8000401509780C2202FB0105DFF8BC0ADFF8C8
:102D9000301589780C2202FB0104200001F03CF878
:102DA000002804D1280001F037F8002805D07FF072
:102DB000140001F09DFF00201DE0E07A20380ED0C5
:102DC00010380CD0103817D012382BD04F380228BA
:102DD00021D9001F1FD00C3803281CD929E030202E
:102DE000E072280001F0DCF82168C140216014483D
:102DF000C0F80E40012032BD3020E072206800EEA5
:102E0000100A03F08AF82060280001F0C9F8216850
:102E1000C1402160EBE7280001F0C2F82168C14001
:102E20002160E4E7280001F0BBF8218840182080E9
:102E3000DDE77FF03F0001F05BFF0020DBE70000F3
:102E4000D082002010B5DFF8000ADFF8741489780A
:102E50000C2202FB0104200000F0DEFF002817D046
:102E6000200001F0EBF9002805D17FF0030001F00C
:102E70003FFF00200BE02068002803D020680321DA
:102E800002F03CFDDFF8A40CC0F80E40012010BD9C
:102E900001220021200001F058FCC0B20028F1D02E
:102EA000C0B201F025FF0020F1E738B5DFF898093E
:102EB000DFF80C1409780C2202FB0105DFF8880901
:102EC000DFF8FC1389780C2202FB0104200000F0DB
:102ED000A3FF002804D1280000F09EFF002805D0A1
:102EE0007FF0140001F004FF002011E0022229000D
:102EF000200001F02AFCC0B2002804D0C0B201F0CA
:102F0000F7FE002004E0DFF8240CC0F80E4001209A
:102F100032BD38B5DFF83009DFF8A41309780C2288
:102F200002FB0105DFF82009DFF8941389780C22F1
:102F300002FB0104200000F06FFF002804D12800EC
:102F400000F06AFF002805D07FF0140001F0D0FEE9
:102F5000002011E004222900200001F0F6FBC0B29D
:102F6000002804D0C0B201F0C3FE002004E0DFF866
:102F7000BC0BC0F80E40012032BD38B5DFF8C808E0
:102F8000CF4909780C2202FB0105DFF8BC08CC49C7
:102F900089780C2202FB0104200000F03DFF00288C
:102FA00004D1280000F038FF002805D07FF014007D
:102FB00001F09EFE002011E008222900200001F00F
:102FC000C4FBC0B2002804D0C0B201F091FE0020C2
:102FD00004E0DFF8580BC0F80E40012032BD10B5F8
:102FE000DFF86408B64989780C2202FB010420004E
:102FF00000F012FF002805D07FF0140001F078FEE9
:10300000002016E0200000F01BFF002802D0002066
:10301000207001E0012020701020E072DFF80C1B0E
:10302000D1F8160021780170DFF8000BC0F80E40CF
:10303000012010BD38B5DFF81008A14909780C222D
:1030400002FB0105DFF800089D4989780C2202FB8C
:103050000104200000F0E0FE002804D1280000F068
:10306000DBFE002805D07FF0140001F041FE0020B7
:103070001BE0200000F0E4FE002807D0280000F04C
:10308000DFFE002802D00120207001E00020207027
:103090001020E072DFF8941AD1F816002178017040
:1030A000DFF8880AC0F80E40012032BD38B5DFF8DD
:1030B0009807834909780C2202FB0105DFF888078D
:1030C0007F4989780C2202FB0104200000F0A4FE55
:1030D000002804D1280000F09FFE002805D07FF0D2
:1030E000140001F005FE00201BE0200000F0A8FE07
:1030F000002804D1280000F0A3FE002802D00120FF
:10310000207001E0002020701020E072DFF8FC1B2E
:10311000D1F8160021780170DFF8F00BC0F80E40EE
:10312000012032BD70B5DFF82007654909780C220F
:1031300002FB0105DFF81007614989780C2202FBC8
:103140000104200000F068FE002804D1280000F0EF
:1031500063FE002805D07FF0140001F0C9FD0020B7
:103160001CE0200000F06CFE0600F6B2280000F023
:1031700067FE90EA060F02D00120207001E00020D7
:1031800020701020E072DFF8841BD1F8160021783F
:103190000170DFF8780BC0F80E40012070BD10B54B
:1031A000DFF8A406464909780C2202FB0101DFF88A
:1031B0009806434A92780C2303FB0204200001F096
:1031C000FBF8C0B2002805D17FF03F0001F090FD70
:1031D000002013E01021E172C0B2012801D10120CA
:1031E00000E000202070DFF8241BD1F816002178C1
:1031F0000170DFF8180BC0F80E40012010BD10B5AB
:10320000DFF844062E4909780C2202FB0101DFF8A1
:1032100038062B4A92780C2303FB0204200001F0AD
:10322000CBF8C0B2002805D17FF03F0001F060FD6F
:10323000002013E01021E172C0B2012801D001206A
:1032400000E000202070DFF8C41AD1F816002178C1
:103250000170DFF8B80AC0F80E40012010BD10B5AB
:10326000DFF8E405164909780C2202FB0101DFF8BA
:10327000D805134A92780C2303FB0204200001F0C6
:103280009BF8C0B2002805D17FF03F0001F030FD6F
:10329000002013E01021E172C0B2022801D1012008
:1032A00000E000202070DFF8641AD1F816002178C1
:1032B0000170DFF8580AC0F80E40012010BD000070
:1032C000EC86002010B5DFF88005DFF8441A097895
:1032D0000C2202FB0101DFF87005DFF8342A927836
:1032E0000C2303FB0204200001F066F8C0B20028A2
:1032F00005D17FF03F0001F0FBFC002016E010211B
:10330000E172C0B2022802D0C0B2012801D101206E
:1033100000E000202070DFF8F419D1F816002178C1
:103320000170DFF8E809C0F80E40012010BD10B5AB
:10333000DFF81405DFF8D81909780C2202FB010127
:10334000DFF80405DFF8C82992780C2303FB020498
:10335000200001F031F8C0B2002805D17FF03F0015
:1033600001F0C6FC002013E01021E172C0B2042875
:1033700001D1012000E000202070DFF89019D1F881
:10338000160021780170DFF88409C0F80E40012092
:1033900010BD10B5DFF8B004DFF8741909780C22FD
:1033A00002FB0101DFF8A004DFF8642992780C2306
:1033B00003FB0204200000F0FFFFC0B2002805D18B
:1033C0007FF03F0001F094FC002016E01021E17234
:1033D000C0B2042802D0C0B2012801D1012000E00F
:1033E00000202070DFF82419D1F816002178017030
:1033F000DFF81809C0F80E40012010BD10B50020FC
:10340000DFF84404DFF8081989780C2202FB010474
:10341000200000F015FDDFF8F428D2F8161008702F
:10342000DFF8E808C0F80E400120C0B210BD38B582
:10343000DFF81404DFF8D81809780C2202FB010425
:10344000DFF80404DFF8C81889780C2202FB0105B4
:10345000DFF8F403DFF8B81849780C2202FB01000A
:10346000E07A50380ED00D3802280BD9233828D0F6
:10347000C01E26D07C383FD17FF0140001F038FC0C
:1034800000201DE01021280000F09FFC002805D13D
:103490007FF0030001F02CFC002011E000202870D8
:1034A000206800280BD02068B0F90000002804D460
:1034B0002068B0F90000022801DB012028700120FB
:1034C00032BD1021280000F080FC002805D17FF0DB
:1034D000030001F00DFC0020F2E7002028702068B6
:1034E000002808D020680838B0F90000001E022823
:1034F00001D301202870E2E77FF0140001F0F8FB0F
:103500000020DDE770B5DFF84003DFF804188978A4
:103510000C2202FB0104CC48DFF8F41749780C2296
:1035200002FB0105C848DFF8E81709780C2202FB06
:103530000106200000F070FC002805D07FF0140088
:1035400001F0D6FB002026E0200000F079FC0128E5
:1035500000D03500E97A200000F037FC002805D1C2
:103560007FF0030001F0C4FB002014E0E07A5F2844
:103570000AD1206802F0C0F82868002806D029681F
:10358000206802F03BF901E028682060DFF87C0742
:10359000C0F80E40012070BD38B50024AA48DFF8FD
:1035A000701789780C2202FB0105E87A002801D106
:1035B00001241EE0E87A502808D0E87A5D2805D07A
:1035C000E87A5E2802D0E87A5F2806D128680028C9
:1035D00001D101240DE000240BE0E87A802802D01C
:1035E000E87A832805D12868002801D1012400E069
:1035F00000241021280000F0E8FB002805D17FF00E
:10360000030001F075FB002012E0E4B2002C02D0B0
:103610000120287001E000202870DFF8F016D1F8B2
:10362000160029780170DFF8E406C0F80E5001207A
:1036300032BD38B500248448DFF8D41689780C22CE
:1036400002FB0105E87A002801D101241EE0E87A96
:10365000502808D0E87A5D2805D0E87A5E2802D0A4
:10366000E87A5F2806D12868002801D101240DE0FE
:1036700000240BE0E87A802802D0E87A832805D17C
:103680002868002801D1012400E00024102128002E
:1036900000F09BFB002805D17FF0030001F028FB20
:1036A000002012E0E4B2002C02D00020287001E0DB
:1036B00001202870DFF85416D1F81600297801701F
:1036C000DFF84806C0F80E50012032BD80B55FF02B
:1036D000FF3001F00DFB002002BDF8B55A48DFF8BD
:1036E000301689780C2202FB01045748DFF82016B7
:1036F00009780C2202FB0105002001F01DFF0700E4
:10370000380001F0F9FF0022DFF80816380002F057
:1037100066F820683B000022082102F020F90D2104
:10372000380002F055F8380002F077FD380001F05B
:10373000E3FF0022DFF8E015380002F050F8697965
:10374000380002F045F83A21380002F041F8302103
:10375000380002F03DF8287910F13001C9B2380084
:1037600002F036F80D21380002F032F8380002F08D
:1037700054FD380001F0C0FF0022DFF8A01538002A
:1037800002F02DF82668002E05D17FF0150001F01B
:10379000AFFA00201DE0280000F00CFBC0B2FF28AB
:1037A00005D17FF0140001F0A3FA002011E000978A
:1037B000002332002979687903F041F90D2138009E
:1037C00002F006F8380002F028FD380001F035FF5D
:1037D0000120F2BD80B55FF0FF3001F089FA0020D2
:1037E00002BD80B55FF0FF3001F082FA002002BD1B
:1037F00080B55FF0FF3001F07BFA002002BD80B59C
:103800005FF0FF3001F074FA002002BD80B55FF078
:10381000FF3001F06DFA002002BD80B5DFF8F00442
:10382000008803F069FADFF8F8140868002807D068
:10383000DFF8EC040168DFF8D8040088C0B28847DC
:10384000012002BD01207047F07B002080B5B74900
:10385000D1F8120000F073FDB449D1F8160000F061
:103860006EFDB248D0F812100868802808D3DFF83F
:10387000B8249168884203D201F01EF9012004E0C7
:103880007FF0020001F034FA002002BD80B5A749A4
:10389000D1F8120000F053FDA449D1F8160000F051
:1038A0004EFDA249D1F82900A04991F8271011F046
:1038B000FE019E4A82F82710802808D3DFF868248A
:1038C0009168884203D201F0F7F8012004E07FF00C
:1038D000020001F00DFA002002BD10B5DFF830142F
:1038E000086802F0DCFA0400802C04D3DFF83814F6
:1038F0008868A04205D27FF0020001F0F9F90020AB
:1039000029E0DFF80814086803F039FB84421DD26F
:10391000DFF8F813D1F81200A321C17201F0C7F843
:10392000DFF8E823D2F812100860DFF8E013D1F8CE
:10393000160000F0DDFCDFF8D413D1F8120000F01F
:10394000D7FC200001F0B8F8012004E07FF002006D
:1039500001F0CEF9002010BD10B5DFF8D003DFF87C
:10396000B01389780C2202FB0100C17A852902D1AB
:103970000168002901D1002039E000F011FB0400AA
:10398000802C04D3DFF8A0138868A04205D27FF012
:10399000020001F0ADF9002029E0DFF8701308689B
:1039A00003F0EDFA84421DD2DFF86013D1F8120063
:1039B000A321C17201F07BF8DFF85023D2F8121076
:1039C0000860DFF84813D1F8160000F091FCDFF82A
:1039D0003C13D1F8120000F08BFC200001F06CF8D1
:1039E000012004E07FF0020001F082F9002010BD08
:1039F00070B5DFF81C13086802F051FA80B202F0CB
:103A00000FFD04002000002805D17FF0280001F000
:103A10006FF900201AE0C64EC24D280000F0CAF926
:103A2000C0B2FF2805D17FF0140001F061F9002039
:103A30000CE0B648C0F83E60B4482979C0F83A10A6
:103A40000020B24981F83800A047012070BD80B540
:103A5000B648AF4989780C2202FB0100C17A85295A
:103A600002D10168002901D100201BE000F098FA82
:103A700080B202F0D5FC010000290ED0AC49A34A67
:103A8000C2F83E10A1490022C1F83A2000219F4A05
:103A900082F838108047012004E07FF0280001F010
:103AA00027F9002002BD10B59949086802F0F7F91E
:103AB0000400802C03D39C498868A04205D27FF083
:103AC000020001F015F900200BE09049086803F0AE
:103AD00056FA844204D2200000F0EEFF012000E0FC
:103AE000002010BD10B59148894989780C2202FB4D
:103AF000010000F055FA0400802C03D38A4988683D
:103B0000A04205D27FF0020001F0F2F800200BE0A5
:103B10007E49086803F033FA844204D2200000F0A2
:103B2000CBFF012000E0002010BD0000D08200206B
:103B300010B57749086802F0B2F90400802C03D36D
:103B400079498868A04205D27FF0020001F0D0F8E0
:103B5000002011E06D49086803F011FA84420AD28E
:103B60006A49D1F816000078002802D0200000F041
:103B7000A3FF012000E0002010BD10B56B48644990
:103B800089780C2202FB010000F00AFA0400802C64
:103B900003D365498868A04205D27FF0020001F096
:103BA000A7F8002011E05949086803F0E8F98442B9
:103BB0000AD25649D1F816000078002802D0200019
:103BC00000F07AFF012000E0002010BD10B5504940
:103BD000086802F064F90400802C03D35249886815
:103BE000A04205D27FF0020001F082F8002011E02F
:103BF0004649086803F0C3F984420AD24349D1F820
:103C000016000078002802D1200000F055FF0120A6
:103C100000E0002010BD10B544483D4989780C22D1
:103C200002FB010000F0BCF90400802C03D33E49E4
:103C30008868A04205D27FF0020001F059F8002008
:103C400011E03249086803F09AF984420AD22F49F8
:103C5000D1F816000078002802D1200000F02CFFD7
:103C6000012000E0002010BD10B52949086802F0CD
:103C700016F9040000F01BFF10EB8404802C03D322
:103C800029498868A04205D27FF0020001F030F88F
:103C9000002011E01D49086803F071F984420AD23E
:103CA0001A49D1F816000078002802D0200000F050
:103CB00003FF012000E0002010BD10B51449086882
:103CC00002F0EDF8040000F0F2FE10EB8404802C0A
:103CD00003D315498868A04205D27FF0020001F0A5
:103CE00007F8002011E00949086803F048F9844208
:103CF0000AD20649D1F816000078002802D1200027
:103D000000F0DAFE012000E0002010BDD08200208B
:103D1000EC860020985301083854010840540108EB
:103D200010860020F87C00204C810020F07B0020D1
:103D3000987C002080B500F0ACFF012002BDF0B4FB
:103D4000016844688368091801EB5402E40748BF1E
:103D50004B440C3091422BD011F8014B14F0030569
:103D600004BF11F8015BED1C26090F2E07D111F8D5
:103D7000016B0F3603E011F8017B03F8017B6D1E28
:103D8000F9D1002EE6D0A40811F8015B04F0030479
:103D9000032C08BF11F8014B05EB04241C1BB51CB8
:103DA000D8D014F8016B03F8016B6D1EF9D1D1E77F
:103DB000F0BC704780B5C17AC22901D0FF2003E072
:103DC0000179407902F000FE02BD38B504000D0013
:103DD000002C01D100201EE0EDB25F2D0ED1E07A63
:103DE0005F2802D12068002804D1012001F0A4FB43
:103DF000206002E0206801F07FFC0AE0E07A5F28A2
:103E000007D12068002804D0206801F016FC0020AB
:103E10002060E572012032BDC17A502908D0C17AF4
:103E20005D2905D0C17A5E2902D0C17A5F2904D10B
:103E30000168002901D0012000E00020C0B27047D5
:103E400038B504000025002C02D12800C0B263E080
:103E50002000FFF7E1FF002808D0EDB2002D01D0CF
:103E6000012500E000252800C0B255E0E07A0028D6
:103E700016D0103816D0103816D010381BD0103885
:103E800020D0203838D0401E28D0401E2DD03F38BA
:103E9000022837D9001F35D00C38032832D938E032
:103EA000002537E0257835E02068002801D100257D
:103EB00000E001252EE02068002801D1002500E067
:103EC000012527E0206800EE100AB5EE400AF1EE69
:103ED00010FA01D1002500E001251BE060680028F0
:103EE00001D1002500E0012514E02068002801D15F
:103EF000002500E001250DE02068002801D1002503
:103F000000E001252068002801D1002500E00125FE
:103F100000E000252800C0B232BD10B50400002C1E
:103F200001D100203BE02000FFF776FF002801D000
:103F3000002034E0E07A103816D0103816D010384F
:103F400014D0103814D0203820D0401E16D0401E77
:103F500016D023381CD01C3802281BD9001F19D0BA
:103F60000C38032816D919E0207818E0206816E0EC
:103F7000206800EE100A01F0D0FF10E060680EE04B
:103F800020684FF47A71B0FBF1F008E0206806E099
:103F9000206804E020688000800800E0002010BD58
:103FA00010B50400002C01D100203BE02000FFF7F9
:103FB00033FF002801D0002034E0E07A103816D01A
:103FC000103816D0103814D0103814D0203820D023
:103FD000401E16D0401E16D0233820D01C38022890
:103FE00019D9001F17D00C38032814D919E02078EC
:103FF00018E0206816E0206800EE100A01F08DFF3E
:1040000010E060680EE020684FF47A71B0FBF1F0C8
:1040100008E0206806E020688000800802E0206850
:1040200000E0002010BD000010B50400002C02D1FB
:104030009FED2D0A57E02000FFF7EEFE002802D08A
:104040009FED290A4FE0E07A103816D010381AD0C8
:10405000103818D010381CD020382ED0401E1CD05C
:10406000401E20D023382ED01C38022831D9001F02
:104070002FD00C3803282CD933E0207800EE100A1A
:10408000B8EE400A2FE0206800EE100AB8EEC00A31
:1040900029E0206800EE100A25E0606800EE100AB2
:1040A000B8EE400A1FE020684FF47A71B0FBF1F0DF
:1040B00000EE100AB8EE400A15E0206800EE100A83
:1040C000B8EE400A0FE0206800EE100AB8EE400A91
:1040D00009E020688000800800EE100AB8EE400A6F
:1040E00001E09FED010A10BD0000000070B5060060
:1040F00008001500002E01D0002D01D128009CE001
:10410000F17A103921D0103926D010392CD010393D
:1041100032D010395DD0891E4FD00B39022958D9C1
:10412000C91E41D0491E2FD0491E35D0233970D029
:104130001C3902295BD9091F59D00C39032956D9DA
:104140000F395DD030396CD073E02A000100C9B25C
:10415000307801F02BFC6FE033682A000100C9B20F
:10416000180001F065FC67E033682A000100C9B25D
:10417000180001F07EFC5FE0316800EE101A2900A3
:10418000C0B201F0BFFC57E073682A000100C9B259
:10419000180001F028FD4FE033682A000100C9B281
:1041A000180001F08EFD47E0316874682B000200B2
:1041B000D2B2200001F03AFE3EE0C0B2002802D0A8
:1041C000280001F099FAB6F90010280001F00FFB61
:1041D00032E0C0B2002802D0280001F08DFA306829
:1041E000002803D03168280001F008FB24E0336880
:1041F0002A000100C9B29800800801F03AFC1BE0D7
:1042000033682A000100C9B29800800801F031FC2F
:1042100012E033682A000100C9B2180001F029FC3D
:104220000AE033682A000100C9B2180001F021FC3D
:1042300002E0280001F060FA280070BD38B50400E3
:10424000E07A503802D00D38012811D825685F2156
:104250002000FFF7BAFD002801D1002009E0206806
:1042600001F04AFA002D03D02068290001F0C6FAB7
:10427000012032BD70B504000020002C05D14A4950
:104280007FF00A020A60C0B212E0484D0120002609
:1042900001E00C35761C182E09DA2100F140C9071F
:1042A000F7D5280000F024F8C0B20028F1D1C0B240
:1042B00070BD70B504000020002C05D13A497FF094
:1042C0000A020A60C0B212E0394D0120172601E04F
:1042D0000C3D761E002E09D42100F140C907F7D508
:1042E000280000F02CF8C0B20028F1D1C0B270BD97
:1042F00030B4002805D12C487FF00A01016000206D
:104300001BE02C4A516A2B4BDA6B891A294BDA6B6A
:104310000C32284C236B274D6C6DA418A34205D298
:1043200021487FF020010160002006E0214BDA6384
:1043300082688A6002680A60012030BC704770B5EC
:104340000400002C05D118487FF00A01016000200C
:1043500028E01849C86B0C2805D213487FF00D01DE
:10436000016000201EE01349C86BB0F10C05114933
:10437000486A461BE07A5F280DD1F07A5F2807D1A2
:1043800020683168884206D0206801F056F902E0C2
:10439000206801F052F90748C563B068A060306832
:1043A0002060012070BD0000287D0020F07B0020EF
:1043B000047D0020CC81002038B52DED048B040055
:1043C0000D00E07A103825D010382DD0103873D079
:1043D000103800F0B980103800F08781801E00F09E
:1043E0007A810B38022840F28081C01E00F02081C3
:1043F000401E00F0F180401E00F004813F3802288A
:1044000040F22181001F00F01E810C38032840F289
:104410001A8195E1E87A102804D12978207801F0F2
:10442000E4FD00E000208CE1E87A20380ED010385E
:1044300011D0103814D008381DD05938022834D97A
:10444000001F32D00C3803282FD933E029682068A8
:1044500001F0BBFD2FE02968206801F0B6FD2AE0DD
:10446000286800EE900A206800EE100AB8EEC00A34
:1044700001F0DBFD1FE0286800EE100A256810EE51
:10448000100A01F07BFE41EC110BB0EE418AF0EE18
:10449000618A280001F05AFE41EC100BB0EE481A78
:1044A000F0EE681A01F0D9FD05E02968206801F0F6
:1044B0008CFD00E0002044E1E87A20380ED010386E
:1044C00011D0103814D008381DD05938022834D9EA
:1044D000001F32D00C3803282FD933E02968206818
:1044E00001F073FD2FE02968206801F07EFD2AE0CD
:1044F000286800EE900A206800EE100AB8EE400A24
:1045000001F093FD1FE0286800EE100A256810EE08
:10451000100A01F033FE41EC110BB0EE418AF0EECF
:10452000618A280001F01CFE41EC100BB0EE481A25
:10453000F0EE681A01F091FD05E02968206801F0AD
:1045400054FD00E00020FCE0E87A202806D0302866
:104550000FD0402818D048281FD03BE0286800EE34
:10456000900A206800EE100AF8EEE00A01F05DFD06
:1045700031E0286800EE900A206800EE100AF8EE9C
:10458000600A01F052FD26E0286800EE900A2068DB
:1045900000EE100A01F049FD1DE0286800EE100A47
:1045A000206809EE100A10EE100A01F0E7FD41EC58
:1045B000110BB0EE418AF0EE618A19EE100A01F09B
:1045C000DDFD41EC100BB0EE481AF0EE681A01F078
:1045D00044FD00E00020B4E0E87A602806D06128BD
:1045E0000ED16968606801F000FD0AE028680028C3
:1045F00004D16968606801F0F8FC00E0002000E088
:1046000000209EE0E87A602806D062280ED1296852
:10461000206801F0EAFC0AE06868002804D12968F3
:10462000206801F0E2FC00E0002000E0002088E0CB
:10463000E87A6038022804D82968206801F0E5FC8F
:1046400000E000207DE0E87A20380ED0103811D04C
:10465000103814D008381DD05938022834D9001F1A
:1046600032D00C3803282FD933E02968206801F0B4
:10467000ACFC2FE02968206801F0B7FC2AE028682C
:1046800000EE900A206800EE100AB8EE400A01F031
:10469000CCFC1FE0286800EE100A256810EE100A16
:1046A00001F06CFD41EC110BB0EE418AF0EE618A35
:1046B000280001F055FD41EC100BB0EE481AF0EE69
:1046C000681A01F0CAFC05E02968206801F08DFC39
:1046D00000E0002035E0E87A522804D129882088BB
:1046E00001F083FC00E000202BE02800FFF794FBA2
:1046F000002801D1002025E0206800281ED028686D
:1047000000281BD0206821680022C978081802718F
:10471000286829680022C978081802712868226868
:10472000011D101D02F092FC012801DB042006E0AF
:10473000002801D5022002E0012000E0002000E076
:104740000020C0B2BDEC048B32BD30B4002802D1D1
:104750007FF00A006AE000230024C37A203B0CD0DB
:10476000103B1CD0223B1ED04F3B022B19D91B1FE4
:1047700017D00C3B032B14D919E00368002B02D58A
:104780007FF03F0052E03023C3720368D2B2012AA7
:1047900014D1C17A30290DD1D94301600CE00368EE
:1047A000F4E70368F2E73023C3720388EEE77FF093
:1047B0003F003BE0D9430160002037E0002902D1EF
:1047C0007FF00A0032E0CC7A203C0CD0103C20D0A4
:1047D000223C22D04F3C022C1DD9241F1BD00C3C64
:1047E000032C18D91BE00C68002C02D57FF03F0089
:1047F0001CE00C68D2B2022A04D0042A18D0082A7D
:1048000021D02BE0C17A30290CD114EA03010160D8
:104810000BE00C68EEE70C68ECE70C88EAE77FF049
:104820003F0003E014EA03010160002030BC704740
:10483000C17A302903D154EA0301016002E054EA4D
:1048400003010160F1E7C17A302903D194EA030141
:10485000016002E094EA03010160E6E77FF03F00B7
:10486000E4E78268521C8260426832B10268531CDD
:10487000036011704168491E4160704710B5040023
:10488000200000F09BFA200002F002FC02F088FDFC
:10489000DFF80005DFF800150863DFF80005DFF832
:1048A000F814C1F81200DFF8F804DFF8EC14C1F8CE
:1048B000160000F009F8012010BD80B502F034FCAC
:1048C00000F05CFB012002BD0020DFF8CC14487230
:1048D0000020DFF8C4140872DFF8BC040021C0F81F
:1048E0000E100020DFF8B01481F826000020DFF859
:1048F000A814A1F827000020DFF89C14C885002028
:10490000DFF8941481F82D00DFF88C040021C0F842
:104910001A10DFF884040021C0F81E10012070472F
:1049200080B5DFF874241060DFF86C04416000F09B
:1049300024F8C0B2002807D0DFF86804016BDFF864
:104940006404C06A00F08FFAC0B2002801D000F001
:104950004CF8C0B2002801D000F06CF8C0B202BD23
:1049600080B500200020009080230022DFF834145E
:10497000002000F0D1F9C0B202BD80B5FFF7F0FF12
:10498000C0B200282FD0DFF81C14097843290ED1BB
:10499000DFF810144978522909D1DFF80814897812
:1049A000412904D1DFF8FC13C978422901D0002045
:1049B0001AE0DFF8F0138968B1F1807F01D300209D
:1049C00012E0DFF8E013097F00290CD1DFF8D413DF
:1049D000497F002907D10A21DFF8C8231177042174
:1049E000DFF8C0235177C0B202BD38B5DFF8B40399
:1049F000C46A002C01D101201BE0B4F5806F01D9FD
:104A00004FF48064DFF8A0030169091DA4000120B0
:104A100000902300DFF88C038268002000F07CF90E
:104A2000DFF88403C568211D0022280000F0E4FCA3
:104A3000012032BD10B582B00020DFF86C1308876A
:104A40000020DFF864134887DFF85803006B002864
:104A500001D1012021E0B0F5806F01D94FF48060D1
:104A6000DFF840138968DFF83C23D26A11EB820239
:104A7000DFF83433596901230093C300002000F0AC
:104A80004BF9DFF82413486BDFF81C138C694100E5
:104A90000022200000F0B0FC012016BDDFF8F80273
:104AA000407A7047DFF8F012D1F822007047DFF843
:104AB000E812D1F81A007047DFF8DC12C1F81A00CA
:104AC0000120704780B5DFF8D012D1F81A00DFF866
:104AD000C812C1F82200DFF8C00290F826000028B2
:104AE00008D0DFF8B412D1F82200DFF8C01202F0CB
:104AF000A1FB0BE0DFF8A002D0F8222000200090FC
:104B00000423DFF8A812002000F006F9C0B202BDAD
:104B1000DFF89802C078002809D0DFF89002C0784A
:104B2000FF2804D0DFF88402C078A72801DB00202A
:104B300000E00120704780B5DFF85C12D1F81A0060
:104B4000DFF860128968884201D3002010E0FFF787
:104B5000B9FF00280BD0DFF84012D1F81A00DFF8B7
:104B60003812001DC1F81A00FFF7D2FF00E0002044
:104B700002BD38B50024FFF7CBFF002826D0DFF8B0
:104B80003002DFF82812C978052202FB0100D0F8B4
:104B90000150DFF81C02DFF81412C978052202FB6D
:104BA000010000782900002908D0C0B250F48040EC
:104BB00080B202F0A1F8A84704000EE05FF0FF30D9
:104BC00000F096F800207449487206E05FF0FF306C
:104BD00000F08EF80020704948722000C0B232BD4B
:104BE00010B582B06C48447A02F0E5F8002827D06E
:104BF000694890F8270010F00100002820D168468D
:104C000002F066F900281AD0FFF751FF6249C1F897
:104C10002900614890F8270050F001005E4981F8B2
:104C200027005D49D1F81600FFF762FB5A49D1F819
:104C30001200FFF75DFB0098FFF73EFF00E0002445
:104C40002000C0B216BD80B5002000F059F903F075
:104C5000ADF9FFF739FE50480068002803D1002065
:104C60004D49487212E04C488021C0F81A10514852
:104C7000007A002807D04B488168002002F05FFAD4
:104C8000454981F826000120434948724248407A4C
:104C900002BD0020404948720120704730B583B002
:104CA00004000D00002D01D1002020E00120009023
:104CB0000123220001A9002000F02EF8C0B2002834
:104CC00001D1C0B213E09DF8041000290ED00120DC
:104CD00000909DF80430621C291D002000F01CF893
:104CE000C0B2002802D09DF80410E970C0B23EBDE9
:104CF00010F1630F02D13049086802E02649C1F87B
:104D00000A002021244A126BD1722349096B0860E2
:104D100070472949086870472DE9F0410C001500DB
:104D20001E00C0B2002802D001280CD00FE01A48A3
:104D3000D0F80080404602F034F9070017F1010F67
:104D400007D1002024E01448D0F80480F2E70020C6
:104D50001EE0AF4209D000222900404602F033F99C
:104D600010F1010F01D1002012E032002100404675
:104D700002F03FF910F1010F01D1002008E0069880
:104D8000002804D000223900404602F01CF901201E
:104D9000BDE8F081EC7C0020D0820020107D002056
:104DA0001C7D00204C810020CC810020EC8600205E
:104DB0009473002028820020287D002080B501689F
:104DC000DFF82C2611604268DFF824365A60026949
:104DD000DFF81C365A63DFF818269160DFF81026DA
:104DE000D160DFF80C261161DFF804265161DFF88D
:104DF00000269161DFF8F825D161DFF8F425116212
:104E0000DFF8EC150968DFF8E825526851184269A7
:104E1000DFF8DC359A64DFF8D825926C7FF0030365
:104E200003FB0211DFF8C825D1620022DFF8C0358C
:104E3000DA640022DFF8B8351A658269DFF8B00558
:104E40000264DFF8AC05006C7FF0030202FB001186
:104E5000DFF89C0581620839DFF894054162012082
:104E600000F04EF802BD10B40022DFF884351B6854
:104E7000401CB0F5806F01D94FF48060B1F5806FB0
:104E800001D94FF48061DFF86845E36013EB8003DC
:104E900012EB8002DFF85845236113EB800312EB1D
:104EA0008002DFF84C05436113EBC10312EBC10232
:104EB000DFF83C058361DFF83805406B13EB4003F6
:104EC000DFF82C05406B12EB4002DFF82405C361CC
:104ED000DFF81C054068801AC008DFF81415086365
:104EE000DFF80C054068904207D27FF00100DFF840
:104EF0000415C1F83801002000E0012010BC704703
:104F000038B504000020DFF8E814C8630020DFF89B
:104F1000E01448650020DFF8D81488650020DFF829
:104F2000D01408870020DFF8C81448870020DFF875
:104F3000C014486400F0D0FAD0210022DFF8B45445
:104F4000280000F059FA002007E0411CDFF8A424F3
:104F50000C2303FB00229172401C1A28F5DBE4B2FB
:104F6000002C09D0DFF8880441680022DFF88004B3
:104F70000468200000F040FA012032BD80B500F046
:104F8000ABFA012002BD10B5002807D17FF00A005E
:104F9000DFF86014C1F8380100202CE0DFF850245D
:104FA000526D8A18DFF84834DB6B9A18DFF840340A
:104FB0005B689A4207D37FF01F00DFF83814C1F80E
:104FC0003801002017E0B122C272DFF82424D26930
:104FD000DFF81C345B6D9A1802604160DFF8102422
:104FE000526D8A18DFF808345A65046800222000E0
:104FF00000F002FA012010BD002807D17FF00A005E
:10500000DFF8F013C1F83801002029E00168002919
:1050100002D04168002901D1012021E0DFF8D0133E
:10502000496D002905D04168DFF8C423526D8A42DA
:1050300007D27FF00B00DFF8BC13C1F83801002065
:105040000EE04168DFF8A823526D511ADFF8A02363
:1050500051650021C17200210160002141600120E1
:1050600070472DE9F0470500884691469A46089C0E
:10507000E4B204FB08F717F1080003F033FE060062
:10508000002E01D100201CE0C6F8048000203080F2
:105090001FFA89F9B9F1000F08D05FFA8AFABAF15C
:1050A0004D0F03D159F40040708002E086F803A050
:1050B000B470083600223900300000F09DF92E60EF
:1050C0000120BDE8F08780B5002801D100201DE057
:1050D0000838B0F90010002902D44168002907D12E
:1050E0007FF00C00DFF80C13C1F8380100200DE050
:1050F000B0F90010012902DB0188491E0180B0F9D6
:105100000010002901D103F048FF012002BD2DE964
:10511000FC4707000D001E00002A02D17FF014009A
:1051200019E00A9C012A05D0C0F09080032A46D0DD
:1051300013D38BE0E4B200943300DBB20022296881
:1051400001A8FFF78EFF002802D17FF00C0002E0DB
:10515000019838600020BDE8F687042000904123C4
:105160000022296801A8FFF77CFF002802D17FF008
:105170000C00F0E701983860019F5FF000080BE039
:10518000019838603F1D0198083801900198C67059
:105190000198847018F10108286880450ED220001B
:1051A000C0B200903300DBB20022696801A8FFF7AB
:1051B00058FF0028E4D17FF00C00CCE7CAE70420B8
:1051C000009041230022296801A8FFF74AFF002828
:1051D00002D17FF00C00BEE701983860019F5FF0BC
:1051E000000801E018F10108286880452DD204204C
:1051F000009041230022696801A8FFF732FF0028D0
:1052000002D17FF00C00A6E7019838603F1DDDF861
:1052100004905FF0000A06E00198C9F8000019F157
:1052200004091AF1010A68688245DBD22000C0B285
:1052300000903300DBB28322A96801A8FFF711FFB9
:105240000028E9D17FF00C0085E783E77FF03C0080
:1052500081E730B4002A02D17FF03C001EE0002B31
:1052600002D01C68002C02D17FF0180016E0012A41
:1052700004D06ED3032A36D012D36AE01A68083AF3
:1052800054680D68A54202D37FF00C0006E01C684C
:105290000968927802FB01410160002030BC704730
:1052A0001A68083A54680A68A24202D37FF00C00D8
:1052B000F4E71A680B6812EB83031A68002A02D11C
:1052C0007FF01800EAE71A68083A54684D68A5426A
:1052D00002D37FF00C00E1E71B684968927802FB7B
:1052E00001310160D9E71A68083A54680A68A24295
:1052F00002D37FF00C00D1E71A680B6812EB83032E
:105300001A68002A02D17FF00C00C7E71A68083A31
:1053100054684A68A24202D37FF00C00BEE71A68C4
:105320004B6812EB83031A68002A02D17FF0180041
:10533000B4E71A68083A54688D68A54202D37FF032
:105340000C00ABE71B688968927802FB01310160B1
:10535000A3E77FF03C00A1E7002806D57FF03C00E2
:105360002449C1F83801002018E02149496C204A3D
:10537000126C914206DB7FF001001E49C1F8380132
:1053800000200BE01A49896A194A526C41F8220040
:105390001748406C401C164948640120704700299A
:1053A00001D0002806D17FF001001249C1F8380170
:1053B00000201BE00E4A526C8A4214DA7FF0010092
:1053C0000C49C1F83801002010E0491E084A526C0F
:1053D000521E074B5A64064A926A054B5B6C52F8A0
:1053E000232040F821200029EFD101207047000040
:1053F000CC810020F07B002062F30F2262F31F4279
:10540000401810F0030308D0C91A1FD3DB0748BFA8
:1054100000F8012D28BF20F8022D130030B41446E7
:105420001546103928BF20E93C00FAD8490728BFA3
:1054300020E90C0048BF40F8042D890028BF20F85F
:10544000022D48BF00F8012D30BC7047C91818BFA5
:1054500000F8012DCB0728BF00F8012D70477047D9
:10546000FEE7FEE7FEE7FEE77047704770477047CC
:10547000002200E0401C0378002B05D0521C0029BC
:10548000F8D08A42F6DBFFE71000704738B5040019
:105490000025E4B2601D03F025FC050000202880F3
:1054A000AC700020E870E4B2611C00222C1D2000CA
:1054B000FFF7A2FF280032BD80B5B0F90010012926
:1054C00002DB0188491E0180B0F90010002902D1D9
:1054D00003F063FD002002BD10B5DFF80405C46CC5
:1054E000DFF8FC14886C002804D0DFF8F414C86AD4
:1054F000002815D100201EE0DFF8E414C86A10EB84
:10550000840050F8040C002809D003F046FDDFF8B1
:10551000D014C86A002110EB840040F8041C641EFB
:10552000002CE9D1DFF8B8040021C164DFF8B00431
:1055300000210165012010BD38B504000020DFF80E
:10554000A024D16CDFF898349A6C914204DADFF829
:105550009024916C002901D100206DE0DFF88024B7
:10556000116D01291CDBDFF87824916CDFF87034B1
:105570001A6D914214DBDFF86824D16ADFF86034D9
:105580001A6D11EB820151F8045CB5F90010002985
:1055900006D1DFF84C14086DDFF8441400220A65C8
:1055A000002811D1DFF83814C86C00E0401E002834
:1055B0000AD0DFF82C24D16A11EB800151F8045C89
:1055C000B5F900100029F1D100281ED1DFF8102410
:1055D000D16CDFF80C349A6C914216DA4FF4827079
:1055E00003F080FB0500DFF8F813C86ADFF8F0234A
:1055F000D16C40F82150DFF8E813C86CDFF8E013F5
:10560000401CC864DFF8D813C86C012813DBDFF82E
:10561000D013086540422880FF20A8700020E87061
:10562000E4B2002C05D0FF2100222C1D2000FFF742
:10563000E3FE280000E0002032BDDFF8A423916CD7
:10564000DFF89C33DA6C91420ADBDFF89423916C2B
:10565000002905D0002803D0B0F90010012901DB92
:10566000002048E0B0F900104942002914D0DFF8CA
:1056700070339A6C8A420FD3DFF86433DA6A12EB24
:10568000810252F8042C904206D100220280DFF8F9
:105690005003016501202EE0DFF84423116D00293D
:1056A00011D0DFF83C339A6C8A420CD3DFF83033E8
:1056B000DA6A12EB810151F8041C884203D10021FF
:1056C0000180012017E0DFF81823D16C00E0491EAB
:1056D00000290FD0DFF80833DA6A12EB810252F8A2
:1056E000042C9042F3D100220280DFF8F40201651D
:1056F000012000E00020704738B50400002C01D1E3
:10570000002008E00020E070A1780022251D28007C
:10571000FFF772FE200032BD8378C9B2994201D3EF
:10572000002009E0C9B20B181A71C278C9B24B1C2B
:105730009A4201DA491CC170704770B504000D002F
:1057400016001800A178EDB28D4201D300201DE0B3
:10575000C0B2002803D1FF213000FFF789FE211DD0
:10576000EDB2691805E032780A70761C401E491CBB
:105770006D1CA278EDB2954202D2C0B20028F2D1DF
:10578000E078EDB2A84200D2E570200070BD81B093
:105790008378C9B2994201D3002017E0ADF8002008
:1057A0009DF80020C9B20B181A719DF80120002A3B
:1057B00005D0491C9DF80120C9B20B181A71C27896
:1057C000C9B24B1C9A4201DA491CC17001B0704742
:1057D00080B50A00D2B2C178FFF79EFF02BD80B546
:1057E0001300DBB20A00C178FFF7A7FF02BD80B546
:1057F0000A0012B2C178FFF7CAFF02BD80B5CB78AC
:105800000A1DC178FFF799FF02BD2DE9F843070093
:105810008846914627245C255FFA89F9B9F1000F83
:1058200003D13C707C7002204FE05FFA89F90026BA
:10583000B9F1000F04D1FF214046FFF719FE814660
:10584000002098F8001020291BDAC0B2002802D0EE
:105850003C707F1C761C3D707F1C782038707F1C4C
:1058600098F80000C0B2000900F06FF838707F1C93
:1058700098F8000000F069F838707F1C361D002091
:1058800016E0C0B2002803D13C707F1C761C0120BA
:1058900098F80010E4B2A14205D13C707F1C3C7026
:1058A0007F1CB61C04E098F8001039707F1C761C31
:1058B00018F10108B9F10109B9F1010FC1DAC0B25B
:1058C000002801D03C70761C3000BDE8F28370B532
:1058D00004000D00261DD2B2002A03D02000FFF7DD
:1058E0000BFF01E0E0788619EA78291D3000FFF708
:1058F0008CFFE1784018E070200070BD30B4C278B1
:10590000031D0EE0E4B2B4F141051A2D07D2C9B26D
:10591000022902D0C9B2032901D120341C705B1CBA
:10592000521ED2B2002A0ED01C78E4B2B4F1610546
:105930001A2DE7D2C9B2012902D0C9B20329EED18A
:10594000203C1C70EBE730BC704710F00F00C0B279
:105950000A2801DB373000E03030C0B270472DE953
:10596000F04104000D001E00D2B2002A02D0300027
:10597000FFF7C2FEF0782818B178814201D23000DA
:1059800012E0F070801910F10308002709E02000F0
:10599000C0B2FFF7DAFF88F80000B8F10108240967
:1059A0007F1CAF42F3D33000BDE8F08138B504006E
:1059B0001500C9B2002902D02800FFF79DFEE4B20D
:1059C000002C06D10522DFF834142800FFF707FF6A
:1059D00005E00422DFF828142800FFF700FF32BD9D
:1059E000CC81002038B504001500C9B2002902D0CE
:1059F0002800FFF781FEE4B2002C06D10822DFF870
:105A000004142800FFF7EBFE05E00722DFF8F81387
:105A10002800FFF7E4FE2B0000220821E4B220005A
:105A2000FFF79DFF29212800FFF7D2FE280032BD95
:105A300038B504001500C9B200290AD02800FFF7C4
:105A40005BFE2300C6A2A978281D03F033FDE87091
:105A50000DE0A878E978401A2300C1A20100E87897
:105A60004019001D03F026FDE9784018E870280071
:105A700032BD38B504001500C9B200290AD028008B
:105A8000FFF73AFE2300B6A2A978281D03F012FD05
:105A9000E8700DE0A878E978401A2300B0A2010070
:105AA000E8784019001D03F005FDE9784018E8701A
:105AB000280032BD38B504001500C9B2002902D053
:105AC0002800FFF719FEA878E978401A2300A4A25D
:105AD0000100E8784019001D03F0ECFCE97840185B
