:020000040800F2
:100000009804002099650108AB510008AD51000823
:10001000AF510008B1510008B351000800000000C2
:10002000000000000000000000000000A9330108EB
:10003000B55100080000000051330108970801087D
:100040009D670108A1670108A5670108A967010864
:10005000AD670108B1670108B5670108B967010814
:10006000BD670108C1670108B9510008C5670108EB
:10007000C9670108CD670108D1670108D567010884
:10008000D9670108DD670108E1670108E567010834
:10009000E9670108ED670108F1670108BB51000835
:1000A000F567010821C40008F9670108FD67010828
:1000B0000168010805680108096801080D68010860
:1000C0001168010815680108196801081D68010810
:1000D0002168010825680108296801082D680108C0
:1000E0003168010835680108396801083D68010870
:1000F0004168010845680108496801084D68010820
:100100005168010855680108596801085D680108CF
:100110006168010865680108696801086D6801087F
:100120007168010875680108796801087D6801082F
:100130008168010885680108896801088D680108DF
:100140009168010895680108996801085B17010822
:100150009D680108A1680108A5680108B751000859
:10016000A9680108AD680108B1680108B56801080F
:10017000B9680108BD680108C1680108C5680108BF
:10018000C9680108CD68010801207047DFF8A01C8C
:10019000D1F81600F021C172DFF8941CD1F81600D6
:1001A00000210170DFF8881CD1F816000021417091
:1001B000DFF87C1C086B0021C172DFF8741CD1F8D9
:1001C00012000021C172012070470120704710B554
:1001D000DFF84C1B086803F03CFF0400802C04D3BC
:1001E000DFF8C81B8868A04205D27FF0020004F047
:1001F0006BF9002029E0DFF8A81C086804F0F7F983
:1002000084421DD2DFF8981CD1F81200A321C172DC
:1002100004F03BF8DFF8882CD2F812100860DFF801
:10022000801CD1F8160004F002FDDFF8741CD1F830
:10023000120004F0FCFC200004F02CF8012004E083
:100240007FF0020004F040F9002010BD10B5DFF887
:10025000600BDFF8CC1A89780C2251430844C17A2C
:10026000852902D10168002901D1002039E004F07C
:1002700032FB0400802C04D3DFF8301B8868A042D6
:1002800005D27FF0020004F01FF9002029E0DFF81A
:10029000101C086804F0ABF984421DD2DFF8001C82
:1002A000D1F81200A321C17203F0EFFFDFF8F02BA9
:1002B000D2F812100860DFF8E81BD1F8160004F03D
:1002C000B6FCDFF8DC1BD1F8120004F0B0FC200013
:1002D00003F0E0FF012004E07FF0020004F0F4F8F6
:1002E000002010BD70B5DFF8381A086803F0B1FEC1
:1002F00080B205F090F804002000002805D17FF0BE
:10030000280004F0E1F800201FE0DFF8986BDFF828
:100310000C5A280004F0DEF9C0B2FF2805D17FF0A6
:10032000140004F0D1F800200FE0DFF8740BC0F8DF
:100330003E60DFF86C0B2979C0F83A100020DFF836
:10034000601B81F83800A047012070BD80B5DFF840
:10035000600ADFF8CC1989780C2251430844C17A2D
:10036000852902D10168002901D100201FE004F095
:10037000B2FA80B205F04FF80100002912D0DFF880
:10038000241BDFF81C2BC2F83E10DFF8141B0022E0
:10039000C1F83A200021DFF8082B82F83810804796
:1003A000012004E07FF0280004F08EF8002002BD58
:1003B00080B5DFF87C1AD1F8120004F061FCDFF898
:1003C000701AD1F8160004F05BFCDFF8641AD1F85B
:1003D0002900DFF85C1A91F8271011F0FE01DFF810
:1003E000502A82F82710802808D3DFF8C0299168A6
:1003F000884203D203F04EFF012004E07FF00200A8
:1004000004F062F8002002BD80B5DFF8241AD1F8AC
:10041000120004F035FCDFF8181AD1F8160004F0C9
:100420002FFCDFF80C0AD0F812100868802808D3D7
:10043000DFF878299168884203D203F02BFF01206E
:1004400004E07FF0020004F03FF8002002BD80B518
:10045000DFF8CC08008805F04FF9DFF8BC1B08680E
:10046000002807D0DFF8B00B0168DFF8B408008877
:10047000C0B28847012002BD10B5DFF83409DFF8AB
:10048000A01889780C22514300EB0104B021200010
:1004900004F02BF9002805D17FF0030004F014F8D4
:1004A000002012E0DFF878080188200005F01FFB2B
:1004B000002805D17FF0620004F006F8002004E077
:1004C000DFF8DC09C0F80E40012010BD38B5DFF8B8
:1004D000E008DFF84C1889780C22514300EB010446
:1004E000DFF8CC08DFF8381809780C22514300EB0C
:1004F0000105B021200004F0F8F8002805D17FF0B4
:10050000030003F0E1FF002013E0280004F0E3F90A
:100510000100200005F0EBFA002805D17FF0620011
:1005200003F0D2FF002004E0DFF87409C0F80E40A9
:10053000012032BD7CB5DFF87808DFF8E4170978D0
:100540000C2251430844DFF86818DFF8D42792786A
:100550000C235A4301EB0204DFF85418DFF8C027DC
:1005600052780C235A4301EB020504F0B4F906005B
:10057000002E05D17FF03D0003F0A6FF00202CE007
:10058000280004F0A7F8ED88C0B2FF2805D17FF05D
:10059000140003F099FF00201FE08021200004F0E8
:1005A000A4F8002805D17FF0030003F08DFF0020A0
:1005B00013E0012000904D232A0092B2310001A8DF
:1005C00005F005FB002805D17FF00C0003F07CFF4F
:1005D000002002E001982060012076BDF0B585B0D2
:1005E000DFF8CC07DFF8381709780C2251430844AC
:1005F000DFF8BC17DFF8282792780C235A4301EB69
:100600000204DFF8AC17DFF8182752780C235A439E
:1006100001EB020504F05FF90600002E05D17FF022
:10062000140003F051FF002039E00C21002202AF3A
:10063000380005F09BFC310002A805F056FC0028AC
:1006400005D17FF00C0003F03FFF002027E02800D9
:1006500004F040F8FF2805D17FF0140003F034FFC8
:1006600000201CE08321200004F03FF8002805D181
:100670007FF0030003F028FF002010E028790090AD
:100680006B79320002A901A805F01EFB002803D0F7
:1006900003F01AFF002002E001982060012005B05D
:1006A000F0BD70B582B0DFF80807DFF8741609787E
:1006B0000C2251430844DFF8F816DFF864269278DC
:1006C0000C235A4301EB0204DFF8E416DFF850264E
:1006D00052780C235A4301EB020504F0FCF80600A3
:1006E000002E05D17FF0140003F0EEFE002027E07D
:1006F000280003F0EFFFFF2805D17FF0140003F07E
:10070000E3FE00201CE08321200003F0EEFF002820
:1007100005D17FF0030003F0D7FE002010E0206831
:1007200000902B796A793100684605F06FFB00284C
:1007300003D003F0C9FE002002E0009820600120F1
:1007400076BD80B55FF0FF3003F0BEFE002002BD35
:1007500080B55FF0FF3003F0B7FE002002BD10B59A
:10076000DFF84C06DFF8B81589780C22514300EB0E
:100770000104200005F0F6F9002805D17FF06200A1
:1007800003F0A2FE002004E0DFF81407C0F80E40DA
:10079000012010BD38B5DFF81806DFF88415097898
:1007A0000C22514300EB0105DFF80406DFF8701559
:1007B00089780C22514308440468002C05D17FF04D
:1007C000150003F081FE00201AE0280003F082FFEC
:1007D000C0B250280BD0802830D0832811D0FF28F9
:1007E00046D17FF0140003F06FFE002008E020687F
:1007F000002804D0206805F015FC002020600120AE
:1008000032BD2068002818D020680838C178002937
:1008100011D0817800290ED0B0F9000000280AD448
:10082000206805F02EFA002805D17FF0010003F0C2
:100830004BFE0020E4E700202060E0E7206800286D
:1008400015D020680838418800290ED0B0F9000082
:1008500000280AD4206805F014FA002805D17FF09A
:10086000010003F031FE0020CAE700202060C6E747
:1008700028790928C3DB7FF0140003F025FE00204F
:10088000BEE780B5DFF89814086803F0E2FB04F0D7
:1008900090F9002805D17FF0620003F015FE0020DA
:1008A00000E0012002BD80B5DFF87414086803F091
:1008B000D0FB04F09DF9002805D17FF0620003F021
:1008C00003FE002000E0012002BD10B5DFF8E004C7
:1008D000DFF84C1489780C22514300EB010420000E
:1008E00004F0A5F9002805D17FF0620003F0ECFDCB
:1008F000002004E0DFF8A805C0F80E40012010BD7C
:1009000010B5DFF8AC04DFF8181489780C225143D5
:1009100000EB0104200004F0B3F9002805D17FF0BA
:10092000620003F0D1FD002004E0DFF87405C0F898
:100930000E40012010BD10B5DFF87404DFF8E0139D
:1009400089780C22514300EB0104E07A202801D081
:10095000302810D1206805F087FA002805D17FF0F3
:10096000620003F0B1FD00200AE0DFF83405C0F8B2
:100970000E40012004E07FF03C0003F0A5FD0020C4
:1009800010BD10B582B000200090DFF82404DFF81D
:10099000901389780C22514300EB0104DFF88003A7
:1009A000B0F90010684605F079FA002805D17FF00B
:1009B000620003F089FD002012E03021200003F0E6
:1009C00094FE002805D17FF0030003F07DFD002098
:1009D00006E000982060DFF8C804C0F80E4001204F
:1009E00016BD80B5CE48B0F9000005F0A6FA002883
:1009F00005D17FF0620003F067FD002000E00120D8
:100A000002BD70B5DFF8A803C54909780C2251432F
:100A100000EB0104DFF89803C14989780C225143A7
:100A200000EB0105E07A832805D07FF0140003F085
:100A30004BFD002034E02668002E05D17FF0150024
:100A400003F042FD00202BE0083E002E05D17FF090
:100A5000150003F039FD002022E07068002807D15E
:100A6000DFF83C14D1F8160000210170012017E0D6
:100A7000B221280003F039FE002805D17FF00300E1
:100A800003F022FD00200BE0206828607068401E03
:100A90006860DFF80C14D1F8160001210170012004
:100AA00070BD80B5C2489E4989780C2251430844E4
:100AB000C17AB22905D07FF0140003F005FD0020B3
:100AC00020E00168002905D17FF0150003F0FCFC4F
:100AD000002017E04168002907D1DFF8C413D1F8DE
:100AE00016000021017001200CE00168091D016061
:100AF0004168491E4160DFF8A813D1F816000121B2
:100B00000170012002BD10B582B000200090A848FD
:100B1000834909780C2251430844A549804A9278B8
:100B20000C235A4301EB020403F0D5FE01002268B6
:100B3000684605F080F9002804D0002003F0C4FCCA
:100B4000002002E000982060012016BD80B5984882
:100B5000734989780C2251430844A02103F0C5FD54
:100B6000002805D17FF0030003F0AEFC00200BE06D
:100B70008F486B4989780C2251430844A321C172E4
:100B8000674909880160012002BD80B58848644931
:100B900089780C2251430844C17AA32905D07FF0FB
:100BA0001A0003F091FC002003E05D4909884180B0
:100BB000012002BD38B57E48594909780C225143BD
:100BC00000EB01047A48564989780C22514300EB26
:100BD00001058221280003F088FD002805D17FF05F
:100BE000030003F071FC00200FE0E07A05F0A0FFA5
:100BF000202804D0302802D0402807D00CE02068FC
:100C000080B28221E9722860012032BD206800EEA6
:100C1000100A06F02FF9F3E77FF01A0003F054FCF6
:100C20000020F2E710B562483D4989780C22514313
:100C300000EB01048221200003F057FD002805D1BC
:100C40007FF0030003F040FC002005E08220E0720A
:100C5000334800882060012010BD80B55448DFF87B
:100C6000E41C89780C2251430844C17A822905D0BA
:100C70007FF01A0003F028FC002004E0DFF8C41C19
:100C800009884180012002BD10B54948DFF8B41C35
:100C900089780C22514300EB0104C221200003F0AB
:100CA00024FD002805D17FF0030003F00DFC002097
:100CB0000EE0C220E07200202060DFF8880C40784F
:100CC0006071DFF8800C007820710020E080012046
:100CD00010BD10B53648DFF86C1C89780C225143E2
:100CE00000EB0104C221200003F0FFFC002805D125
:100CF0007FF0030003F0E8FB00200CE0C220E0726C
:100D0000002020604D20607104202071DFF8340C39
:100D10000088E080012010BD0000000000380120A4
:100D20003042012038B52248DFF8181C09780C221F
:100D3000514300EB01041E48DFF8081C89780C229F
:100D4000514300EB01050021280003F0CEFC0028F0
:100D500005D17FF0030003F0B7FB002018E0E07A34
:100D6000803816D0C01E14D0C01E12D01B380228E6
:100D700004D9001F02D00C38032811D8E07AE87299
:100D800020686168286069604548C0F80E500120FD
:100D900032BDA220E8722068616828606960F3E7CC
:100DA0007FF01A0003F090FB0020F1E7D83C01200F
:100DB000F836012010B5DFF86C0CDFF8881B897855
:100DC0000C22514300EB0104DFF8580CDFF8741BD0
:100DD00009780C225143084403F07DFDE17AA129F2
:100DE0000CD0A22914D0A32918D0B12906D0B22939
:100DF0000ED0B32902D0B4290AD013E0A121E172A8
:100E00002168401820602648C0F80E40012010BD1F
:100E1000A221E172216840182060F4E7216840189F
:100E20002060F0E77FF0620003F04EFB0020EEE769
:100E30005C3E012080B5DFF8EC0BDFF8081B8978F9
:100E40000C2251430844DFF8FC1A0988C27AA12A0F
:100E50000CD0A22A14D0A32A18D0B12A06D0B22AC4
:100E60000ED0B32A02D0B42A0AD013E0A122C27253
:100E70000268891801600A49C1F80E00012002BD0C
:100E8000A222C272026889180160F4E70268891818
:100E90000160F0E77FF0620003F016FB0020EEE750
:100EA0005C3E0120A037012070B5DFF8780BDFF839
:100EB000941A09780C2251430844DFF8681BDFF8C4
:100EC000842A92780C235A4301EB0204DFF8541B66
:100ED000DFF8702A52780C235A4301EB02060568AA
:100EE000002D05D17FF0150003F0EEFA002091E00F
:100EF000300003F0EFFBC0B20100502944D060295C
:100F000031D061290DD062291CD080294BD0832992
:100F100049D0FF2957D17FF0140003F0D5FA002003
:100F200078E06121200003F0E0FB002805D17FF08C
:100F3000030003F0C9FA00206CE02868606000201C
:100F4000206066E06221200003F0CFFB002805D17D
:100F50007FF0030003F0B8FA00205BE0002060603F
:100F60002868206055E06021200003F0BEFB0028C7
:100F700005D17FF0030003F0A7FA00204AE068687B
:100F800060602868206044E05D21200003F0ADFB34
:100F9000002805D17FF0030003F096FA002039E025
:100FA0002868206035E00100C9B2200003F09DFBF5
:100FB000002805D17FF0030003F086FA002029E025
:100FC0002868206025E03179092905DB7FF01400CD
:100FD00003F07AFA00201DE00100C9B2200003F0FE
:100FE00084FB002805D17FF0030003F06DFA002098
:100FF00010E00020002120606160002004E0C0B209
:10100000295CC0B22154401C01003279C9B291421E
:10101000F5D3012070BD0000544101202DE9FC41B1
:10102000DFF8000ADFF81C1909780C22514300EBA5
:101030000106DFF8F009DFF80C1989780C2251431A
:101040000844DFF8E019DFF8FC2852780C235A43F3
:1010500001EB02040568002D05D17FF0150003F0B7
:1010600033FA00202EE2200003F034FB2179092915
:1010700005DB7FF0140003F027FA002022E2C0B263
:101080000100102924D020292BD0302973D04029E9
:1010900000F0BB80482900F0F980502900F07D81E4
:1010A000602900F06381612900F03981622900F034
:1010B0004981802900F0E481832900F0E181FF2942
:1010C00040F0FA817FF0140003F0FEF90020F9E10E
:1010D0003078002802D00120287001E0002028701C
:1010E000EFE1F07A20380ED0103817D010381BD02E
:1010F000083823D05938022831D9001F2FD00C3896
:1011000003282CD931E0306871686A46106051605C
:1011100022796946280005F083FFD2E130687168C2
:101120006A4610605160F3E7306800EE100A05F07F
:10113000A1FE6A46C11710605160E9E73268736822
:1011400043EC102B51EC100B05F0A6FF00EE100A3B
:1011500005F090FE6A46C11710605160D8E730680C
:101160006A46002110605160D2E77FF03E0003F034
:10117000ABF90020A6E1F07A20380ED0103817D055
:1011800010381BD0083823D05938022831D9001F15
:101190002FD00C3803282CD931E0306871686A46AA
:1011A0001060516022796946280005F039FF88E116
:1011B000306871686A4610605160F3E7306800EE8D
:1011C000100A05F057FE6A46C11710605160E9E742
:1011D0003268736843EC102B51EC100B05F05CFF88
:1011E00000EE100A05F046FE6A46C1171060516015
:1011F000D8E730686A46002110605160D2E77FF07E
:101200003E0003F061F900205CE1F07A20380ED056
:10121000103817D010381BD008381FD05938022882
:1012200026D9001F24D00C38032821D928E03068A3
:10123000716805F079FF009022796946280005F071
:10124000EFFE3EE13068716805F07CFF0090F3E747
:10125000306800EE100A8DED000AEDE73268736821
:1012600043EC102B51EC100B05F016FF0090E3E758
:10127000306800EE100AB8EE400A8DED000ADBE798
:101280007FF03E0003F020F900201BE1F07A2038C7
:101290000ED0103819D010381FD0083828D059383F
:1012A00002282FD9001F2DD00C3803282AD930E06E
:1012B000306871686E4605F069FF306071602279B0
:1012C0006946280005F0ACFEFBE0306871686E46A8
:1012D00005F06AFF30607160F1E7306800EE100AD7
:1012E0006E4610EE100A05F07FFF30607160E6E791
:1012F0003268736843EC102B684653EC102B026085
:101300004360DCE730686E4605F0A0FF3060716036
:10131000D5E77FF03E0003F0D7F80020D2E0F07A66
:10132000002803D06038012803D905E00020286098
:10133000C7E070682860FBE77FF03E0003F0C4F868
:101340000020BFE0F07A002804D0602805D0622891
:1013500003D005E000202860B3E030682860FBE798
:101360007FF03E0003F0B0F80020ABE0F07A0028F8
:1013700003D06038022805D909E000206860002009
:1013800028609EE07068686030682860F9E77FF048
:101390003E0003F099F8002094E0300003F0D1F90A
:1013A000002802D03468002709E0002004F077FE0E
:1013B000040022000121300003F036FB0127D5F89C
:1013C0000080F07A5F2806D0FFB2012F03D0B4F975
:1013D000000000282ED5B8F1000F0DD098F80200BB
:1013E000E178884208D0B8F90000002804D44046CB
:1013F00004F018FE5FF00008B8F1000F12D1E07899
:1014000004F0FAFD8046B8F1000F05D17FF001002D
:1014100003F05AF8002055E0B8F80000401CA8F886
:10142000000002E0404604F00DFF2100404604F0B9
:10143000ADFF1CE0B8F1000F08D0B8F9000000289B
:1014400004D4404604F0EEFD5FF00008B8F1000F50
:1014500006D1A046B8F80000401CA8F8000006E03D
:10146000404604F0EFFE2100404604F08FFFC5F82F
:101470000080FFB2002F02D0200004F08DFE20E09B
:10148000F17AC0B2814211D13068286030680028FA
:101490000BD0306808384168002906D0B0F9001038
:1014A000002902D40188491C01800AE07FF0140061
:1014B00003F00AF8002005E022793100280005F049
:1014C000AFFD0120BDE8F68170B5DFF85805DFF803
:1014D000741409780C22514300EB0104DFF8440531
:1014E000DFF8601489780C22514300EB0105DFF826
:1014F0003405DFF8501449780C22514300EB010603
:10150000300003F0E7F8C0B2FF2805D17FF01400E7
:1015100002F0DAFF00200DE0DFF8080D4563C2207D
:10152000E872206828607079687130792871F088D5
:10153000E880012070BD80B55FF0FF3002F0C4FF8D
:10154000002002BD38B5DFF8DC04DFF8F8130978B5
:101550000C22514300EB0104DFF8C804DFF8E41368
:1015600089780C22514300EB0105DFF8B804DFF85D
:10157000D41349780C225143084403F0ABF8C0B2AD
:10158000FF2805D17FF0140002F09EFF002023E029
:1015900021886088DFF88C2CC2F83A10DFF8841CB0
:1015A000C1F83E500121DFF87C2C82F83810DFF8BA
:1015B00094138978DFF86C2C82F8391080B203F02C
:1015C0002AFF0100002902D08047012004E07FF0BB
:1015D000280002F079FF002032BD38B5DFF844045E
:1015E000DFF8601309780C22514300EB0104DFF8A7
:1015F0003404DFF8501389780C22514300EB0105C5
:10160000DFF82004CF4949780C225143084403F005
:1016100061F8C0B2FF2805D17FF0140002F054FF3A
:10162000002022E029886888DFF8F82BC2F83A10F9
:10163000DFF8F01BC1F83E400121DFF8E82B82F80B
:101640003810C0490978DFF8DC2B82F8391080B2F5
:1016500003F0E1FE0100002902D08047012004E0F0
:101660007FF0280002F030FF002032BD38B5DFF8EF
:10167000B403B44909780C2251430144DFF8A403B0
:10168000B04A92780C235A4300EB0204DFF894032B
:10169000AC4A52780C235A4310440D68002D05D1F2
:1016A0007FF0150002F010FF002027E003F012F891
:1016B0000100C9B2080080280BD0832809D08628F1
:1016C00007D0FF2815D17FF0140002F0FDFE0020A6
:1016D00014E0C9B2200003F008F8002805D17FF01B
:1016E000030002F0F1FE002008E0286820600120DD
:1016F00004E07FF0140002F0E7FE002032BD38B5B0
:10170000C848904909780C22514300EB0104C548B0
:101710008C4989780C2251430144C248894A527845
:101720000C235A4310440D68002D02D02168002973
:1017300005D17FF0150002F0C7FE002019E002F08D
:10174000C9FFC0B280280BD0832809D0862807D0D3
:10175000FF2809D17FF0140002F0B6FE002008E057
:1017600020682860012004E07FF0140002F0ACFE45
:10177000002032BD70B5AB48724909780C22514344
:101780000844A8496F4A92780C235A4301EB02049B
:10179000A4496C4A52780C235A4301EB02060568AF
:1017A000002D05D17FF0150002F08EFE002060E0D4
:1017B000300002F08FFFC0B2010050290BD0802909
:1017C00020D083291ED0FF292CD17FF0140002F0F5
:1017D0007BFE00204DE05F21200002F086FF002804
:1017E00005D17FF0030002F06FFE002041E0206889
:1017F00004F028FD2868002803D02968206804F038
:10180000C5FD35E00100C9B2200002F06EFF0028DE
:1018100005D17FF0030002F057FE002029E0286880
:10182000206025E03179092905DB7FF0140002F002
:101830004BFE00201DE00100C9B2200002F055FF60
:10184000002805D17FF0030002F03EFE002010E0EA
:101850000020002120606160002004E0C0B2295C0B
:10186000C0B22154401C01003279C9B29142F5D373
:10187000012070BD70B56B48DFF8F81C09780C22A8
:10188000514300EB01056748DFF8E81C89780C221A
:10189000514308446349DFF8DC2C52780C235A4347
:1018A00001EB02060468002C05D17FF0150002F060
:1018B0000BFE002045E0300002F00CFFC0B201003A
:1018C00050290BD080291DD083291BD0FF2926D178
:1018D0007FF0140002F0F8FD002032E0E87A5D2885
:1018E0000AD12868002806D02868B0F9000000282E
:1018F00001D42868206023E07FF0140002F0E4FDAA
:1019000000201EE0E97AC0B2814202D1286820603E
:1019100016E07FF0140002F0D7FD002011E03079CE
:10192000092805DB7FF0140002F0CEFD002008E05E
:10193000002002E0295C2154401C31798842F9DB07
:10194000012070BD30420120F8B53648DFF8241C74
:1019500009780C22514300EB01043248DFF8141CD3
:1019600089780C22514300EB01052E48DFF8041C56
:1019700049780C22514300EB01062068002805D16C
:101980007FF0150002F0A0FD00204AE0300002F0D8
:10199000A1FE0700FFB2FF2F05D17FF0140002F077
:1019A00093FD00203DE0FFB2502F00D15F273900AA
:1019B000C9B2280002F099FE002805D17FF062002C
:1019C00002F082FD00202CE0FFB25F2F0BD12968CE
:1019D000206802F04FFD002822D17FF0620002F063
:1019E00073FD00201DE03079092813DA0020002162
:1019F0002860696022680120009033792900002066
:101A000002F076FD00280BD17FF0620002F05CFD51
:101A1000002006E07FF0010002F056FD002000E00B
:101A20000120F2BDF836012010B5DFF87C0ADFF89E
:101A3000441B09780C22514300EB0104DFF8680ACB
:101A4000DFF8301B89780C2251430844DFF8580A2C
:101A5000DFF8201B49780C225143084402F03AFE7B
:101A6000C0B2FF2805D17FF0140002F02DFD002048
:101A700001E02068002010BD38B5DFF82C0ADFF83F
:101A8000F41A09780C22514300EB0104DFF8180A1C
:101A9000DFF8E01A89780C22514300EB0105DFF8EA
:101AA000080ADFF8D01A49780C225143084402F0A2
:101AB00011FEC0B2FF2805D17FF0140002F004FD32
:101AC000002023E021886088DFF8742BC2F83A10E8
:101AD000DFF86C1BC1F83E500121DFF8642B82F85F
:101AE0003810DFF8901A8978DFF8542B82F8391013
:101AF00080B203F090FC0100002902D08047012051
:101B000004E07FF0280002F0DFFC002032BD38B591
:101B1000DFF89409DFF85C1A09780C22514300EBD6
:101B20000104DFF88409DFF84C1A89780C2251434C
:101B300000EB0105DFF87009DFF8381A49780C224C
:101B40005143084402F0C6FDC0B2FF2805D17FF022
:101B5000140002F0B9FC002023E029886888DFF82F
:101B6000E02AC2F83A10DFF8D81AC1F83E40012145
:101B7000DFF8CC2A82F83810DFF8F8190978DFF896
:101B8000C02A82F8391080B203F045FC0100002918
:101B900002D08047012004E07FF0280002F094FC8E
:101BA000002032BD38B5DFF80009DFF8C819097820
:101BB0000C22514300EB0104DFF8EC08DFF8B41904
:101BC00089780C22514300EB0105DFF8DC08DFF8CF
:101BD000A41949780C225143084402F07BFDC0B29D
:101BE000FF2805D17FF0140002F06EFC002022E0F7
:101BF0002088DFF83016C1F83A00DFF82806C0F870
:101C00003E500120DFF81C1681F83800DFF8640927
:101C10008078DFF8101681F83900DFF8281A086894
:101C20000100002902D08047012004E07FF0280055
:101C300002F04AFC002032BD38B5DFF86C08DFF84E
:101C4000341909780C22514300EB0104DFF85808DD
:101C5000DFF8201989780C22514300EB0105DFF8E9
:101C60004808DFF8101949780C225143084402F063
:101C700031FDC0B2FF2805D17FF0140002F024FC32
:101C8000002022E02888DFF89C15C1F83A00DFF830
:101C90009405C0F83E400120DFF8881581F838002F
:101CA000DFF8D0080078DFF87C1581F83900DFF81C
:101CB000941948680100002902D08047012004E0FF
:101CC0007FF0280002F000FC002032BD38B5DFF8BC
:101CD000D807DFF8A01809780C22514300EB010463
:101CE000DFF8C407DFF88C1889780C22514300EB29
:101CF0000105DFF8B407DFF87C1849780C2251435E
:101D0000084402F0E7FCC0B2FF2805D17FF01400C0
:101D100002F0DAFB002022E02088DFF80815C1F885
:101D20003A00DFF80005C0F83E500120DFF8F41457
:101D300081F83800DFF83C088078DFF8E81481F893
:101D40003900DFF8001988680100002902D08047B7
:101D5000012004E07FF0280002F0B6FB002032BD35
:101D600038B5DFF84407DFF80C1809780C22514326
:101D700000EB0104DFF83007DFF8F81789780C2250
:101D8000514300EB0105DFF82007DFF8E817497839
:101D90000C225143084402F09DFCC0B2FF2805D13B
:101DA0007FF0140002F090FB002022E02888DFF88A
:101DB0007414C1F83A00DFF86C04C0F83E4001200A
:101DC000DFF8601481F83800DFF8A8070078DFF842
:101DD000541481F83900DFF86C18C8680100002934
:101DE00002D08047012004E07FF0280002F06CFB65
:101DF000002032BD70B582B00025DFF8AC06DFF8F8
:101E0000741709780C2251430844DFF89C16DFF858
:101E1000642792780C235A4301EB0206C17AA32966
:101E200006D07FF0170002F04FFB2800C0B232E06E
:101E3000DFF80C1891F82D105F2911D102680020ED
:101E40000090DFF8FC07C38D211D012002F050FB3C
:101E5000DFF8EC07C08DE0705F20F072012514E020
:101E6000DFF8DC17C98D05290FDADFF8D41791F8F0
:101E70002D10F172026800200090DFF8C407C38DB6
:101E80003100012002F034FB0125DFF8B407C0F86F
:101E90000E602800C0B276BD70B582B00025DFF8B4
:101EA0000806DFF8D01609780C2251430144DFF808
:101EB000F805DFF8C02692780C235A4300EB02069F
:101EC000F07AA32806D07FF0170002F0FDFA280070
:101ED000C0B22AE0DFF8680790F82D005F280FD124
:101EE000326800200090DFF85807C38D211D0120C3
:101EF00002F0FEFADFF84807C08DE07001250EE021
:101F0000DFF83C07C08D052809DA32680020009010
:101F1000DFF82C07C38D012002F0EAFA0125DFF873
:101F20002007C0F80E602800C0B276BD10B5DFF8FB
:101F30007805DFF8401689780C22514300EB010444
:101F40001021200002F0D1FB002805D17FF0030012
:101F500002F0BAFA002008E0DFF8180600882070C6
:101F6000DFF8DC06C0F80E40012010BD10B5DFF828
:101F70003805DFF8001689780C22514300EB010484
:101F80005221200002F0B1FB002805D17FF00300B0
:101F900002F09AFA002008E0DFF8D80500882080D7
:101FA000DFF89C06C0F80E40012010BD10B5DFF828
:101FB000F804DFF8C01589780C22514300EB0104C6
:101FC0002021200002F091FB002805D17FF00300C2
:101FD00002F07AFA00200AE0DFF8980500882080F5
:101FE00000206080DFF85806C0F80E40012010BDC8
:101FF00080B5DFF8B404DFF87C1589780C225143F2
:102000000844C17A202905D07FF0030002F05CFA71
:10201000002008E0DFF85C1509884180DFF8201611
:10202000C1F80E00012002BD10B5DFF87C04DFF816
:10203000441589780C22514300EB01044021200013
:1020400002F053FB002805D17FF0030002F03CFAB8
:1020500000200AE0DFF81C05008820800020608056
:10206000DFF8DC05C0F80E40012010BD80B5DFF8B8
:102070003804DFF8001589780C2251430844C17AEE
:10208000402905D07FF0030002F01EFA00200EE088
:10209000DFF8E014098841800168002901D001219E
:1020A00000E00021DFF89815C1F80E00012002BD04
:1020B00010B5DFF8F403DFF8BC1489780C22514323
:1020C00000EB01043021200002F00FFB002805D1B5
:1020D0007FF0030002F0F8F900200AE0DFF8940432
:1020E0000088208000206080DFF85405C0F80E4092
:1020F000012010BD80B5DFF8B003DFF878148978CF
:102100000C2251430844C17A302905D07FF00300E6
:1021100002F0DAF9002008E0DFF85814098841805D
:10212000DFF81C15C1F80E00012002BD10B5DFF864
:102130007803DFF8401489780C22514300EB010446
:102140006021200002F0D1FA002805D17FF00300C1
:1021500002F0BAF900200AE0DFF818040088A08035
:102160000020E080DFF8D804C0F80E40012010BD48
:1021700080B5CD48DFF8FC1389780C225143084420
:10218000C17A602905D07FF0030002F09DF900209C
:1021900008E0DFF8E0130988C180DFF8A414C1F873
:1021A0000E00012002BD10B5BF48DFF8C8138978C2
:1021B0000C22514300EB01046021200002F095FA4B
:1021C000002805D17FF0030002F07EF900200AE02C
:1021D000DFF8A0030088208000206080DFF8600422
:1021E000C0F80E40012010BD80B5AF48DFF8841361
:1021F00089780C2251430844C17A602905D07FF0C8
:10220000030002F061F900200AE06221C172DFF8E8
:10221000641309884180DFF82814C1F80E000120FA
:1022200002BD00005C3E012080B55FF0FF3002F08F
:102230004BF9002002BD70B59B48DFF838130978D0
:102240000C22514300EB01049748CA4989780C22BB
:10225000514300EB0105280002F073FA002814D165
:10226000002003F01CFF0600002E05D17FF0620065
:1022700002F02AF900201BE032000121280002F0C0
:10228000D3FB5F20E8722E6002E0280002F075FCAC
:10229000200002F056FA002804D02168286804F0D3
:1022A00075F804E02A680021200002F0BDFB01203F
:1022B00070BD7D48AF4989780C2251430844002104
:1022C000C1720022002302604360DFF87413C1F87A
:1022D0000E000120704738B57348A64909780C22D2
:1022E000514300EB01047048A24989780C22514304
:1022F00000EB0105E17A280002F0F7F9002805D18A
:102300007FF0030002F0E0F8002015E0E87A5F2893
:102310000AD1286803F096FF2068002808D02168B9
:10232000286804F033F803E0206861682860696079
:10233000C348C0F80E50012032BD10B55A488D492F
:1023400089780C22514300EB0104E07A10380DD05B
:10235000103812D0103828D0103815D0103832D09C
:10236000801E23D00B3802282DD93FE00120207099
:10237000B348C0F80E40012010BD2068002802D5E7
:10238000206840422060F3E7206800EE100AB5EEB6
:10239000400AF1EE10FA07D5206800EE100AB1EEFF
:1023A000400A10EE100A2060E2E7E1E760780028BA
:1023B00008D12078612805DB20787A2802DB207894
:1023C00020382070D4E7200002F0D7FB002805D188
:1023D0007FF0030002F078F80020CDE720680028A5
:1023E00003D02068012104F092F8C1E77FF03F009C
:1023F00002F06AF80020BFE710B52B485D498978E4
:102400000C22514300EB0104E07A10380DD0103853
:1024100012D0103814D0103816D010382AD0801EA0
:102420001BD00B38022825D937E0002020708448C3
:10243000C0F80E40012010BD206840422060F6E741
:10244000206840422060F2E7206800EE100AB1EEFA
:10245000400A10EE100A2060E9E76078002808D1F1
:102460002078412805DB20785A2802DB20782030AC
:102470002070DCE7200002F080FB002805D17FF00F
:10248000030002F021F80020D5E72068002803D0DF
:102490002068022104F03BF8C9E77FF03F0002F01A
:1024A00013F80020C7E70000F836012010B5DFF868
:1024B000800C304989780C22514300EB0104200044
:1024C00002F03FF9002805D07FF0140001F0FCFF76
:1024D00000201EE0E07A203814D010381AD01038CE
:1024E0001CD012383BD00E382FD0401E21D0401EB9
:1024F00025D03F3802282ED9001F2CD00C380328B5
:1025000029D930E02068401C20604D48C0F80E40BA
:10251000012010BD2068401C2060F6E7206800EE16
:10252000100AF7EE000A30EE200A10EE100A2060C2
:10253000EBE76068401C05F01BF86060E5E7206889
:10254000401C05F05FF82060DFE72068401C05F0C4
:1025500059F82060D9E72068401C2060D5E7208822
:10256000401C2080D1E77FF03F0001F0ADFF00204C
:10257000CFE700003042012010B5DFF8B40BDFF8E0
:10258000B41B89780C22514300EB0104200002F0B7
:10259000D8F8002805D07FF0140001F095FF002046
:1025A0001EE0E07A203814D010381AD010381CD031
:1025B00012383BD00E382FD0401E21D0401E25D0DF
:1025C0003F3802282ED9001F2CD00C38032829D9D7
:1025D00030E02068401E20601948C0F80E400120FD
:1025E00010BD2068401E2060F6E7206800EE100A4B
:1025F000FFEE000A30EE200A10EE100A2060EBE732
:102600006068401E04F0B4FF6060E5E72068401E8B
:1026100004F0F8FF2060DFE72068401E04F0F2FFBE
:102620002060D9E72068401E2060D5E72088401E42
:102630002080D1E77FF03F0001F046FF0020CFE788
:102640005C3E01204441012038B5DFF8E40ADFF8A0
:10265000E41A09780C22514300EB0105DFF8D00A97
:10266000DFF8D01A89780C22514300EB01042000D6
:1026700002F067F8002804D1280002F062F8002870
:1026800005D07FF0140001F01FFF002045E0E07A44
:1026900020381AD0103841D0103867D0123800F0E6
:1026A0004E810E3800F0EF80401E6BD0401E00F0CF
:1026B000A6803F38022840F23B81001F00F038819D
:1026C0000C38032840F2348140E1E87A202804D015
:1026D000302802D0402805D014E020682968081866
:1026E000206015E04020E072206800EE100A2868A3
:1026F00000EE900AB8EEC00A30EE200A10EE100A82
:10270000206005E0280002F0A2F82168401820604F
:10271000DFF8C40CC0F80E40012032BDE87A202852
:1027200004D0302802D0402807D016E02020E072E4
:10273000206829680818206017E04020E0722068AF
:1027400000EE100A286800EE900AB8EE400A30EE5B
:10275000200A10EE100A206007E02020E072280016
:1027600002F075F8216840182060D1E7280002F0D7
:10277000F7F8206800EE900A30EE800A10EE100A9A
:102780002060C5E7E87A20281CD0302821D04028D6
:1027900026D0482824D0602806D0622829D160207D
:1027A000E07228682060B3E76868002804D16020E0
:1027B000E07228682060F6E77FF03F0001F084FEB9
:1027C0000020AAE760682968081804F0D1FE60605C
:1027D000E9E760682968081804F0CAFE6060E2E76B
:1027E000280002F034F86168401804F0C1FE60600F
:1027F000D9E77FF03F0001F067FE00208DE7E87A1F
:10280000202823D0302828D040282DD048282BD06D
:10281000602810D0612802D0622805D02DE0602009
:10282000E0726868606073E720682968081804F03F
:10283000E9FE2060F7E76020E07268686060206869
:102840002968081804F0DEFE2060ECE7206829689B
:10285000081804F0D7FE2060E5E72068296808180A
:1028600004F0D0FE2060DEE7280001F0F0FF2168D0
:10287000401804F0C7FE2060D5E77FF03F0001F06C
:1028800023FE002049E7E87A202834D0302839D0C8
:1028900040283ED048283CD0602817D0612802D07C
:1028A00062280CD03EE06068002802D16868606051
:1028B0002EE77FF03F0001F007FE00202DE72068A3
:1028C0002968081804F09EFE2060F1E7606800287F
:1028D00008D16868606020682968081804F092FED2
:1028E0002060E5E768680028F5D07FF03F0001F040
:1028F000EBFD002011E720682968081804F082FE2B
:102900002060D5E720682968081804F07BFE206065
:10291000CEE7280001F09BFF2168401804F072FE0A
:102920002060C5E77FF03F0001F0CEFD0020F4E617
:10293000280001F0D0FF216840182060E8E6280058
:1029400001F085FF218840182080E1E67FF03F00FC
:1029500001F0BAFD0020E0E638B5DFF8D407DFF873
:10296000D41709780C22514300EB0105DFF8C007AA
:10297000DFF8C01789780C22514300EB01042000D6
:1029800001F0DFFE002804D1280001F0DAFE002863
:1029900005D07FF0140001F097FD002045E0E07ABB
:1029A00020381AD0103841D0103867D0123800F0D3
:1029B0004E810E3800F0EF80401E6BD0401E00F0BC
:1029C000A6803F38022840F23B81001F00F038818A
:1029D0000C38032840F2348140E1E87A202804D002
:1029E000302802D0402805D014E020682968401A19
:1029F000206015E04020E072206800EE100A286890
:102A000000EE900AB8EEC00A30EE600A10EE100A2E
:102A1000206005E0280001F01AFF2168081A2060F4
:102A2000DFF8B409C0F80E40012032BDE87A202852
:102A300004D0302802D0402807D016E02020E072D1
:102A400020682968401A206017E04020E072206862
:102A500000EE100A286800EE900AB8EE400A30EE48
:102A6000600A10EE100A206007E02020E0722800C3
:102A700001F0EDFE2168081A2060D1E7280001F07E
:102A80006FFF206800EE900A30EEC00A10EE100AC8
:102A90002060C5E7E87A20281CD0302821D04028C3
:102AA00026D0482824D0602806D0622829D160206A
:102AB000E07228682060B3E76868002804D16020CD
:102AC000E07228682060F6E77FF03F0001F0FCFC30
:102AD0000020AAE760682968401A04F049FD606098
:102AE000E9E760682968401A04F042FD6060E2E7A7
:102AF000280001F0ACFE6168081A04F039FD60603E
:102B0000D9E77FF03F0001F0DFFC00208DE7E87A95
:102B1000202823D0302828D040282DD048282BD05A
:102B2000602810D0612802D0622805D02DE06020F6
:102B3000E0726868606073E720682968401A04F0F2
:102B400061FD2060F7E76020E072686860602068DF
:102B50002968401A04F056FD2060ECE720682968D7
:102B6000401A04F04FFD2060E5E720682968401A0C
:102B700004F048FD2060DEE7280001F068FE2168CF
:102B8000081A04F03FFD2060D5E77FF03F0001F018
:102B90009BFC002049E7E87A202834D0302839D03F
:102BA00040283ED048283CD0602817D0612802D069
:102BB00062280CD03EE06068002802D1686860603E
:102BC0002EE77FF03F0001F07FFC00202DE720681A
:102BD0002968401A04F016FD2060F1E760680028BB
:102BE00008D16868606020682968401A04F00AFD0E
:102BF0002060E5E768680028F5D07FF03F0001F02D
:102C000063FC002011E720682968401A04F0FAFCF0
:102C10002060D5E720682968401A04F0F3FC2060A2
:102C2000CEE7280001F013FE2168081A04F0EAFC40
:102C30002060C5E77FF03F0001F046FC0020F4E68D
:102C4000280001F048FE2168081A2060E8E6280004
:102C500001F0FDFD2188081A2080E1E67FF03F00A9
:102C600001F032FC0020E0E638B5DFF8C404DFF8FC
:102C7000C41409780C22514300EB0105DFF8B004BD
:102C8000DFF8B01489780C22514300EB01042000D6
:102C900001F057FD002804D1280001F052FD002862
:102CA00005D07FF0140001F00FFC00203AE0E07A3C
:102CB00020380ED0103836D010385DD012386FD092
:102CC0004F38022864D9001F62D00C3803285FD91E
:102CD0006EE0E87A202804D0302802D0402805D0C1
:102CE00014E0206829684843206016E04020E07224
:102CF000206800EE100A286800EE900AB8EEC00ABC
:102D000020EE200A10EE100A206006E0280001F0F4
:102D10009EFD216800FB01F02060DFF8BC06C0F8D2
:102D20000E40012032BDE87A202804D0302802D09D
:102D3000402807D016E02020E07220682968484328
:102D4000206018E04020E072206800EE100A286839
:102D500000EE900AB8EE400A20EE200A10EE100AAB
:102D6000206008E02020E072280001F070FD21685A
:102D700000FB01F02060D0E7280001F0F1FD2068A1
:102D800000EE900A20EE800A10EE100A2060C4E7E0
:102D9000280001F0A0FD216800FB01F02060BCE7E5
:102DA000280001F054FD218811FB00F02080B4E7D9
:102DB0007FF03F0001F088FB0020B3E738B52DED30
:102DC000028BDFF86C03DFF86C1309780C22514397
:102DD00000EB0104DFF85803DFF8581389780C2260
:102DE000514300EB0105280001F0ABFC002804D1A1
:102DF000200001F0A6FC002805D07FF0140001F0AF
:102E000063FB002051E0E87A20380ED010380CD057
:102E100010384DD0123869D04F3802285ED9001FC3
:102E20005CD00C38032859D968E0200001F098FDE7
:102E3000B0EE408AB5EE408AF1EE10FA04D02800D8
:102E400001F08EFD80EE088AB0EE480A04F020F80A
:102E5000B5EE400AF1EE10FA1DD1E07A202804D038
:102E6000302802D0402808D00DE02020E872B0EED3
:102E7000480A03F0FFFF286012E04020E87218EED5
:102E8000100A28600CE02020E872B0EE480A03F037
:102E9000F1FF286004E04020E87218EE100A286074
:102EA000DFF83405C0F80E500120BDEC028B32BDB6
:102EB000200001F055FDB0EE408AB5EE408AF1EEFB
:102EC00010FA08D0286800EE100A80EE080A10EE0A
:102ED000100A286001E000202860E1E7200001F0EE
:102EE000FAFC2968B1FBF0F02860D9E7200001F076
:102EF000AEFC298891FBF0F02880D1E77FF03F00FD
:102F000001F0E2FA0020D0E738B58948894909780C
:102F10000C22514300EB01058548864989780C2233
:102F2000514300EB0104200001F00BFC002804D108
:102F3000280001F006FC002805D07FF0140001F005
:102F4000C3FA002045E0E07A20380ED010380CD0CB
:102F500010383FD0123855D04F38022848D9001FBA
:102F600046D00C38032843D956E0E87A202804D00C
:102F7000302802D040280ED01DE02868002807D055
:102F80002068296890FBF1F201FB1200206001E04B
:102F90000020206018E04020E072286800EE900ACF
:102FA000206800EE100AB8EEC00A03F097FF10EE9A
:102FB000100A206008E0280001F049FC216891FB1C
:102FC000F0F200FB12102060DFF80C04C0F80E4095
:102FD000012032BD280001F0C3FCF0EE400A206859
:102FE00000EE100A03F07AFF10EE100A2060EBE703
:102FF000280001F070FC2168B1FBF0F200FB121018
:103000002060E1E7280001F022FC218891FBF0F22A
:1030100000FB12102080D7E77FF03F0001F054FA48
:103020000020D6E738B54248424909780C2251437E
:1030300000EB01053E483F4989780C22514300EBE3
:103040000104200001F07DFB002804D1280001F0DC
:1030500078FB002805D07FF0140001F035FA00203D
:1030600029E0E07A20380ED0103825D010382BD047
:1030700012384ED04F38022843D9001F41D00C38A7
:1030800003283ED94DE02068002809D5280001F02A
:1030900022FC2168494211FA00F04042206006E01B
:1030A000280001F018FC216811FA00F02060CA48DD
:1030B000C0F80E40012032BD280001F00CFC216850
:1030C00011FA00F02060F2E72020E072206800EEA4
:1030D000100A03F0CFFE20602068002809D52800E0
:1030E00001F0F9FB2168494211FA00F040422060EA
:1030F00006E0280001F0EFFB216811FA00F02060E3
:10310000D5E7280001F0E7FB216811FA00F0206004
:10311000CDE7280001F0DFFB218811FA00F02080C4
:10312000C5E77FF03F0001F0CFF90020C3E70000C2
:10313000F83601203042012038B5DFF8500BDFF8B7
:10314000501B09780C22514300EB0105DFF83C0BC2
:10315000DFF83C1B89780C22514300EB010420006E
:1031600001F0EFFA002804D1280001F0EAFA002863
:1031700005D07FF0140001F0A7F9002027E0E07AE5
:1031800020380ED0103823D0103828D0123848D02C
:103190004F3802283ED9001F3CD00C38032839D9BB
:1031A00046E02068002808D5280001F094FB21683B
:1031B000494201414842206005E0280001F08BFBB4
:1031C0002168014121608448C0F80E40012032BDD1
:1031D000280001F080FB2168C1402160F3E7202036
:1031E000E072206800EE100A03F044FE20602068C0
:1031F000002808D5280001F06EFB216849420141F2
:103200004842206005E0280001F065FB216801418B
:103210002160D8E7280001F05EFB2168C1402160F1
:10322000D1E7280001F057FB218801412180CAE73E
:103230007FF03F0001F048F90020C8E738B5DFF81B
:103240004C0ADFF84C1A09780C22514300EB0105B7
:10325000DFF8380ADFF8381A89780C22514300EB7E
:103260000104200001F06DFA002804D1280001F0CB
:1032700068FA002805D07FF0140001F025F900203D
:103280001EE0E07A20380ED010380CD0103818D05C
:1032900012382ED04F38022823D9001F21D00C38E5
:1032A00003281ED92CE03020E072280001F013FB27
:1032B000216811FA00F020604748C0F80E40012054
:1032C00032BD3020E072206800EE100A03F0D2FD1B
:1032D0002060280001F0FFFA216811FA00F0206058
:1032E000EAE7280001F0F7FA216811FA00F02060FF
:1032F000E2E7280001F0EFFA218840182080DBE7A0
:103300007FF03F0001F0E0F80020D9E738B5DFF8A2
:103310007C09DFF87C1909780C22514300EB010588
:10332000DFF86809DFF8681989780C22514300EB4F
:103330000104200001F005FA002804D1280001F062
:1033400000FA002805D07FF0140001F0BDF800203D
:103350001DE0E07A20380ED010380CD0103817D08D
:1033600012382BD04F38022821D9001F1FD00C381B
:1033700003281CD929E03020E072280001F0ABFAC4
:103380002168C14021601448C0F80E40012032BDC0
:103390003020E072206800EE100A03F06BFD206020
:1033A000280001F098FA2168C1402160EBE728006D
:1033B00001F091FA2168C1402160E4E7280001F0A2
:1033C0008AFA218840182080DDE77FF03F0001F075
:1033D0007BF80020DBE700005C3E012010B5DFF841
:1033E000AC08DFF8AC1889780C22514300EB0104DB
:1033F000200001F0A6F9002817D0200001F0BDFB45
:10340000002805D17FF0030001F05EF800200BE0FA
:103410002068002803D02068032103F078F8DFF843
:103420000C0CC0F80E40012010BD0122002120002C
:1034300001F02FFEC0B20028F1D0C0B201F044F874
:103440000020F1E738B5DFF84408DFF844180978C0
:103450000C22514300EB0105DFF83008DFF830188B
:1034600089780C22514300EB0104200001F069F936
:10347000002804D1280001F064F9002805D07FF06D
:10348000140001F021F8002011E0022229002000A0
:1034900001F0FFFDC0B2002804D0C0B201F014F862
:1034A000002004E0DFF8840BC0F80E40012032BD9C
:1034B00038B5DFF8D807DFF8D81709780C22514360
:1034C00000EB0105DFF8C407DFF8C41789780C2288
:1034D000514300EB0104200001F033F9002804D12E
:1034E000280001F02EF9002805D07FF0140000F02C
:1034F000EBFF002011E004222900200001F0C9FDAB
:10350000C0B2002804D0C0B200F0DEFF002004E00A
:10351000DFF8180BC0F80E40012032BD38B5DFF8D7
:103520006C07DFF86C1709780C22514300EB01059A
:10353000DFF85807DFF8581789780C22514300EB61
:103540000104200001F0FDF8002804D1280001F05A
:10355000F8F8002805D07FF0140000F0B5FF002037
:1035600011E008222900200001F093FDC0B20028DC
:1035700004D0C0B200F0A8FF002004E0DFF8AC0ADD
:10358000C0F80E40012032BD10B5DFF80007DFF8AB
:10359000001789780C22514300EB0104200001F050
:1035A000D0F8002805D07FF0140000F08DFF002037
:1035B00016E0200001F0D9F8002802D00020207089
:1035C00001E0012020701020E072DFF8601AD1F8CD
:1035D000160021780170DFF8540AC0F80E4001206F
:1035E00010BD38B5DFF8A406DFF8A41609780C2260
:1035F000514300EB0105DFF89406DFF89416897853
:103600000C22514300EB0104200001F09AF800283D
:1036100004D1280001F095F8002805D07FF01400AF
:1036200000F052FF00201BE0200001F09EF800286F
:1036300007D0280001F099F8002802D0012020705E
:1036400001E0002020701020E072DFF8E019D1F8CE
:10365000160021780170DFF8D409C0F80E4001206F
:1036600032BD38B5DFF82406DFF8241609780C22BD
:10367000514300EB0105DFF81406DFF814168978D2
:103680000C22514300EB0104200001F05AF80028FD
:1036900004D1280001F055F8002805D07FF014006F
:1036A00000F012FF00201BE0200001F05EF800286F
:1036B00004D1280001F059F8002802D00120207020
:1036C00001E0002020701020E072DFF86019D1F8CE
:1036D000160021780170DFF85409C0F80E4001206F
:1036E00032BD70B5DFF8A405DFF8A41509780C2207
:1036F000514300EB0105DFF89405DFF89415897854
:103700000C22514300EB0104200001F01AF80028BC
:1037100004D1280001F015F8002805D07FF014002E
:1037200000F0D2FE00201CE0200001F01EF8060090
:10373000F6B2280001F019F890EA060F02D0012035
:10374000207001E0002020701020E072DFF8DC180B
:10375000D1F8160021780170DFF8D008C0F80E40CB
:10376000012070BD10B5DFF82405DFF824150978B5
:103770000C2251430144DFF81405DFF81425927838
:103780000C235A4300EB0204200001F0B7FAC0B248
:10379000002805D17FF03F0000F096FE002013E0E6
:1037A0001021E172C0B2012801D1012000E0002007
:1037B0002070DFF87818D1F8160021780170DFF852
:1037C0006C08C0F80E40012010BD10B5DFF8BC0435
:1037D000DFF8BC1409780C2251430144DFF8AC0433
:1037E000DFF8AC2492780C235A4300EB020420004B
:1037F00001F084FAC0B2002805D17FF03F0000F04C
:1038000063FE002013E01021E172C0B2012801D054
:10381000012000E000202070DFF81018D1F8160019
:1038200021780170DFF80408C0F80E40012010BDB7
:1038300010B5DFF85804DFF8581409780C2251430A
:103840000144DFF84804DFF8482492780C235A43F7
:1038500000EB0204200001F051FAC0B2002805D1AB
:103860007FF03F0000F030FE002013E01021E172F5
:10387000C0B2022801D1012000E000202070DFF852
:10388000AC17D1F8160021780170DFF8A007C0F856
:103890000E40012010BD10B5DFF8F003DFF8F01383
:1038A00009780C2251430144DFF8E003DFF8E023FC
:1038B00092780C235A4300EB0204200001F01EFA18
:1038C000C0B2002805D17FF03F0000F0FDFD0020D0
:1038D00016E01021E172C0B2022802D0C0B2012865
:1038E00001D1012000E000202070DFF84017D1F85E
:1038F000160021780170DFF83407C0F80E4001206F
:1039000010BD10B5DFF88403DFF8841309780C22AA
:1039100051430144DFF87403DFF8742392780C23D9
:103920005A4300EB0204200001F0E8F9C0B200287D
:1039300005D17FF03F0000F0C7FD002013E010210B
:10394000E172C0B2042801D1012000E00020207003
:10395000DFF8D816D1F8160021780170DFF8CC0610
:10396000C0F80E40012010BD10B5C848C8490978FC
:103970000C2251430144C548C54A92780C235A434E
:1039800000EB0204200001F0B9F9C0B2002805D113
:103990007FF03F0000F098FD002016E01021E1725A
:1039A000C0B2042802D0C0B2012801D1012000E039
:1039B00000202070DFF87416D1F81600217801700D
:1039C000DFF86806C0F80E40012010BD10B50020D9
:1039D000AE48AF4989780C22514300EB0104200026
:1039E00000F0C3FEDFF84426D2F816100870DFF8A6
:1039F0003C06C0F80E400120C0B210BD38B5A34847
:103A0000DFF82C1609780C22514300EB01049F4883
:103A1000DFF81C1689780C22514300EB0105E07A8F
:103A200050380ED00D3802280BD9233828D0C01EAC
:103A300026D07C383FD17FF0140000F045FD0020F7
:103A40001DE01021280000F050FE002805D17FF075
:103A5000030000F039FD002011E0002028702068EC
:103A600000280BD02068B0F90000002804D420689A
:103A7000B0F90000022801DB01202870012032BDCE
:103A80001021280000F031FE002805D17FF003004E
:103A900000F01AFD0020F2E70020287020680028BE
:103AA00008D020680838B0F90000001E022801D3B1
:103AB00001202870E2E77FF0140000F005FD0020EF
:103AC000DDE770B57148724989780C22514300EBEB
:103AD00001046E486E4949780C22514300EB010500
:103AE0006A486B4909780C22514300EB010620001B
:103AF00000F027FE002805D07FF0140000F0E4FC61
:103B0000002028E0200000F030FE012800D0350021
:103B1000E97A200000F0E9FD002805D17FF00300DC
:103B200000F0D2FC002016E0E07A5F280AD120687D
:103B300002F088FB2868002808D02968206802F075
:103B400025FC03E02868696820606160DFF8DC0418
:103B5000C0F80E40012070BD38B500244B484C49D8
:103B600089780C22514300EB0105E87A002801D145
:103B700001241EE0E87A502808D0E87A5D2805D0B4
:103B8000E87A5E2802D0E87A5F2806D12868002803
:103B900001D101240DE000240BE0E87A802802D056
:103BA000E87A832805D12868002801D1012400E0A3
:103BB00000241021280000F098FD002805D17FF096
:103BC000030000F081FC002012E0E4B2002C02D0DF
:103BD0000120287001E000202870DFF85014D1F88F
:103BE000160029780170DFF84404C0F80E50012057
:103BF00032BD38B500242548254989780C22514327
:103C000000EB0105E87A002801D101241EE0E87AE2
:103C1000502808D0E87A5D2805D0E87A5E2802D0DE
:103C2000E87A5F2806D12868002801D101240DE038
:103C300000240BE0E87A802802D0E87A832805D1B6
:103C40002868002801D1012400E000241021280068
:103C500000F04BFD002805D17FF0030000F034FC9C
:103C6000002012E0E4B2002C02D00020287001E015
:103C700001202870DFF8B413D1F8160029780170FC
:103C8000DFF8A803C0F80E50012032BDF83601203D
:103C90003042012080B55FF0FF3000F015FC0020BD
:103CA00002BDF8B5DFF88C03DFF8841389780C22A5
:103CB000514300EB0104DFF87C03DFF8741309784B
:103CC0000C22514300EB0105002002F0E8F9070047
:103CD000380002F0B7FA0022DFF85C13380002F077
:103CE0003EFB20683B000022082102F045FC0D212C
:103CF000380002F029FB380001F088FA380002F0A1
:103D0000A1FA0022DFF83413380002F028FB6979A9
:103D1000380002F019FB3A21380002F015FB30217F
:103D2000380002F011FB287910F13001C9B23800D7
:103D300002F00AFB0D21380002F006FB380001F00A
:103D400065FA380002F07EFA0022BD49380002F020
:103D500006FB2668002E05D17FF0150000F0B4FBAD
:103D600000201DE0280000F0B5FCC0B2FF2805D1FE
:103D70007FF0140000F0A8FB002011E00097002362
:103D800032002979687902F015FF0D21380002F020
:103D9000DBFA380001F03AFA380002F0FDF90120B0
:103DA000F2BD80B55FF0FF3000F08EFB002002BD59
:103DB00080B55FF0FF3000F087FB002002BD80B5CA
:103DC0005FF0FF3000F080FB002002BD10B5984985
:103DD000086800F03EF90400802C03D399498868F4
:103DE000A04205D27FF0020000F06EFB00200BE045
:103DF0008E49086800F0FBFB844204D2200000F0EA
:103E000049FA012000E0002010BD10B5894888491A
:103E100089780C225143084400F05DFD0400802C99
:103E200003D388498868A04205D27FF0020000F0E1
:103E30004BFB00200BE07D49086800F0D8FB844272
:103E400004D2200000F026FA012000E0002010BD7E
:103E500010B57749086800F0FCF80400802C03D303
:103E600078498868A04205D27FF0020000F02CFB60
:103E7000002011E06D49086800F0B9FB84420AD2C5
:103E80006A49D1F816000078002802D0200000F01E
:103E900001FA012000E0002010BD10B5654864491A
:103EA00089780C225143084400F015FD0400802C51
:103EB00003D364498868A04205D27FF0020000F075
:103EC00003FB002011E05949086800F090FB844290
:103ED0000AD25649D1F816000078002802D02000F6
:103EE00000F0D8F9012000E0002010BD10B55049C5
:103EF000086800F0AEF80400802C03D351498868AC
:103F0000A04205D27FF0020000F0DEFA002011E0AE
:103F10004649086800F06BFB84420AD24349D1F855
:103F200016000078002802D1200000F0B3F901202B
:103F300000E0002010BD10B53E483D4989780C22B4
:103F40005143084400F0C7FC0400802C03D33D49D2
:103F50008868A04205D27FF0020000F0B5FA002088
:103F600011E03249086800F042FB84420AD22F492E
:103F7000D1F816000078002802D1200000F08AF95C
:103F8000012000E0002010BD10B52949086800F0AC
:103F900060F8040000F079F910EB8404802C03D35E
:103FA00028498868A04205D27FF0020000F08CFA10
:103FB000002011E01D49086800F019FB84420AD274
:103FC0001A49D1F816000078002802D0200000F02D
:103FD00061F9012000E0002010BD10B51449086807
:103FE00000F037F8040000F050F910EB8404802C46
:103FF00003D314498868A04205D27FF0020000F084
:1040000063FA002011E00949086800F0F0FA8442E0
:104010000AD20649D1F816000078002802D1200003
:1040200000F038F9012000E0002010BD5C3E0120C6
:1040300030420120F8360120EC660108846701084F
:104040008C670108D83C012080B500F00EFA0120F1
:1040500002BD20F07F40704710B50400200001F041
:1040600061FC200003F0E0FA03F066FCDFF8FC04DA
:10407000DFF8FC140863DFF8FC04DFF8F414C1F87F
:104080001200DFF8F404DFF8E814C1F8160000F0BD
:1040900009F8012010BD80B503F012FB01F022FDEC
:1040A000012002BD0020DFF8C81448720020DFF8AC
:1040B000C0140872DFF8B8040021C0F80E10002008
:1040C000DFF8AC1481F826000020DFF8A414A1F872
:1040D00027000020DFF89814C8850020DFF890142E
:1040E00081F82D00DFF888040021C0F81A10DFF8ED
:1040F00080040021C0F81E100120704780B5DFF851
:1041000070241060DFF86804416000F024F8C0B249
:10411000002807D0DFF86404016BDFF86004C06A90
:1041200001F055FCC0B2002801D000F04CF8C0B23C
:10413000002801D000F06CF8C0B202BD80B50020AC
:104140000020009080230022DFF83014002000F0CF
:10415000CFF9C0B202BD80B5FFF7F0FFC0B20028B2
:104160002FD0DFF81814097843290ED1DFF80C148A
:104170004978522909D1DFF804148978412904D1FA
:10418000DFF8F813C978422901D000201AE0DFF8DF
:10419000EC138968B1F1807F01D3002012E0DFF8D1
:1041A000DC13097F00290CD1DFF8D013497F0029E7
:1041B00007D10A21DFF8C42311770421DFF8BC23DB
:1041C0005177C0B202BD38B5DFF8B003C46A002C25
:1041D00001D101201BE0B4F5806F01D94FF4806458
:1041E000DFF89C030169091DA40001200090230051
:1041F000DFF888038268002000F07AF9DFF8800396
:10420000C568211D0022280001F0B0FE012032BD4A
:1042100010B582B00020DFF8681308870020DFF8AF
:1042200060134887DFF85403006B002801D1012098
:1042300021E0B0F5806F01D94FF48060DFF83C13C6
:104240008968DFF83823D26A11EB8202DFF8303355
:10425000596901230093C300002000F049F9DFF8F9
:104260002013486BDFF818138C69410000222000EE
:1042700001F07CFE012016BDDFF8F402407A7047A1
:10428000DFF8EC12D1F822007047DFF8E412D1F821
:104290001A007047DFF8D812C1F81A0001207047E1
:1042A00080B5DFF8CC12D1F81A00DFF8C412C1F8DB
:1042B0002200DFF8BC0290F82600002808D0DFF8C2
:1042C000B012D1F82200DFF8BC1203F07FFA0BE045
:1042D000DFF89C02D0F82220002000900423DFF8B1
:1042E000A412002000F004F9C0B202BDDFF894026D
:1042F000C078002809D0DFF88C02C078FF2804D0ED
:10430000DFF88002C078AA2801DB002000E001204D
:10431000704780B5DFF85812D1F81A00DFF85C1248
:104320008968884201D3002010E0FFF7B9FF002818
:104330000BD0DFF83C12D1F81A00DFF83412001D60
:10434000C1F81A00FFF7D2FF00E0002002BD38B527
:104350000024FFF7CBFF002824D0DFF82C02DFF881
:104360002412C978052251430844D0F80150DFF8DF
:1043700018028449C97805225143405C290000296C
:1043800008D0C0B250F4804080B201F0B5F9A8471F
:1043900004000EE05FF0FF3000F096F80020744952
:1043A000487206E05FF0FF3000F08EF800207049A0
:1043B00048722000C0B232BD10B582B06C48447A59
:1043C00001F0F9F9002827D0694890F8270010F08B
:1043D0000100002820D1684601F07AFA00281AD09E
:1043E000FFF753FF6249C1F82900614890F82700A0
:1043F00050F001005E4981F827005D49D1F81600B0
:1044000000F015FC5A49D1F8120000F010FC009899
:10441000FFF740FF00E000242000C0B216BD80B5C9
:10442000002001F020FB04F059F8FFF73BFE504854
:104430000068002803D100204D49487212E04C4822
:104440008021C0F81A105148007A002807D04B4844
:104450008168002003F03FF9454981F826000120DA
:10446000434948724248407A02BD002040494872A0
:104470000120704730B583B004000D00002D01D13C
:10448000002020E0012000900123220001A900204B
:1044900000F02EF8C0B2002801D1C0B213E09DF8A0
:1044A000041000290ED0012000909DF80430621CF9
:1044B000291D002000F01CF8C0B2002802D09DF891
:1044C0000410E970C0B23EBD10F1630F01D1304954
:1044D00008682749C1F80A002021254A126BD172C9
:1044E0002349096B086070472149D1F80A007047D9
:1044F0002DE9F0410C0015001E00C0B2002802D0CA
:1045000001280CD00FE01A48D0F80080404600F097
:1045100080F8070017F1010F07D1002024E01448AC
:10452000D0F80480F2E700201EE0AF4209D000225C
:104530002900404600F07FF810F1010F01D1002062
:1045400012E032002100404600F08BF810F1010F1C
:1045500001D1002008E00698002804D0002239008C
:10456000404600F068F80120BDE8F081F4370120F2
:104570005C3E01201838012024380120D83C01205D
:10458000583D0120304201208C2E0120B43D0120F5
:10459000303801200021016000214160002181604C
:1045A0000021C16000210161002141610021816180
:1045B0000021C16100210162002141627047002891
:1045C00002D15FF0FF3011E00268002A05D15FF0F0
:1045D000FF3141605FF0FF3008E0002905D17FF036
:1045E000010141605FF0FF3000E00020704710B52E
:1045F0000400002C06D0A1682000FFF7E0FF10F1B6
:10460000010F02D15FF0FF3002E0A1682068884707
:1046100010BD10B50400002C06D021692000FFF762
:10462000CEFF10F1010F02D15FF0FF3002E02169EF
:104630002068884710BD70B504000D001600002CDE
:1046400006D061692000FFF7BAFF10F1010F02D117
:104650005FF0FF3004E0636920683200290098476A
:1046600070BD70B504000D001600002C06D0A169C5
:104670002000FFF7A4FF10F1010F02D15FF0FF301F
:1046800004E0A369206832002900984770BD70B526
:1046900004000D001600002C06D0E1692000FFF791
:1046A0008EFF10F1010F02D15FF0FF3004E0E369EB
:1046B000206832002900984770BD8268521C8260D1
:1046C000426832B10268531C036011704168491E90
:1046D0004160704780B5C17AC22901D0FF2003E054
:1046E0000179407902F027FA02BD38B504000D00C7
:1046F000002C01D1002023E0EDB25F2D13D1E07A30
:104700005F2802D12068002804D1012001F0C7FCF5
:10471000206002E0206801F095FD2068002801D1AA
:1047200000200DE00AE0E07A5F2807D12068002829
:1047300004D0206801F030FD00202060E5720120E7
:1047400032BDC17A502908D0C17A5D2905D0C17A1D
:104750005E2902D0C17A5F2904D10168002901D005
:10476000012000E00020C0B2704738B504000025E9
:10477000002C02D12800C0B268E02000FFF7E1FF62
:10478000002808D0EDB2002D01D0012500E0002561
:104790002800C0B25AE0E07A002816D0103816D0AF
:1047A000103816D010381BD0103820D0203838D010
:1047B000401E28D0401E2DD03F3802283CD9001F73
:1047C0003AD00C38032837D93DE000253CE0257865
:1047D0003AE02068002801D1002500E0012533E0FF
:1047E0002068002801D1002500E001252CE0206888
:1047F00000EE100AB5EE400AF1EE10FA01D10025E4
:1048000000E0012520E06068002801D1002500E0DB
:10481000012519E02068002801D1002500E00125CC
:1048200012E02068616800220023994203D190427F
:1048300001D1002500E001252068002801D10025D4
:1048400000E0012500E000252800C0B232BD10B50F
:104850000400002C01D100203CE02000FFF771FF94
:10486000002801D0002035E0E07A103816D010384A
:1048700016D0103814D0103814D0203820D0401E54
:1048800016D0401E16D023381DD01C3802281CD943
:10489000001F1AD00C38032817D91AE0207819E025
:1048A000206817E0206800EE100A02F0E3FA11E039
:1048B00060680FE020684FF47A71B0FBF1F009E016
:1048C0002068616806E0206804E0206820F040402D
:1048D00000E0002010BD10B50400002C01D1002024
:1048E0003CE02000FFF72DFF002801D0002035E03C
:1048F000E07A103816D0103816D0103814D010388E
:1049000014D0203820D0401E16D0401E16D0233898
:1049100021D01C3802281AD9001F18D00C380328BF
:1049200015D91AE0207819E0206817E0206800EE19
:10493000100A02F09FFA11E060680FE020684FF45F
:104940007A71B0FBF1F009E02068616806E0206848
:1049500020F0404002E0206800E0002010BD000090
:1049600010B50400002C02D19FED2E0A58E0200063
:10497000FFF7E7FE002802D09FED2A0A50E0E07A18
:10498000103816D010381AD0103818D010381CD063
:1049900020382ED0401E1CD0401E20D023382FD0CF
:1049A0001C38022832D9001F30D00C3803282DD9EA
:1049B00034E0207800EE100AB8EE400A30E02068BB
:1049C00000EE100AB8EEC00A2AE0206800EE100AD5
:1049D00026E0606800EE100AB8EE400A20E0206889
:1049E0004FF47A71B0FBF1F000EE100AB8EE400A15
:1049F00016E02068616802F0A5FB00EE100A0FE0E7
:104A0000206800EE100AB8EE400A09E0206820F0A5
:104A1000404000EE100AB8EE400A01E09FED010AA6
:104A200010BD000000000000F8B5070008001600E7
:104A3000002F01D0002E01D130009DE0F97A10390D
:104A400021D0103926D010392CD0103932D010395D
:104A50005DD0891E4FD00B39022958D9C91E41D0CB
:104A6000491E2FD0491E35D0233970D01C39022958
:104A70005BD9091F59D00C39032956D90F395DD09C
:104A800030396CD074E032000100C9B2387801F0DE
:104A90009EFD70E03B6832000100C9B2180001F0D1
:104AA000DEFD68E03B6832000100C9B2180001F089
:104AB000FBFD60E0396800EE101A3100C0B201F071
:104AC00045FE58E07B6832000100C9B2180001F0D1
:104AD000B6FE50E03B6832000100C9B2180001F098
:104AE00027FF48E039687C6833000200D2B220001A
:104AF00001F0DCFF3FE0C0B2002802D0300001F03E
:104B0000A1FBB7F90010300001F035FC33E0C0B272
:104B1000002802D0300001F095FB3868002803D04F
:104B20003968300001F032FC25E03B6832000100BA
:104B3000C9B223F0404001F0B7FD1CE03B683200F1
:104B40000100C9B223F0404001F0AEFD13E03B6824
:104B500032000100C9B2180001F0A6FD0BE03C686C
:104B60007D6832000100C9B2200001F09DFD02E025
:104B7000300001F067FB3000F2BD38B50400E07A88
:104B8000503802D00D38012811D825685F21200047
:104B9000FFF7ABFD002801D1002009E0206801F0FB
:104BA00051FB002D03D02068290001F0EFFB01200C
:104BB00032BD70B504000020002C05D14B497FF0B8
:104BC0000A020A60C0B212E0494D0120002601E04D
:104BD0000C35761C182E09DA2100F140C907F7D5EB
:104BE000280000F024F8C0B20028F1D1C0B270BD96
:104BF00070B504000020002C05D13C497FF00A026A
:104C00000A60C0B212E03B4D0120172601E00C3DC6
:104C1000761E002E09D42100F140C907F7D52800DF
:104C200000F02EF8C0B20028F1D1C0B270BD30B48F
:104C3000002805D12D487FF00A01016000201DE009
:104C40002D4A516A2C4BDA6B891A2B4BDA6B0C32DA
:104C5000294C236B284D6C6DA418A34205D2234820
:104C60007FF020010160002008E0234BDA638268B6
:104C70008A60026843680A604B60012030BC70475C
:104C800070B50400002C05D118487FF00A010160BE
:104C900000202AE01849C86B0C2805D213487FF081
:104CA0000D010160002020E01349C86BB0F10C0633
:104CB0001149486A851BE07A5F280DD1E87A5F28A0
:104CC00007D120682968884206D0206801F064FA7C
:104CD00002E0206801F060FA0748C663A868A06097
:104CE0002868696820606160012070BD303801204B
:104CF000F83601200C380120583D012038B52DED43
:104D0000048B04000D00E07A103825D010382DD027
:104D1000103873D0103800F0B980103800F0898155
:104D2000801E00F07C810B38022840F28281C01E78
:104D300000F02081401E00F0F180401E00F0048150
:104D40003F38022840F22381001F00F020810C38F8
:104D5000032840F21C8197E1E87A102804D12978D1
:104D6000207802F0EFF800E000208EE1E87A2038A9
:104D70000ED0103811D0103814D008381DD0593842
:104D8000022834D9001F32D00C3803282FD933E041
:104D90002968206802F0C6F82FE02968206802F030
:104DA000C1F82AE0286800EE900A206800EE100A98
:104DB000B8EEC00A02F0F0F81FE0286800EE100A12
:104DC000256810EE100A02F00FFA41EC110BB0EE5C
:104DD000418AF0EE618A280002F02EFA41EC100BB5
:104DE000B0EE481AF0EE681A02F0EEF805E0296815
:104DF000206802F097F800E0002046E1E87A2038C9
:104E00000ED0103811D0103814D008381DD05938B1
:104E1000022834D9001F32D00C3803282FD933E0B0
:104E20002968206802F07EF82FE02968206802F0E7
:104E300089F82AE0286800EE900A206800EE100A3F
:104E4000B8EE400A02F0A8F81FE0286800EE100A49
:104E5000256810EE100A02F0C7F941EC110BB0EE14
:104E6000418AF0EE618A280002F0F0F941EC100B63
:104E7000B0EE481AF0EE681A02F0A6F805E02968CC
:104E8000206802F05FF800E00020FEE0E87A2028C9
:104E900006D030280FD0402818D048281FD03BE03B
:104EA000286800EE900A206800EE100AF8EEE00A8A
:104EB00002F072F831E0286800EE900A206800EEF7
:104EC000100AF8EE600A02F067F826E0286800EEA3
:104ED000900A206800EE100A02F05EF81DE02868D3
:104EE00000EE100A206809EE100A10EE100A02F017
:104EF0007BF941EC110BB0EE418AF0EE618A19EEBC
:104F0000100A02F071F941EC100BB0EE481AF0EE05
:104F1000681A02F059F800E00020B6E0E87A60284C
:104F200006D061280ED16968606802F00BF80AE0CB
:104F30002868002804D16968606802F003F800E07E
:104F4000002000E00020A0E0E87A602806D0622877
:104F50000ED12968206801F0F5FF0AE06868002892
:104F600004D12968206801F0EDFF00E0002000E096
:104F700000208AE0E87A6038022806D82A686B6840
:104F80002068616801F0EEFF00E000207DE0E87A33
:104F900020380ED0103811D0103814D008381DD059
:104FA0005938022834D9001F32D00C3803282FD9A1
:104FB00033E02968206801F0B5FF2FE029682068F8
:104FC00001F0C0FF2AE0286800EE900A206800EE99
:104FD000100AB8EE400A01F0DFFF1FE0286800EE7B
:104FE000100A256810EE100A02F0FEF841EC110BD1
:104FF000B0EE418AF0EE618A280002F027F941EC18
:10500000100BB0EE481AF0EE681A01F0DDFF05E073
:105010002968206801F096FF00E0002035E0E87A7A
:10502000522804D12988208801F08CFF00E000205C
:105030002BE02800FFF785FB002801D1002025E0A8
:10504000206800281ED0286800281BD0206821680E
:105050000022C97808440271286829680022C978AA
:105060000844027128682268011D101D03F044FAEB
:10507000012801DB042006E0002801D5022002E01F
:10508000012000E0002000E00020C0B2BDEC048B55
:1050900032BD30B4002802D17FF00A006AE000235C
:1050A0000024C37A203B0CD0103B1CD0223B1ED0E6
:1050B0004F3B022B19D91B1F17D00C3B032B14D9C4
:1050C00019E00368002B02D57FF03F0052E0302347
:1050D000C3720368D2B2012A14D1C17A30290DD12A
:1050E000D94301600CE00368F4E70368F2E730237A
:1050F000C3720388EEE77FF03F003BE0D9430160D5
:10510000002037E0002902D17FF00A0032E0CC7A9B
:10511000203C0CD0103C20D0223C22D04F3C022C12
:105120001DD9241F1BD00C3C032C18D91BE00C6884
:10513000002C02D57FF03F001CE00C68D2B2022A9E
:1051400004D0042A18D0082A21D02BE0C17A3029B3
:105150000CD114EA030101600BE00C68EEE70C6867
:10516000ECE70C88EAE77FF03F0003E014EA030174
:105170000160002030BC7047C17A302903D154EA65
:105180000301016002E054EA03010160F1E7C17A22
:10519000302903D194EA0301016002E094EA03019B
:1051A0000160E6E77FF03F00E4E77047FEE7FEE7D7
:1051B000FEE7FEE770477047704770470EB478B55A
:1051C0000400DFF82405806800281CD005AE00200C
:1051D00000F065FF0500002D15D033002200A978EE
:1051E000281D03F0ABF9002180B205EB000211711C
:1051F000002280B20100281DDFF8EC349B6898473C
:10520000280000F0C9FF71BC5DF810FB80B5DFF825
:10521000D8148968002906D00022C178001DDFF863
:10522000C8349B68984701BD80B5DFF8BC14896815
:10523000002906D00122C178001DDFF8AC349B683C
:10524000984701BD10B4002280B2002811D0DFF8C9
:105250009C44E36A80B283420BD380B2B0F5806F86
:1052600007DADFF88C34DA6880B202EB8002116072
:1052700001221000C0B210BC704710B582B00C0003
:105280000122694600F00AF8002801D1002004E05C
:105290002100BDF80000FFF7D5FF16BD2DE9F14F45
:1052A0000C0015000026DFF84414C86A471CB7F547
:1052B000806F01D94FF48067002000F0F0FE804637
:1052C0005FF000095FF0100A04E0EDB2002D0AD093
:1052D0001AF1010ABA4556D2DFF81414C86850F81A
:1052E0002A000028F1D14146504680B200F052F821
:1052F00098F803000028EBD0B9F1000F03D098F81C
:1053000003008145E4D1009A18F104030120002133
:1053100000E0491C98F803C061452ED292F800E0E5
:10532000521C93F800C05B1C5FFA8EFEBEF1610B4D
:10533000BBF11A0F02D2BEF1200E08E05FFA8EFE1A
:10534000BEF1000F03D1B9F1000F00D189465FFA19
:105350008CFCBCF1610BBBF11A0F01D2BCF1200C2B
:10536000F3465FFA8BFB5FFA8CFCE34504D15FFAEE
:105370008EFEBEF1000FCCD10020C0B20028A7D015
:10538000A4F800A00126404600F006FF3000C0B29D
:10539000BDE8F28F30B583B00C00002580B2002844
:1053A00011D0DFF84823D16A80B281420BD380B29A
:1053B000B0F5806F07DACE4A116980B201EB800147
:1053C000086820F07F45002D01D1002022E0012057
:1053D000009001232A0001A90020FFF789F8C0B23C
:1053E000002801D1C0B215E09DF80410002908D0B2
:1053F000012000909DF804306A1C211D0020FFF759
:1054000077F800219DF80420224411719DF80410C2
:10541000E170C0B23EBD002180B2002811D0B34B74
:10542000DA6A80B282420CD380B2B0F5806F08DABB
:10543000AF4BDA6880B202EB80021068002800D01F
:10544000116808007047AB49D1F83A007047C0B204
:105450000100522907D0642903D0742905D16120A5
:1054600005E0622003E0522001E010F0F0007047F8
:1054700010B50400C9B211F00F029E49D1F83E00E8
:1054800041689C4BD3F83A001018814213D39949D4
:10549000D1F83E000168974BD3F83A004118954B7C
:1054A000D3F83A00934B1018C3F83A00200001F0EB
:1054B000B7FD012000E0002010BDC9B254290DD174
:1054C0000268002A0AD00168B1F9001000292BD423
:1054D000016802681088401C088025E0C9B2842950
:1054E00002D0C9B2A4291FD1016800291CD00168CB
:1054F0000839B1F90020002A02D40A88521C0A8017
:10550000CA78532A10D14A6801680BE00868B0F9DC
:105510000000002804D408680088401C0B6818802C
:10552000091D521E002AF1D10120704738B50C0028
:10553000E4B214F00F026F4BD3F83E100D68002D4B
:105540000AD00100280001F06BFD2100C9B228003B
:10555000FFF7B3FF012000E0002032BD10B50400CA
:10556000644AD2F83E00C9B211F00F02C9B27429E0
:1055700000D1001D0100200001F052FD012010BDEE
:105580002DE9F041040088465A48D0F83E605FFAA1
:1055900088F818F00F074046C0B2FFF758FF050023
:1055A0005FFA88F8B8F1540F00D15F255149D1F85E
:1055B0003E002900C9B2FFF798F8002805D17FF016
:1055C0006200FEF781FF002052E05FFA88F8B8F130
:1055D000540F17D0B8F1740F09D0B8F1840F22D04E
:1055E000B8F1940F1FD0B8F1A40F1CD02FE0361DD6
:1055F0003A002100300001F013FD3E49D1F83E0091
:10560000C57234E03B48D0F83E10086800F01AFE3E
:105610002068002806D03748D0F83E100868216876
:1056200000F0B4FE23E03349D1F83E00002200230D
:10563000026043602F49D1F83E00C57220680028FF
:1056400004D02C49D1F83E00216801600FE02948C0
:10565000D0F83E2000200021106051603A00210067
:10566000300001F0DDFC2349D1F83E00C572012075
:10567000BDE8F08110B50400C9B211F00F021D4958
:10568000486B002801D100200DE01A49486B0168E1
:10569000002901D1002006E01649486B016820006E
:1056A00001F0BEFC012010BD38B50C00E4B214F0CE
:1056B0000F02104B596B002901D1002013E00D4B54
:1056C000596B0B68002B01D100200CE0094B596B82
:1056D0000D680100280001F0A3FC2100C9B22800D8
:1056E000FFF7EBFE012032BD54410120D83C0120E0
:1056F000583D01205C3E0120874991F8271011F0A8
:105700000101002901D0002054E080B201000029ED
:1057100020D0B1F5805F22D0B1F5005F28D0B1F57F
:10572000804F37D044F2010291422AD0B1F5004FA8
:1057300039D1794890F8270050F00200764981F875
:105740002700754890F8270050F00400724981F84E
:1057500027002EE000207049A1F8270029E06E48BC
:1057600090F8270050F004006B4981F8270020E0F2
:10577000694890F8270010F0FB00674981F827007E
:1057800017E0654890F8270050F00800624981F85A
:1057900027000EE0604890F8270010F0F7005E49FF
:1057A00081F8270005E080B2FF2802DC5A4981F821
:1057B000280001207047584890F8270010F0010099
:1057C000002801D0002021E0534890F8270010F075
:1057D0000600062819D1504890F82800002808D063
:1057E0004D4890F82800401E4B4981F828000020C1
:1057F0000CE0494890F82700C0F3C000C0B2002870
:1058000001D0012002E0002000E00020704710B429
:105810000021414A92F82720C2F34002D2B2002A66
:1058200001D100202AE0002200E0521C3B4C236BF7
:1058300092B29A4208D23A4C636992B203EBC20424
:1058400063688342F1D1511C89B2002901D1002043
:1058500014E0334A506B324A128F824202DB00203E
:105860002F4A10872E4A90692D4A128F20F8121065
:105870002B48008F401C2A490887012010BC704724
:10588000274A516B264A528F8A4202DB0021244A62
:105890005187234A9169224A528F31F812100180B0
:1058A0001F4988691E49498F30F8110000280DD022
:1058B0001B49886900211A4A528F20F81210184893
:1058C000408F401C16494887012000E000207047A7
:1058D00010B582B004006846FFF7D2FFC0B20028BE
:1058E00016D0BDF80010002912D00C4A116BBDF87B
:1058F000002091420CD30A4A5169BDF8002001EB07
:10590000C20252F8081C21F07F412160C0B202E0BF
:1059100000202060002016BD5C3E0120D83C012004
:10592000583D012080B50168DFF8382611604268D3
:10593000DFF830365A600269DFF828365A63DFF83C
:1059400024269160DFF81C26D160DFF8182611614B
:10595000DFF810265161DFF80C269161DFF804268C
:10596000D161DFF800261162DFF8F8150968DFF869
:10597000F425526811444269DFF8E8359A64DFF88B
:10598000E425926C7FF003035A431144DFF8D425D9
:10599000D1620022DFF8CC35DA640022DFF8C435AA
:1059A0001A658269DFF8BC050264DFF8B805006C8F
:1059B0007FF0030250430144DFF8A80581620839F3
:1059C000DFF8A0054162012000F04DF802BD10B4DF
:1059D0000022DFF890351B68401CB0F5806F01D9BC
:1059E0004FF48060B1F5806F01D94FF48061DFF82A
:1059F0007445E36003EB800312EB8002DFF864453B
:105A0000236103EB800312EB8002DFF8580543614A
:105A100003EBC10312EBC102DFF848058361DFF835
:105A20004405406B03EB4003DFF83805406B12EB95
:105A30004002DFF83005C361DFF828054068801AAE
:105A4000DFF820150863DFF81C054068904207D294
:105A50007FF00100DFF81015C1F83801002000E0E8
:105A6000012010BC704738B504000020DFF8F414A2
:105A7000C8630020DFF8EC1448650020DFF8E41468
:105A800088650020DFF8DC1408870020DFF8D414D4
:105A900048870020DFF8CC14486400F0D7FAD02102
:105AA0000022DFF8C454280000F060FA002008E06B
:105AB000411CDFF8B4240C2303FB00F31A44917259
:105AC000401C1A28F4DBE4B2002C09D0DFF894045F
:105AD00041680022DFF88C040468200000F046FAD8
